{
  "_format": "hh-sol-artifact-1",
  "contractName": "RcTestReward",
  "sourceName": "contracts/RcTestReward.sol",
  "abi": [
    {
      "inputs": [
        {
          "internalType": "uint256",
          "name": "_durationInBlocks",
          "type": "uint256"
        }
      ],
      "stateMutability": "nonpayable",
      "type": "constructor"
    },
    {
      "inputs": [],
      "name": "MAX_TRANSACTIONS_PER_TESTER",
      "outputs": [
        {
          "internalType": "uint256",
          "name": "",
          "type": "uint256"
        }
      ],
      "stateMutability": "view",
      "type": "function"
    },
    {
      "inputs": [],
      "name": "REWARD_PER_TRANSACTION",
      "outputs": [
        {
          "internalType": "uint256",
          "name": "",
          "type": "uint256"
        }
      ],
      "stateMutability": "view",
      "type": "function"
    },
    {
      "inputs": [
        {
          "internalType": "address",
          "name": "",
          "type": "address"
        }
      ],
      "name": "auditReports",
      "outputs": [
        {
          "internalType": "uint256",
          "name": "transactionCount",
          "type": "uint256"
        },
        {
          "internalType": "string",
          "name": "description",
          "type": "string"
        },
        {
          "internalType": "string",
          "name": "reportHash",
          "type": "string"
        },
        {
          "internalType": "address",
          "name": "tester",
          "type": "address"
        },
        {
          "internalType": "uint256",
          "name": "blockNumber",
          "type": "uint256"
        }
      ],
      "stateMutability": "view",
      "type": "function"
    },
    {
      "inputs": [],
      "name": "endBlock",
      "outputs": [
        {
          "internalType": "uint256",
          "name": "",
          "type": "uint256"
        }
      ],
      "stateMutability": "view",
      "type": "function"
    },
    {
      "inputs": [],
      "name": "getBlocksRemaining",
      "outputs": [
        {
          "internalType": "uint256",
          "name": "",
          "type": "uint256"
        }
      ],
      "stateMutability": "view",
      "type": "function"
    },
    {
      "inputs": [
        {
          "internalType": "address",
          "name": "_tester",
          "type": "address"
        }
      ],
      "name": "getOwedTokens",
      "outputs": [
        {
          "internalType": "uint256",
          "name": "",
          "type": "uint256"
        }
      ],
      "stateMutability": "view",
      "type": "function"
    },
    {
      "inputs": [],
      "name": "startBlock",
      "outputs": [
        {
          "internalType": "uint256",
          "name": "",
          "type": "uint256"
        }
      ],
      "stateMutability": "view",
      "type": "function"
    },
    {
      "inputs": [
        {
          "internalType": "uint256",
          "name": "_transactionCount",
          "type": "uint256"
        },
        {
          "internalType": "string",
          "name": "_description",
          "type": "string"
        },
        {
          "internalType": "string",
          "name": "_reportHash",
          "type": "string"
        }
      ],
      "name": "submitAuditReport",
      "outputs": [],
      "stateMutability": "nonpayable",
      "type": "function"
    }
  ],
  "bytecode": "0x60c060405234801561001057600080fd5b506040516112083803806112088339818101604052810190610032919061008e565b4360808181525050804361004691906100ea565b60a081815250505061011e565b600080fd5b6000819050919050565b61006b81610058565b811461007657600080fd5b50565b60008151905061008881610062565b92915050565b6000602082840312156100a4576100a3610053565b5b60006100b284828501610079565b91505092915050565b7f4e487b7100000000000000000000000000000000000000000000000000000000600052601160045260246000fd5b60006100f582610058565b915061010083610058565b9250828201905080821115610118576101176100bb565b5b92915050565b60805160a0516110b0610158600039600081816101a5015281816101c90152818161068501526106b60152600061065f01526110b06000f3fe608060405234801561001057600080fd5b50600436106100885760003560e01c806348cd4cb11161005b57806348cd4cb11461012b5780637941a06214610149578063e9f0e4e614610167578063f876ed541461018557610088565b8063083c63231461008d5780630a2c5e2c146100ab57806312116f45146100c75780632da7686b146100f7575b600080fd5b6100956101a3565b6040516100a29190610709565b60405180910390f35b6100c560048036038101906100c091906108aa565b6101c7565b005b6100e160048036038101906100dc9190610993565b6104a0565b6040516100ee9190610709565b60405180910390f35b610111600480360381019061010c9190610993565b6104f7565b604051610122959493929190610a4e565b60405180910390f35b61013361065d565b6040516101409190610709565b60405180910390f35b610151610681565b60405161015e9190610709565b60405180910390f35b61016f6106e5565b60405161017c9190610709565b60405180910390f35b61018d6106eb565b60405161019a9190610709565b60405180910390f35b7f000000000000000000000000000000000000000000000000000000000000000081565b7f000000000000000000000000000000000000000000000000000000000000000043111561022a576040517f08c379a000000000000000000000000000000000000000000000000000000000815260040161022190610b21565b60405180910390fd5b600160003373ffffffffffffffffffffffffffffffffffffffff1673ffffffffffffffffffffffffffffffffffffffff16815260200190815260200160002060009054906101000a900460ff16156102b7576040517f08c379a00000000000000000000000000000000000000000000000000000000081526004016102ae90610bb3565b60405180910390fd5b600083116102fa576040517f08c379a00000000000000000000000000000000000000000000000000000000081526004016102f190610c45565b60405180910390fd5b6103e883111561033f576040517f08c379a000000000000000000000000000000000000000000000000000000000815260040161033690610cd7565b60405180910390fd5b60018060003373ffffffffffffffffffffffffffffffffffffffff1673ffffffffffffffffffffffffffffffffffffffff16815260200190815260200160002060006101000a81548160ff0219169083151502179055506040518060a001604052808481526020018381526020018281526020013373ffffffffffffffffffffffffffffffffffffffff168152602001438152506000803373ffffffffffffffffffffffffffffffffffffffff1673ffffffffffffffffffffffffffffffffffffffff1681526020019081526020016000206000820151816000015560208201518160010190816104309190610f03565b5060408201518160020190816104469190610f03565b5060608201518160030160006101000a81548173ffffffffffffffffffffffffffffffffffffffff021916908373ffffffffffffffffffffffffffffffffffffffff16021790555060808201518160040155905050505050565b600060646000808473ffffffffffffffffffffffffffffffffffffffff1673ffffffffffffffffffffffffffffffffffffffff168152602001908152602001600020600001546104f09190611004565b9050919050565b600060205280600052604060002060009150905080600001549080600101805461052090610d26565b80601f016020809104026020016040519081016040528092919081815260200182805461054c90610d26565b80156105995780601f1061056e57610100808354040283529160200191610599565b820191906000526020600020905b81548152906001019060200180831161057c57829003601f168201915b5050505050908060020180546105ae90610d26565b80601f01602080910402602001604051908101604052809291908181526020018280546105da90610d26565b80156106275780601f106105fc57610100808354040283529160200191610627565b820191906000526020600020905b81548152906001019060200180831161060a57829003601f168201915b5050505050908060030160009054906101000a900473ffffffffffffffffffffffffffffffffffffffff16908060040154905085565b7f000000000000000000000000000000000000000000000000000000000000000081565b60007f000000000000000000000000000000000000000000000000000000000000000043106106b357600090506106e2565b437f00000000000000000000000000000000000000000000000000000000000000006106df9190611046565b90505b90565b6103e881565b606481565b6000819050919050565b610703816106f0565b82525050565b600060208201905061071e60008301846106fa565b92915050565b6000604051905090565b600080fd5b600080fd5b610741816106f0565b811461074c57600080fd5b50565b60008135905061075e81610738565b92915050565b600080fd5b600080fd5b6000601f19601f8301169050919050565b7f4e487b7100000000000000000000000000000000000000000000000000000000600052604160045260246000fd5b6107b78261076e565b810181811067ffffffffffffffff821117156107d6576107d561077f565b5b80604052505050565b60006107e9610724565b90506107f582826107ae565b919050565b600067ffffffffffffffff8211156108155761081461077f565b5b61081e8261076e565b9050602081019050919050565b82818337600083830152505050565b600061084d610848846107fa565b6107df565b90508281526020810184848401111561086957610868610769565b5b61087484828561082b565b509392505050565b600082601f83011261089157610890610764565b5b81356108a184826020860161083a565b91505092915050565b6000806000606084860312156108c3576108c261072e565b5b60006108d18682870161074f565b935050602084013567ffffffffffffffff8111156108f2576108f1610733565b5b6108fe8682870161087c565b925050604084013567ffffffffffffffff81111561091f5761091e610733565b5b61092b8682870161087c565b9150509250925092565b600073ffffffffffffffffffffffffffffffffffffffff82169050919050565b600061096082610935565b9050919050565b61097081610955565b811461097b57600080fd5b50565b60008135905061098d81610967565b92915050565b6000602082840312156109a9576109a861072e565b5b60006109b78482850161097e565b91505092915050565b600081519050919050565b600082825260208201905092915050565b60005b838110156109fa5780820151818401526020810190506109df565b60008484015250505050565b6000610a11826109c0565b610a1b81856109cb565b9350610a2b8185602086016109dc565b610a348161076e565b840191505092915050565b610a4881610955565b82525050565b600060a082019050610a6360008301886106fa565b8181036020830152610a758187610a06565b90508181036040830152610a898186610a06565b9050610a986060830185610a3f565b610aa560808301846106fa565b9695505050505050565b7f5263546573745265776172643a2054657374696e6720706572696f642068617360008201527f20656e6465642e00000000000000000000000000000000000000000000000000602082015250565b6000610b0b6027836109cb565b9150610b1682610aaf565b604082019050919050565b60006020820190508181036000830152610b3a81610afe565b9050919050565b7f5263546573745265776172643a205265706f727420616c72656164792073756260008201527f6d69747465642e00000000000000000000000000000000000000000000000000602082015250565b6000610b9d6027836109cb565b9150610ba882610b41565b604082019050919050565b60006020820190508181036000830152610bcc81610b90565b9050919050565b7f5263546573745265776172643a205472616e73616374696f6e20636f756e742060008201527f6d75737420626520706f7369746976652e000000000000000000000000000000602082015250565b6000610c2f6031836109cb565b9150610c3a82610bd3565b604082019050919050565b60006020820190508181036000830152610c5e81610c22565b9050919050565b7f5263546573745265776172643a205472616e73616374696f6e20636f756e742060008201527f65786365656473206d6178696d756d206c696d69742e00000000000000000000602082015250565b6000610cc16036836109cb565b9150610ccc82610c65565b604082019050919050565b60006020820190508181036000830152610cf081610cb4565b9050919050565b7f4e487b7100000000000000000000000000000000000000000000000000000000600052602260045260246000fd5b60006002820490506001821680610d3e57607f821691505b602082108103610d5157610d50610cf7565b5b50919050565b60008190508160005260206000209050919050565b60006020601f8301049050919050565b600082821b905092915050565b600060088302610db97fffffffffffffffffffffffffffffffffffffffffffffffffffffffffffffffff82610d7c565b610dc38683610d7c565b95508019841693508086168417925050509392505050565b6000819050919050565b6000610e00610dfb610df6846106f0565b610ddb565b6106f0565b9050919050565b6000819050919050565b610e1a83610de5565b610e2e610e2682610e07565b848454610d89565b825550505050565b600090565b610e43610e36565b610e4e818484610e11565b505050565b5b81811015610e7257610e67600082610e3b565b600181019050610e54565b5050565b601f821115610eb757610e8881610d57565b610e9184610d6c565b81016020851015610ea0578190505b610eb4610eac85610d6c565b830182610e53565b50505b505050565b600082821c905092915050565b6000610eda60001984600802610ebc565b1980831691505092915050565b6000610ef38383610ec9565b9150826002028217905092915050565b610f0c826109c0565b67ffffffffffffffff811115610f2557610f2461077f565b5b610f2f8254610d26565b610f3a828285610e76565b600060209050601f831160018114610f6d5760008415610f5b578287015190505b610f658582610ee7565b865550610fcd565b601f198416610f7b86610d57565b60005b82811015610fa357848901518255600182019150602085019450602081019050610f7e565b86831015610fc05784890151610fbc601f891682610ec9565b8355505b6001600288020188555050505b505050505050565b7f4e487b7100000000000000000000000000000000000000000000000000000000600052601160045260246000fd5b600061100f826106f0565b915061101a836106f0565b9250828202611028816106f0565b9150828204841483151761103f5761103e610fd5565b5b5092915050565b6000611051826106f0565b915061105c836106f0565b925082820390508181111561107457611073610fd5565b5b9291505056fea2646970667358221220faf038e86cc1dd69379cd4e3e85f46cc759f3009a287faddcda864ccbd00f67a64736f6c634300081b0033",
  "linkReferences": {},
  "deployedLinkReferences": {}
}