{
  "_format": "hh-sol-artifact-1",
  "contractName": "FreeEducationCenter",
  "sourceName": "contracts/FreeEducationCenter.sol",
  "abi": [
    {
      "anonymous": false,
      "inputs": [
        {
          "indexed": true,
          "internalType": "uint256",
          "name": "id",
          "type": "uint256"
        },
        {
          "indexed": false,
          "internalType": "string",
          "name": "title",
          "type": "string"
        },
        {
          "indexed": true,
          "internalType": "address",
          "name": "publisher",
          "type": "address"
        }
      ],
      "name": "ContentPublished",
      "type": "event"
    },
    {
      "anonymous": false,
      "inputs": [
        {
          "indexed": true,
          "internalType": "uint256",
          "name": "contentId",
          "type": "uint256"
        },
        {
          "indexed": true,
          "internalType": "address",
          "name": "voter",
          "type": "address"
        },
        {
          "indexed": false,
          "internalType": "enum FreeEducationCenter.VoteType",
          "name": "voteType",
          "type": "uint8"
        }
      ],
      "name": "Voted",
      "type": "event"
    },
    {
      "inputs": [
        {
          "internalType": "string",
          "name": "_title",
          "type": "string"
        },
        {
          "internalType": "string",
          "name": "_description",
          "type": "string"
        },
        {
          "internalType": "string",
          "name": "_url",
          "type": "string"
        },
        {
          "internalType": "string",
          "name": "_photo",
          "type": "string"
        }
      ],
      "name": "addContent",
      "outputs": [],
      "stateMutability": "nonpayable",
      "type": "function"
    },
    {
      "inputs": [
        {
          "internalType": "uint256",
          "name": "",
          "type": "uint256"
        }
      ],
      "name": "contents",
      "outputs": [
        {
          "internalType": "uint256",
          "name": "id",
          "type": "uint256"
        },
        {
          "internalType": "string",
          "name": "title",
          "type": "string"
        },
        {
          "internalType": "string",
          "name": "description",
          "type": "string"
        },
        {
          "internalType": "string",
          "name": "url",
          "type": "string"
        },
        {
          "internalType": "string",
          "name": "photo",
          "type": "string"
        },
        {
          "internalType": "uint256",
          "name": "upvotes",
          "type": "uint256"
        },
        {
          "internalType": "uint256",
          "name": "downvotes",
          "type": "uint256"
        }
      ],
      "stateMutability": "view",
      "type": "function"
    },
    {
      "inputs": [],
      "name": "contentsCount",
      "outputs": [
        {
          "internalType": "uint256",
          "name": "",
          "type": "uint256"
        }
      ],
      "stateMutability": "view",
      "type": "function"
    },
    {
      "inputs": [
        {
          "internalType": "uint256",
          "name": "_id",
          "type": "uint256"
        }
      ],
      "name": "getContent",
      "outputs": [
        {
          "components": [
            {
              "internalType": "uint256",
              "name": "id",
              "type": "uint256"
            },
            {
              "internalType": "string",
              "name": "title",
              "type": "string"
            },
            {
              "internalType": "string",
              "name": "description",
              "type": "string"
            },
            {
              "internalType": "string",
              "name": "url",
              "type": "string"
            },
            {
              "internalType": "string",
              "name": "photo",
              "type": "string"
            },
            {
              "internalType": "uint256",
              "name": "upvotes",
              "type": "uint256"
            },
            {
              "internalType": "uint256",
              "name": "downvotes",
              "type": "uint256"
            }
          ],
          "internalType": "struct FreeEducationCenter.Content",
          "name": "",
          "type": "tuple"
        }
      ],
      "stateMutability": "view",
      "type": "function"
    },
    {
      "inputs": [
        {
          "internalType": "uint256",
          "name": "_id",
          "type": "uint256"
        }
      ],
      "name": "hasMoreUpvotes",
      "outputs": [
        {
          "internalType": "bool",
          "name": "",
          "type": "bool"
        }
      ],
      "stateMutability": "view",
      "type": "function"
    },
    {
      "inputs": [
        {
          "internalType": "uint256",
          "name": "",
          "type": "uint256"
        },
        {
          "internalType": "address",
          "name": "",
          "type": "address"
        }
      ],
      "name": "userVotes",
      "outputs": [
        {
          "internalType": "enum FreeEducationCenter.VoteType",
          "name": "",
          "type": "uint8"
        }
      ],
      "stateMutability": "view",
      "type": "function"
    },
    {
      "inputs": [
        {
          "internalType": "uint256",
          "name": "_id",
          "type": "uint256"
        },
        {
          "internalType": "bool",
          "name": "_isUpvote",
          "type": "bool"
        }
      ],
      "name": "vote",
      "outputs": [],
      "stateMutability": "nonpayable",
      "type": "function"
    }
  ],
  "bytecode": "0x6080604052348015600f57600080fd5b50611bfc8061001f6000396000f3fe608060405234801561001057600080fd5b506004361061007d5760003560e01c80634fb9a50a1161005b5780634fb9a50a146100ec578063b5ecf9121461011c578063c9d27afe14610152578063fe5b3e3b1461016e5761007d565b80630b7ad54c146100825780632ed2ab67146100b25780633d01b846146100d0575b600080fd5b61009c60048036038101906100979190610e64565b61019e565b6040516100a99190610fe1565b60405180910390f35b6100ba610482565b6040516100c79190611012565b60405180910390f35b6100ea60048036038101906100e59190611162565b610488565b005b61010660048036038101906101019190610e64565b6106f4565b6040516101139190611254565b60405180910390f35b61013660048036038101906101319190610e64565b61077c565b60405161014997969594939291906112b9565b60405180910390f35b61016c60048036038101906101679190611370565b6109de565b005b6101886004803603810190610183919061140e565b610dae565b60405161019591906114c5565b60405180910390f35b6101a6610ddd565b6000821180156101b857506000548211155b6101f7576040517f08c379a00000000000000000000000000000000000000000000000000000000081526004016101ee9061152c565b60405180910390fd5b600160008381526020019081526020016000206040518060e00160405290816000820154815260200160018201805461022f9061157b565b80601f016020809104026020016040519081016040528092919081815260200182805461025b9061157b565b80156102a85780601f1061027d576101008083540402835291602001916102a8565b820191906000526020600020905b81548152906001019060200180831161028b57829003601f168201915b505050505081526020016002820180546102c19061157b565b80601f01602080910402602001604051908101604052809291908181526020018280546102ed9061157b565b801561033a5780601f1061030f5761010080835404028352916020019161033a565b820191906000526020600020905b81548152906001019060200180831161031d57829003601f168201915b505050505081526020016003820180546103539061157b565b80601f016020809104026020016040519081016040528092919081815260200182805461037f9061157b565b80156103cc5780601f106103a1576101008083540402835291602001916103cc565b820191906000526020600020905b8154815290600101906020018083116103af57829003601f168201915b505050505081526020016004820180546103e59061157b565b80601f01602080910402602001604051908101604052809291908181526020018280546104119061157b565b801561045e5780601f106104335761010080835404028352916020019161045e565b820191906000526020600020905b81548152906001019060200180831161044157829003601f168201915b50505050508152602001600582015481526020016006820154815250509050919050565b60005481565b6000845111801561049a575060328451105b6104d9576040517f08c379a00000000000000000000000000000000000000000000000000000000081526004016104d09061161e565b60405180910390fd5b600083511180156104ec57506101f48351105b61052b576040517f08c379a0000000000000000000000000000000000000000000000000000000008152600401610522906116b0565b60405180910390fd5b6000825111801561053d575060c88251105b61057c576040517f08c379a000000000000000000000000000000000000000000000000000000000815260040161057390611742565b60405180910390fd5b60c88151106105c0576040517f08c379a00000000000000000000000000000000000000000000000000000000081526004016105b7906117d4565b60405180910390fd5b6000808154809291906105d290611823565b91905055506000805490506040518060e00160405280828152602001868152602001858152602001848152602001838152602001600081526020016000815250600160008381526020019081526020016000206000820151816000015560208201518160010190816106449190611a17565b50604082015181600201908161065a9190611a17565b5060608201518160030190816106709190611a17565b5060808201518160040190816106869190611a17565b5060a0820151816005015560c082015181600601559050503373ffffffffffffffffffffffffffffffffffffffff16817f49a3de1efbb2a5988ef81f76b8023629898fcb9392cbca9eda46044c3e1db4c5876040516106e59190611ae9565b60405180910390a35050505050565b6000808211801561070757506000548211155b610746576040517f08c379a000000000000000000000000000000000000000000000000000000000815260040161073d9061152c565b60405180910390fd5b60016000838152602001908152602001600020600601546001600084815260200190815260200160002060050154119050919050565b60016020528060005260406000206000915090508060000154908060010180546107a59061157b565b80601f01602080910402602001604051908101604052809291908181526020018280546107d19061157b565b801561081e5780601f106107f35761010080835404028352916020019161081e565b820191906000526020600020905b81548152906001019060200180831161080157829003601f168201915b5050505050908060020180546108339061157b565b80601f016020809104026020016040519081016040528092919081815260200182805461085f9061157b565b80156108ac5780601f10610881576101008083540402835291602001916108ac565b820191906000526020600020905b81548152906001019060200180831161088f57829003601f168201915b5050505050908060030180546108c19061157b565b80601f01602080910402602001604051908101604052809291908181526020018280546108ed9061157b565b801561093a5780601f1061090f5761010080835404028352916020019161093a565b820191906000526020600020905b81548152906001019060200180831161091d57829003601f168201915b50505050509080600401805461094f9061157b565b80601f016020809104026020016040519081016040528092919081815260200182805461097b9061157b565b80156109c85780601f1061099d576101008083540402835291602001916109c8565b820191906000526020600020905b8154815290600101906020018083116109ab57829003601f168201915b5050505050908060050154908060060154905087565b6000821180156109f057506000548211155b610a2f576040517f08c379a0000000000000000000000000000000000000000000000000000000008152600401610a269061152c565b60405180910390fd5b600060016000848152602001908152602001600020905060006002600085815260200190815260200160002060003373ffffffffffffffffffffffffffffffffffffffff1673ffffffffffffffffffffffffffffffffffffffff16815260200190815260200160002060009054906101000a900460ff169050600083610ab6576002610ab9565b60015b9050806002811115610ace57610acd61144e565b5b826002811115610ae157610ae061144e565b5b03610b21576040517f08c379a0000000000000000000000000000000000000000000000000000000008152600401610b1890611b7d565b60405180910390fd5b600280811115610b3457610b3361144e565b5b826002811115610b4757610b4661144e565b5b148015610b78575060016002811115610b6357610b6261144e565b5b816002811115610b7657610b7561144e565b5b145b15610bb657826006016000815480929190610b9290611b9d565b9190505550826005016000815480929190610bac90611823565b9190505550610ce0565b60016002811115610bca57610bc961144e565b5b826002811115610bdd57610bdc61144e565b5b148015610c0d5750600280811115610bf857610bf761144e565b5b816002811115610c0b57610c0a61144e565b5b145b15610c4b57826005016000815480929190610c2790611b9d565b9190505550826006016000815480929190610c4190611823565b9190505550610cdf565b60006002811115610c5f57610c5e61144e565b5b826002811115610c7257610c7161144e565b5b03610cde5760016002811115610c8b57610c8a61144e565b5b816002811115610c9e57610c9d61144e565b5b03610cc257826005016000815480929190610cb890611823565b9190505550610cdd565b826006016000815480929190610cd790611823565b91905055505b5b5b5b806002600087815260200190815260200160002060003373ffffffffffffffffffffffffffffffffffffffff1673ffffffffffffffffffffffffffffffffffffffff16815260200190815260200160002060006101000a81548160ff02191690836002811115610d5357610d5261144e565b5b02179055503373ffffffffffffffffffffffffffffffffffffffff16857f094f80829c509370abb2d421a078ba5926755d3de25d021dacf7bbd19853f7a283604051610d9f91906114c5565b60405180910390a35050505050565b60026020528160005260406000206020528060005260406000206000915091509054906101000a900460ff1681565b6040518060e00160405280600081526020016060815260200160608152602001606081526020016060815260200160008152602001600081525090565b6000604051905090565b600080fd5b600080fd5b6000819050919050565b610e4181610e2e565b8114610e4c57600080fd5b50565b600081359050610e5e81610e38565b92915050565b600060208284031215610e7a57610e79610e24565b5b6000610e8884828501610e4f565b91505092915050565b610e9a81610e2e565b82525050565b600081519050919050565b600082825260208201905092915050565b60005b83811015610eda578082015181840152602081019050610ebf565b60008484015250505050565b6000601f19601f8301169050919050565b6000610f0282610ea0565b610f0c8185610eab565b9350610f1c818560208601610ebc565b610f2581610ee6565b840191505092915050565b600060e083016000830151610f486000860182610e91565b5060208301518482036020860152610f608282610ef7565b91505060408301518482036040860152610f7a8282610ef7565b91505060608301518482036060860152610f948282610ef7565b91505060808301518482036080860152610fae8282610ef7565b91505060a0830151610fc360a0860182610e91565b5060c0830151610fd660c0860182610e91565b508091505092915050565b60006020820190508181036000830152610ffb8184610f30565b905092915050565b61100c81610e2e565b82525050565b60006020820190506110276000830184611003565b92915050565b600080fd5b600080fd5b7f4e487b7100000000000000000000000000000000000000000000000000000000600052604160045260246000fd5b61106f82610ee6565b810181811067ffffffffffffffff8211171561108e5761108d611037565b5b80604052505050565b60006110a1610e1a565b90506110ad8282611066565b919050565b600067ffffffffffffffff8211156110cd576110cc611037565b5b6110d682610ee6565b9050602081019050919050565b82818337600083830152505050565b6000611105611100846110b2565b611097565b90508281526020810184848401111561112157611120611032565b5b61112c8482856110e3565b509392505050565b600082601f8301126111495761114861102d565b5b81356111598482602086016110f2565b91505092915050565b6000806000806080858703121561117c5761117b610e24565b5b600085013567ffffffffffffffff81111561119a57611199610e29565b5b6111a687828801611134565b945050602085013567ffffffffffffffff8111156111c7576111c6610e29565b5b6111d387828801611134565b935050604085013567ffffffffffffffff8111156111f4576111f3610e29565b5b61120087828801611134565b925050606085013567ffffffffffffffff81111561122157611220610e29565b5b61122d87828801611134565b91505092959194509250565b60008115159050919050565b61124e81611239565b82525050565b60006020820190506112696000830184611245565b92915050565b600082825260208201905092915050565b600061128b82610ea0565b611295818561126f565b93506112a5818560208601610ebc565b6112ae81610ee6565b840191505092915050565b600060e0820190506112ce600083018a611003565b81810360208301526112e08189611280565b905081810360408301526112f48188611280565b905081810360608301526113088187611280565b9050818103608083015261131c8186611280565b905061132b60a0830185611003565b61133860c0830184611003565b98975050505050505050565b61134d81611239565b811461135857600080fd5b50565b60008135905061136a81611344565b92915050565b6000806040838503121561138757611386610e24565b5b600061139585828601610e4f565b92505060206113a68582860161135b565b9150509250929050565b600073ffffffffffffffffffffffffffffffffffffffff82169050919050565b60006113db826113b0565b9050919050565b6113eb816113d0565b81146113f657600080fd5b50565b600081359050611408816113e2565b92915050565b6000806040838503121561142557611424610e24565b5b600061143385828601610e4f565b9250506020611444858286016113f9565b9150509250929050565b7f4e487b7100000000000000000000000000000000000000000000000000000000600052602160045260246000fd5b6003811061148e5761148d61144e565b5b50565b600081905061149f8261147d565b919050565b60006114af82611491565b9050919050565b6114bf816114a4565b82525050565b60006020820190506114da60008301846114b6565b92915050565b7f4645433a20436f6e74656e7420494420646f6573206e6f742065786973740000600082015250565b6000611516601e8361126f565b9150611521826114e0565b602082019050919050565b6000602082019050818103600083015261154581611509565b9050919050565b7f4e487b7100000000000000000000000000000000000000000000000000000000600052602260045260246000fd5b6000600282049050600182168061159357607f821691505b6020821081036115a6576115a561154c565b5b50919050565b7f4645433a205469746c65206d757374206265206265747765656e203120616e6460008201527f2034392063686172616374657273000000000000000000000000000000000000602082015250565b6000611608602e8361126f565b9150611613826115ac565b604082019050919050565b60006020820190508181036000830152611637816115fb565b9050919050565b7f4645433a204465736372697074696f6e206d757374206265206265747765656e60008201527f203120616e642034393920636861726163746572730000000000000000000000602082015250565b600061169a60358361126f565b91506116a58261163e565b604082019050919050565b600060208201905081810360008301526116c98161168d565b9050919050565b7f4645433a2055524c206d757374206265206265747765656e203120616e64203160008201527f3939206368617261637465727300000000000000000000000000000000000000602082015250565b600061172c602d8361126f565b9150611737826116d0565b604082019050919050565b6000602082019050818103600083015261175b8161171f565b9050919050565b7f4645433a2050686f746f2055524c206d757374206265206c657373207468616e60008201527f2031393920636861726163746572730000000000000000000000000000000000602082015250565b60006117be602f8361126f565b91506117c982611762565b604082019050919050565b600060208201905081810360008301526117ed816117b1565b9050919050565b7f4e487b7100000000000000000000000000000000000000000000000000000000600052601160045260246000fd5b600061182e82610e2e565b91507fffffffffffffffffffffffffffffffffffffffffffffffffffffffffffffffff82036118605761185f6117f4565b5b600182019050919050565b60008190508160005260206000209050919050565b60006020601f8301049050919050565b600082821b905092915050565b6000600883026118cd7fffffffffffffffffffffffffffffffffffffffffffffffffffffffffffffffff82611890565b6118d78683611890565b95508019841693508086168417925050509392505050565b6000819050919050565b600061191461190f61190a84610e2e565b6118ef565b610e2e565b9050919050565b6000819050919050565b61192e836118f9565b61194261193a8261191b565b84845461189d565b825550505050565b600090565b61195761194a565b611962818484611925565b505050565b5b818110156119865761197b60008261194f565b600181019050611968565b5050565b601f8211156119cb5761199c8161186b565b6119a584611880565b810160208510156119b4578190505b6119c86119c085611880565b830182611967565b50505b505050565b600082821c905092915050565b60006119ee600019846008026119d0565b1980831691505092915050565b6000611a0783836119dd565b9150826002028217905092915050565b611a2082610ea0565b67ffffffffffffffff811115611a3957611a38611037565b5b611a43825461157b565b611a4e82828561198a565b600060209050601f831160018114611a815760008415611a6f578287015190505b611a7985826119fb565b865550611ae1565b601f198416611a8f8661186b565b60005b82811015611ab757848901518255600182019150602085019450602081019050611a92565b86831015611ad45784890151611ad0601f8916826119dd565b8355505b6001600288020188555050505b505050505050565b60006020820190508181036000830152611b038184611280565b905092915050565b7f4645433a20596f75206861766520616c7265616479206361737420746869732060008201527f766f746500000000000000000000000000000000000000000000000000000000602082015250565b6000611b6760248361126f565b9150611b7282611b0b565b604082019050919050565b60006020820190508181036000830152611b9681611b5a565b9050919050565b6000611ba882610e2e565b915060008203611bbb57611bba6117f4565b5b60018203905091905056fea2646970667358221220b6543997874f38b3034f4552a00fcf0ce37ca4d26d55abc1a8024eb73f9ef7b664736f6c634300081b0033",
  "linkReferences": {},
  "deployedLinkReferences": {}
}