{
  "_format": "hh-sol-artifact-1",
  "contractName": "FreeEducationCenter",
  "sourceName": "contracts/FreeEducationCenter.sol",
  "abi": [
    {
      "anonymous": false,
      "inputs": [
        {
          "indexed": true,
          "internalType": "uint256",
          "name": "id",
          "type": "uint256"
        },
        {
          "indexed": false,
          "internalType": "string",
          "name": "title",
          "type": "string"
        },
        {
          "indexed": true,
          "internalType": "address",
          "name": "publisher",
          "type": "address"
        }
      ],
      "name": "ContentPublished",
      "type": "event"
    },
    {
      "inputs": [
        {
          "internalType": "string",
          "name": "_title",
          "type": "string"
        },
        {
          "internalType": "string",
          "name": "_description",
          "type": "string"
        },
        {
          "internalType": "string",
          "name": "_url",
          "type": "string"
        },
        {
          "internalType": "string",
          "name": "_photo",
          "type": "string"
        }
      ],
      "name": "addContent",
      "outputs": [],
      "stateMutability": "nonpayable",
      "type": "function"
    },
    {
      "inputs": [
        {
          "internalType": "uint256",
          "name": "",
          "type": "uint256"
        }
      ],
      "name": "contents",
      "outputs": [
        {
          "internalType": "uint256",
          "name": "id",
          "type": "uint256"
        },
        {
          "internalType": "string",
          "name": "title",
          "type": "string"
        },
        {
          "internalType": "string",
          "name": "description",
          "type": "string"
        },
        {
          "internalType": "string",
          "name": "url",
          "type": "string"
        },
        {
          "internalType": "string",
          "name": "photo",
          "type": "string"
        }
      ],
      "stateMutability": "view",
      "type": "function"
    },
    {
      "inputs": [],
      "name": "contentsCount",
      "outputs": [
        {
          "internalType": "uint256",
          "name": "",
          "type": "uint256"
        }
      ],
      "stateMutability": "view",
      "type": "function"
    },
    {
      "inputs": [
        {
          "internalType": "uint256",
          "name": "_id",
          "type": "uint256"
        }
      ],
      "name": "getContent",
      "outputs": [
        {
          "components": [
            {
              "internalType": "uint256",
              "name": "id",
              "type": "uint256"
            },
            {
              "internalType": "string",
              "name": "title",
              "type": "string"
            },
            {
              "internalType": "string",
              "name": "description",
              "type": "string"
            },
            {
              "internalType": "string",
              "name": "url",
              "type": "string"
            },
            {
              "internalType": "string",
              "name": "photo",
              "type": "string"
            }
          ],
          "internalType": "struct FreeEducationCenter.Content",
          "name": "",
          "type": "tuple"
        }
      ],
      "stateMutability": "view",
      "type": "function"
    }
  ],
  "bytecode": "0x6080604052348015600f57600080fd5b506113a78061001f6000396000f3fe608060405234801561001057600080fd5b506004361061004c5760003560e01c80630b7ad54c146100515780632ed2ab67146100815780633d01b8461461009f578063b5ecf912146100bb575b600080fd5b61006b600480360381019061006691906108de565b6100ef565b6040516100789190610a35565b60405180910390f35b6100896103bf565b6040516100969190610a66565b60405180910390f35b6100b960048036038101906100b49190610bb6565b6103c5565b005b6100d560048036038101906100d091906108de565b61060f565b6040516100e6959493929190610cd7565b60405180910390f35b6100f7610865565b60008211801561010957506000548211155b610148576040517f08c379a000000000000000000000000000000000000000000000000000000000815260040161013f90610d92565b60405180910390fd5b600160008381526020019081526020016000206040518060a00160405290816000820154815260200160018201805461018090610de1565b80601f01602080910402602001604051908101604052809291908181526020018280546101ac90610de1565b80156101f95780601f106101ce576101008083540402835291602001916101f9565b820191906000526020600020905b8154815290600101906020018083116101dc57829003601f168201915b5050505050815260200160028201805461021290610de1565b80601f016020809104026020016040519081016040528092919081815260200182805461023e90610de1565b801561028b5780601f106102605761010080835404028352916020019161028b565b820191906000526020600020905b81548152906001019060200180831161026e57829003601f168201915b505050505081526020016003820180546102a490610de1565b80601f01602080910402602001604051908101604052809291908181526020018280546102d090610de1565b801561031d5780601f106102f25761010080835404028352916020019161031d565b820191906000526020600020905b81548152906001019060200180831161030057829003601f168201915b5050505050815260200160048201805461033690610de1565b80601f016020809104026020016040519081016040528092919081815260200182805461036290610de1565b80156103af5780601f10610384576101008083540402835291602001916103af565b820191906000526020600020905b81548152906001019060200180831161039257829003601f168201915b5050505050815250509050919050565b60005481565b600084511180156103d7575060328451105b610416576040517f08c379a000000000000000000000000000000000000000000000000000000000815260040161040d90610e84565b60405180910390fd5b6000835111801561042957506101f48351105b610468576040517f08c379a000000000000000000000000000000000000000000000000000000000815260040161045f90610f16565b60405180910390fd5b6000825111801561047a575060c88251105b6104b9576040517f08c379a00000000000000000000000000000000000000000000000000000000081526004016104b090610fa8565b60405180910390fd5b60c88151106104fd576040517f08c379a00000000000000000000000000000000000000000000000000000000081526004016104f49061103a565b60405180910390fd5b60008081548092919061050f90611089565b91905055506000805490506040518060a001604052808281526020018681526020018581526020018481526020018381525060016000838152602001908152602001600020600082015181600001556020820151816001019081610573919061127d565b506040820151816002019081610589919061127d565b50606082015181600301908161059f919061127d565b5060808201518160040190816105b5919061127d565b509050503373ffffffffffffffffffffffffffffffffffffffff16817f49a3de1efbb2a5988ef81f76b8023629898fcb9392cbca9eda46044c3e1db4c587604051610600919061134f565b60405180910390a35050505050565b600160205280600052604060002060009150905080600001549080600101805461063890610de1565b80601f016020809104026020016040519081016040528092919081815260200182805461066490610de1565b80156106b15780601f10610686576101008083540402835291602001916106b1565b820191906000526020600020905b81548152906001019060200180831161069457829003601f168201915b5050505050908060020180546106c690610de1565b80601f01602080910402602001604051908101604052809291908181526020018280546106f290610de1565b801561073f5780601f106107145761010080835404028352916020019161073f565b820191906000526020600020905b81548152906001019060200180831161072257829003601f168201915b50505050509080600301805461075490610de1565b80601f016020809104026020016040519081016040528092919081815260200182805461078090610de1565b80156107cd5780601f106107a2576101008083540402835291602001916107cd565b820191906000526020600020905b8154815290600101906020018083116107b057829003601f168201915b5050505050908060040180546107e290610de1565b80601f016020809104026020016040519081016040528092919081815260200182805461080e90610de1565b801561085b5780601f106108305761010080835404028352916020019161085b565b820191906000526020600020905b81548152906001019060200180831161083e57829003601f168201915b5050505050905085565b6040518060a0016040528060008152602001606081526020016060815260200160608152602001606081525090565b6000604051905090565b600080fd5b600080fd5b6000819050919050565b6108bb816108a8565b81146108c657600080fd5b50565b6000813590506108d8816108b2565b92915050565b6000602082840312156108f4576108f361089e565b5b6000610902848285016108c9565b91505092915050565b610914816108a8565b82525050565b600081519050919050565b600082825260208201905092915050565b60005b83811015610954578082015181840152602081019050610939565b60008484015250505050565b6000601f19601f8301169050919050565b600061097c8261091a565b6109868185610925565b9350610996818560208601610936565b61099f81610960565b840191505092915050565b600060a0830160008301516109c2600086018261090b565b50602083015184820360208601526109da8282610971565b915050604083015184820360408601526109f48282610971565b91505060608301518482036060860152610a0e8282610971565b91505060808301518482036080860152610a288282610971565b9150508091505092915050565b60006020820190508181036000830152610a4f81846109aa565b905092915050565b610a60816108a8565b82525050565b6000602082019050610a7b6000830184610a57565b92915050565b600080fd5b600080fd5b7f4e487b7100000000000000000000000000000000000000000000000000000000600052604160045260246000fd5b610ac382610960565b810181811067ffffffffffffffff82111715610ae257610ae1610a8b565b5b80604052505050565b6000610af5610894565b9050610b018282610aba565b919050565b600067ffffffffffffffff821115610b2157610b20610a8b565b5b610b2a82610960565b9050602081019050919050565b82818337600083830152505050565b6000610b59610b5484610b06565b610aeb565b905082815260208101848484011115610b7557610b74610a86565b5b610b80848285610b37565b509392505050565b600082601f830112610b9d57610b9c610a81565b5b8135610bad848260208601610b46565b91505092915050565b60008060008060808587031215610bd057610bcf61089e565b5b600085013567ffffffffffffffff811115610bee57610bed6108a3565b5b610bfa87828801610b88565b945050602085013567ffffffffffffffff811115610c1b57610c1a6108a3565b5b610c2787828801610b88565b935050604085013567ffffffffffffffff811115610c4857610c476108a3565b5b610c5487828801610b88565b925050606085013567ffffffffffffffff811115610c7557610c746108a3565b5b610c8187828801610b88565b91505092959194509250565b600082825260208201905092915050565b6000610ca98261091a565b610cb38185610c8d565b9350610cc3818560208601610936565b610ccc81610960565b840191505092915050565b600060a082019050610cec6000830188610a57565b8181036020830152610cfe8187610c9e565b90508181036040830152610d128186610c9e565b90508181036060830152610d268185610c9e565b90508181036080830152610d3a8184610c9e565b90509695505050505050565b7f4645433a20436f6e74656e7420494420646f6573206e6f742065786973740000600082015250565b6000610d7c601e83610c8d565b9150610d8782610d46565b602082019050919050565b60006020820190508181036000830152610dab81610d6f565b9050919050565b7f4e487b7100000000000000000000000000000000000000000000000000000000600052602260045260246000fd5b60006002820490506001821680610df957607f821691505b602082108103610e0c57610e0b610db2565b5b50919050565b7f4645433a205469746c65206d757374206265206265747765656e203120616e6460008201527f2034392063686172616374657273000000000000000000000000000000000000602082015250565b6000610e6e602e83610c8d565b9150610e7982610e12565b604082019050919050565b60006020820190508181036000830152610e9d81610e61565b9050919050565b7f4645433a204465736372697074696f6e206d757374206265206265747765656e60008201527f203120616e642034393920636861726163746572730000000000000000000000602082015250565b6000610f00603583610c8d565b9150610f0b82610ea4565b604082019050919050565b60006020820190508181036000830152610f2f81610ef3565b9050919050565b7f4645433a2055524c206d757374206265206265747765656e203120616e64203160008201527f3939206368617261637465727300000000000000000000000000000000000000602082015250565b6000610f92602d83610c8d565b9150610f9d82610f36565b604082019050919050565b60006020820190508181036000830152610fc181610f85565b9050919050565b7f4645433a2050686f746f2055524c206d757374206265206c657373207468616e60008201527f2031393920636861726163746572730000000000000000000000000000000000602082015250565b6000611024602f83610c8d565b915061102f82610fc8565b604082019050919050565b6000602082019050818103600083015261105381611017565b9050919050565b7f4e487b7100000000000000000000000000000000000000000000000000000000600052601160045260246000fd5b6000611094826108a8565b91507fffffffffffffffffffffffffffffffffffffffffffffffffffffffffffffffff82036110c6576110c561105a565b5b600182019050919050565b60008190508160005260206000209050919050565b60006020601f8301049050919050565b600082821b905092915050565b6000600883026111337fffffffffffffffffffffffffffffffffffffffffffffffffffffffffffffffff826110f6565b61113d86836110f6565b95508019841693508086168417925050509392505050565b6000819050919050565b600061117a611175611170846108a8565b611155565b6108a8565b9050919050565b6000819050919050565b6111948361115f565b6111a86111a082611181565b848454611103565b825550505050565b600090565b6111bd6111b0565b6111c881848461118b565b505050565b5b818110156111ec576111e16000826111b5565b6001810190506111ce565b5050565b601f82111561123157611202816110d1565b61120b846110e6565b8101602085101561121a578190505b61122e611226856110e6565b8301826111cd565b50505b505050565b600082821c905092915050565b600061125460001984600802611236565b1980831691505092915050565b600061126d8383611243565b9150826002028217905092915050565b6112868261091a565b67ffffffffffffffff81111561129f5761129e610a8b565b5b6112a98254610de1565b6112b48282856111f0565b600060209050601f8311600181146112e757600084156112d5578287015190505b6112df8582611261565b865550611347565b601f1984166112f5866110d1565b60005b8281101561131d578489015182556001820191506020850194506020810190506112f8565b8683101561133a5784890151611336601f891682611243565b8355505b6001600288020188555050505b505050505050565b600060208201905081810360008301526113698184610c9e565b90509291505056fea2646970667358221220a085655e42c75f96b3ac347d02cc1add4229e46ecb13dc2c1a4a89042cbb68ca64736f6c634300081b0033",
  "linkReferences": {},
  "deployedLinkReferences": {}
}