{
  "_format": "hh-sol-artifact-1",
  "contractName": "FreeEducationCenter",
  "sourceName": "contracts/FreeEducationCenter.sol",
  "abi": [
    {
      "anonymous": false,
      "inputs": [
        {
          "indexed": true,
          "internalType": "uint256",
          "name": "id",
          "type": "uint256"
        },
        {
          "indexed": false,
          "internalType": "string",
          "name": "title",
          "type": "string"
        },
        {
          "indexed": true,
          "internalType": "address",
          "name": "publisher",
          "type": "address"
        }
      ],
      "name": "ContentPublished",
      "type": "event"
    },
    {
      "anonymous": false,
      "inputs": [
        {
          "indexed": true,
          "internalType": "uint256",
          "name": "contentId",
          "type": "uint256"
        },
        {
          "indexed": true,
          "internalType": "address",
          "name": "voter",
          "type": "address"
        },
        {
          "indexed": false,
          "internalType": "enum FreeEducationCenter.VoteType",
          "name": "voteType",
          "type": "uint8"
        }
      ],
      "name": "Voted",
      "type": "event"
    },
    {
      "inputs": [
        {
          "internalType": "string",
          "name": "_title",
          "type": "string"
        },
        {
          "internalType": "string",
          "name": "_description",
          "type": "string"
        },
        {
          "internalType": "string",
          "name": "_url",
          "type": "string"
        },
        {
          "internalType": "string",
          "name": "_photo",
          "type": "string"
        }
      ],
      "name": "addContent",
      "outputs": [],
      "stateMutability": "nonpayable",
      "type": "function"
    },
    {
      "inputs": [
        {
          "internalType": "uint256",
          "name": "",
          "type": "uint256"
        }
      ],
      "name": "contents",
      "outputs": [
        {
          "internalType": "uint256",
          "name": "id",
          "type": "uint256"
        },
        {
          "internalType": "string",
          "name": "title",
          "type": "string"
        },
        {
          "internalType": "string",
          "name": "description",
          "type": "string"
        },
        {
          "internalType": "string",
          "name": "url",
          "type": "string"
        },
        {
          "internalType": "string",
          "name": "photo",
          "type": "string"
        },
        {
          "internalType": "uint256",
          "name": "upvotes",
          "type": "uint256"
        },
        {
          "internalType": "uint256",
          "name": "downvotes",
          "type": "uint256"
        }
      ],
      "stateMutability": "view",
      "type": "function"
    },
    {
      "inputs": [],
      "name": "contentsCount",
      "outputs": [
        {
          "internalType": "uint256",
          "name": "",
          "type": "uint256"
        }
      ],
      "stateMutability": "view",
      "type": "function"
    },
    {
      "inputs": [
        {
          "internalType": "uint256",
          "name": "_id",
          "type": "uint256"
        }
      ],
      "name": "getContent",
      "outputs": [
        {
          "components": [
            {
              "internalType": "uint256",
              "name": "id",
              "type": "uint256"
            },
            {
              "internalType": "string",
              "name": "title",
              "type": "string"
            },
            {
              "internalType": "string",
              "name": "description",
              "type": "string"
            },
            {
              "internalType": "string",
              "name": "url",
              "type": "string"
            },
            {
              "internalType": "string",
              "name": "photo",
              "type": "string"
            },
            {
              "internalType": "uint256",
              "name": "upvotes",
              "type": "uint256"
            },
            {
              "internalType": "uint256",
              "name": "downvotes",
              "type": "uint256"
            }
          ],
          "internalType": "struct FreeEducationCenter.Content",
          "name": "",
          "type": "tuple"
        }
      ],
      "stateMutability": "view",
      "type": "function"
    },
    {
      "inputs": [
        {
          "internalType": "uint256",
          "name": "_id",
          "type": "uint256"
        }
      ],
      "name": "hasMoreUpvotes",
      "outputs": [
        {
          "internalType": "bool",
          "name": "",
          "type": "bool"
        }
      ],
      "stateMutability": "view",
      "type": "function"
    },
    {
      "inputs": [
        {
          "internalType": "uint256",
          "name": "",
          "type": "uint256"
        },
        {
          "internalType": "address",
          "name": "",
          "type": "address"
        }
      ],
      "name": "userVotes",
      "outputs": [
        {
          "internalType": "enum FreeEducationCenter.VoteType",
          "name": "",
          "type": "uint8"
        }
      ],
      "stateMutability": "view",
      "type": "function"
    },
    {
      "inputs": [
        {
          "internalType": "uint256",
          "name": "_id",
          "type": "uint256"
        },
        {
          "internalType": "enum FreeEducationCenter.VoteType",
          "name": "_voteType",
          "type": "uint8"
        }
      ],
      "name": "vote",
      "outputs": [],
      "stateMutability": "nonpayable",
      "type": "function"
    }
  ],
  "bytecode": "0x6080604052348015600f57600080fd5b50611b4f8061001f6000396000f3fe608060405234801561001057600080fd5b506004361061007d5760003560e01c80634fb9a50a1161005b5780634fb9a50a146100ec578063943e82161461011c578063b5ecf91214610138578063fe5b3e3b1461016e5761007d565b80630b7ad54c146100825780632ed2ab67146100b25780633d01b846146100d0575b600080fd5b61009c60048036038101906100979190610de4565b61019e565b6040516100a99190610f61565b60405180910390f35b6100ba610482565b6040516100c79190610f92565b60405180910390f35b6100ea60048036038101906100e591906110e2565b610488565b005b61010660048036038101906101019190610de4565b6106f4565b60405161011391906111d4565b60405180910390f35b61013660048036038101906101319190611214565b61077c565b005b610152600480360381019061014d9190610de4565b610acc565b604051610165979695949392919061129e565b60405180910390f35b61018860048036038101906101839190611387565b610d2e565b604051610195919061143e565b60405180910390f35b6101a6610d5d565b6000821180156101b857506000548211155b6101f7576040517f08c379a00000000000000000000000000000000000000000000000000000000081526004016101ee906114a5565b60405180910390fd5b600160008381526020019081526020016000206040518060e00160405290816000820154815260200160018201805461022f906114f4565b80601f016020809104026020016040519081016040528092919081815260200182805461025b906114f4565b80156102a85780601f1061027d576101008083540402835291602001916102a8565b820191906000526020600020905b81548152906001019060200180831161028b57829003601f168201915b505050505081526020016002820180546102c1906114f4565b80601f01602080910402602001604051908101604052809291908181526020018280546102ed906114f4565b801561033a5780601f1061030f5761010080835404028352916020019161033a565b820191906000526020600020905b81548152906001019060200180831161031d57829003601f168201915b50505050508152602001600382018054610353906114f4565b80601f016020809104026020016040519081016040528092919081815260200182805461037f906114f4565b80156103cc5780601f106103a1576101008083540402835291602001916103cc565b820191906000526020600020905b8154815290600101906020018083116103af57829003601f168201915b505050505081526020016004820180546103e5906114f4565b80601f0160208091040260200160405190810160405280929190818152602001828054610411906114f4565b801561045e5780601f106104335761010080835404028352916020019161045e565b820191906000526020600020905b81548152906001019060200180831161044157829003601f168201915b50505050508152602001600582015481526020016006820154815250509050919050565b60005481565b6000845111801561049a575060328451105b6104d9576040517f08c379a00000000000000000000000000000000000000000000000000000000081526004016104d090611597565b60405180910390fd5b600083511180156104ec57506101f48351105b61052b576040517f08c379a000000000000000000000000000000000000000000000000000000000815260040161052290611629565b60405180910390fd5b6000825111801561053d575060c88251105b61057c576040517f08c379a0000000000000000000000000000000000000000000000000000000008152600401610573906116bb565b60405180910390fd5b60c88151106105c0576040517f08c379a00000000000000000000000000000000000000000000000000000000081526004016105b79061174d565b60405180910390fd5b6000808154809291906105d29061179c565b91905055506000805490506040518060e00160405280828152602001868152602001858152602001848152602001838152602001600081526020016000815250600160008381526020019081526020016000206000820151816000015560208201518160010190816106449190611990565b50604082015181600201908161065a9190611990565b5060608201518160030190816106709190611990565b5060808201518160040190816106869190611990565b5060a0820151816005015560c082015181600601559050503373ffffffffffffffffffffffffffffffffffffffff16817f49a3de1efbb2a5988ef81f76b8023629898fcb9392cbca9eda46044c3e1db4c5876040516106e59190611a62565b60405180910390a35050505050565b6000808211801561070757506000548211155b610746576040517f08c379a000000000000000000000000000000000000000000000000000000000815260040161073d906114a5565b60405180910390fd5b60016000838152602001908152602001600020600601546001600084815260200190815260200160002060050154119050919050565b60008211801561078e57506000548211155b6107cd576040517f08c379a00000000000000000000000000000000000000000000000000000000081526004016107c4906114a5565b60405180910390fd5b600160028111156107e1576107e06113c7565b5b8160028111156107f4576107f36113c7565b5b1480610823575060028081111561080e5761080d6113c7565b5b816002811115610821576108206113c7565b5b145b610862576040517f08c379a000000000000000000000000000000000000000000000000000000000815260040161085990611ad0565b60405180910390fd5b600060016000848152602001908152602001600020905060006002600085815260200190815260200160002060003373ffffffffffffffffffffffffffffffffffffffff1673ffffffffffffffffffffffffffffffffffffffff16815260200190815260200160002060009054906101000a900460ff1690508260028111156108ee576108ed6113c7565b5b816002811115610901576109006113c7565b5b14610ac6576001600281111561091a576109196113c7565b5b81600281111561092d5761092c6113c7565b5b036109515781600501600081548092919061094790611af0565b9190505550610998565b600280811115610964576109636113c7565b5b816002811115610977576109766113c7565b5b036109975781600601600081548092919061099190611af0565b91905055505b5b600160028111156109ac576109ab6113c7565b5b8360028111156109bf576109be6113c7565b5b036109e3578160050160008154809291906109d99061179c565b91905055506109fe565b8160060160008154809291906109f89061179c565b91905055505b826002600086815260200190815260200160002060003373ffffffffffffffffffffffffffffffffffffffff1673ffffffffffffffffffffffffffffffffffffffff16815260200190815260200160002060006101000a81548160ff02191690836002811115610a7157610a706113c7565b5b02179055503373ffffffffffffffffffffffffffffffffffffffff16847f094f80829c509370abb2d421a078ba5926755d3de25d021dacf7bbd19853f7a285604051610abd919061143e565b60405180910390a35b50505050565b6001602052806000526040600020600091509050806000015490806001018054610af5906114f4565b80601f0160208091040260200160405190810160405280929190818152602001828054610b21906114f4565b8015610b6e5780601f10610b4357610100808354040283529160200191610b6e565b820191906000526020600020905b815481529060010190602001808311610b5157829003601f168201915b505050505090806002018054610b83906114f4565b80601f0160208091040260200160405190810160405280929190818152602001828054610baf906114f4565b8015610bfc5780601f10610bd157610100808354040283529160200191610bfc565b820191906000526020600020905b815481529060010190602001808311610bdf57829003601f168201915b505050505090806003018054610c11906114f4565b80601f0160208091040260200160405190810160405280929190818152602001828054610c3d906114f4565b8015610c8a5780601f10610c5f57610100808354040283529160200191610c8a565b820191906000526020600020905b815481529060010190602001808311610c6d57829003601f168201915b505050505090806004018054610c9f906114f4565b80601f0160208091040260200160405190810160405280929190818152602001828054610ccb906114f4565b8015610d185780601f10610ced57610100808354040283529160200191610d18565b820191906000526020600020905b815481529060010190602001808311610cfb57829003601f168201915b5050505050908060050154908060060154905087565b60026020528160005260406000206020528060005260406000206000915091509054906101000a900460ff1681565b6040518060e00160405280600081526020016060815260200160608152602001606081526020016060815260200160008152602001600081525090565b6000604051905090565b600080fd5b600080fd5b6000819050919050565b610dc181610dae565b8114610dcc57600080fd5b50565b600081359050610dde81610db8565b92915050565b600060208284031215610dfa57610df9610da4565b5b6000610e0884828501610dcf565b91505092915050565b610e1a81610dae565b82525050565b600081519050919050565b600082825260208201905092915050565b60005b83811015610e5a578082015181840152602081019050610e3f565b60008484015250505050565b6000601f19601f8301169050919050565b6000610e8282610e20565b610e8c8185610e2b565b9350610e9c818560208601610e3c565b610ea581610e66565b840191505092915050565b600060e083016000830151610ec86000860182610e11565b5060208301518482036020860152610ee08282610e77565b91505060408301518482036040860152610efa8282610e77565b91505060608301518482036060860152610f148282610e77565b91505060808301518482036080860152610f2e8282610e77565b91505060a0830151610f4360a0860182610e11565b5060c0830151610f5660c0860182610e11565b508091505092915050565b60006020820190508181036000830152610f7b8184610eb0565b905092915050565b610f8c81610dae565b82525050565b6000602082019050610fa76000830184610f83565b92915050565b600080fd5b600080fd5b7f4e487b7100000000000000000000000000000000000000000000000000000000600052604160045260246000fd5b610fef82610e66565b810181811067ffffffffffffffff8211171561100e5761100d610fb7565b5b80604052505050565b6000611021610d9a565b905061102d8282610fe6565b919050565b600067ffffffffffffffff82111561104d5761104c610fb7565b5b61105682610e66565b9050602081019050919050565b82818337600083830152505050565b600061108561108084611032565b611017565b9050828152602081018484840111156110a1576110a0610fb2565b5b6110ac848285611063565b509392505050565b600082601f8301126110c9576110c8610fad565b5b81356110d9848260208601611072565b91505092915050565b600080600080608085870312156110fc576110fb610da4565b5b600085013567ffffffffffffffff81111561111a57611119610da9565b5b611126878288016110b4565b945050602085013567ffffffffffffffff81111561114757611146610da9565b5b611153878288016110b4565b935050604085013567ffffffffffffffff81111561117457611173610da9565b5b611180878288016110b4565b925050606085013567ffffffffffffffff8111156111a1576111a0610da9565b5b6111ad878288016110b4565b91505092959194509250565b60008115159050919050565b6111ce816111b9565b82525050565b60006020820190506111e960008301846111c5565b92915050565b600381106111fc57600080fd5b50565b60008135905061120e816111ef565b92915050565b6000806040838503121561122b5761122a610da4565b5b600061123985828601610dcf565b925050602061124a858286016111ff565b9150509250929050565b600082825260208201905092915050565b600061127082610e20565b61127a8185611254565b935061128a818560208601610e3c565b61129381610e66565b840191505092915050565b600060e0820190506112b3600083018a610f83565b81810360208301526112c58189611265565b905081810360408301526112d98188611265565b905081810360608301526112ed8187611265565b905081810360808301526113018186611265565b905061131060a0830185610f83565b61131d60c0830184610f83565b98975050505050505050565b600073ffffffffffffffffffffffffffffffffffffffff82169050919050565b600061135482611329565b9050919050565b61136481611349565b811461136f57600080fd5b50565b6000813590506113818161135b565b92915050565b6000806040838503121561139e5761139d610da4565b5b60006113ac85828601610dcf565b92505060206113bd85828601611372565b9150509250929050565b7f4e487b7100000000000000000000000000000000000000000000000000000000600052602160045260246000fd5b60038110611407576114066113c7565b5b50565b6000819050611418826113f6565b919050565b60006114288261140a565b9050919050565b6114388161141d565b82525050565b6000602082019050611453600083018461142f565b92915050565b7f4645433a20436f6e74656e7420494420646f6573206e6f742065786973740000600082015250565b600061148f601e83611254565b915061149a82611459565b602082019050919050565b600060208201905081810360008301526114be81611482565b9050919050565b7f4e487b7100000000000000000000000000000000000000000000000000000000600052602260045260246000fd5b6000600282049050600182168061150c57607f821691505b60208210810361151f5761151e6114c5565b5b50919050565b7f4645433a205469746c65206d757374206265206265747765656e203120616e6460008201527f2034392063686172616374657273000000000000000000000000000000000000602082015250565b6000611581602e83611254565b915061158c82611525565b604082019050919050565b600060208201905081810360008301526115b081611574565b9050919050565b7f4645433a204465736372697074696f6e206d757374206265206265747765656e60008201527f203120616e642034393920636861726163746572730000000000000000000000602082015250565b6000611613603583611254565b915061161e826115b7565b604082019050919050565b6000602082019050818103600083015261164281611606565b9050919050565b7f4645433a2055524c206d757374206265206265747765656e203120616e64203160008201527f3939206368617261637465727300000000000000000000000000000000000000602082015250565b60006116a5602d83611254565b91506116b082611649565b604082019050919050565b600060208201905081810360008301526116d481611698565b9050919050565b7f4645433a2050686f746f2055524c206d757374206265206c657373207468616e60008201527f2031393920636861726163746572730000000000000000000000000000000000602082015250565b6000611737602f83611254565b9150611742826116db565b604082019050919050565b600060208201905081810360008301526117668161172a565b9050919050565b7f4e487b7100000000000000000000000000000000000000000000000000000000600052601160045260246000fd5b60006117a782610dae565b91507fffffffffffffffffffffffffffffffffffffffffffffffffffffffffffffffff82036117d9576117d861176d565b5b600182019050919050565b60008190508160005260206000209050919050565b60006020601f8301049050919050565b600082821b905092915050565b6000600883026118467fffffffffffffffffffffffffffffffffffffffffffffffffffffffffffffffff82611809565b6118508683611809565b95508019841693508086168417925050509392505050565b6000819050919050565b600061188d61188861188384610dae565b611868565b610dae565b9050919050565b6000819050919050565b6118a783611872565b6118bb6118b382611894565b848454611816565b825550505050565b600090565b6118d06118c3565b6118db81848461189e565b505050565b5b818110156118ff576118f46000826118c8565b6001810190506118e1565b5050565b601f82111561194457611915816117e4565b61191e846117f9565b8101602085101561192d578190505b611941611939856117f9565b8301826118e0565b50505b505050565b600082821c905092915050565b600061196760001984600802611949565b1980831691505092915050565b60006119808383611956565b9150826002028217905092915050565b61199982610e20565b67ffffffffffffffff8111156119b2576119b1610fb7565b5b6119bc82546114f4565b6119c7828285611903565b600060209050601f8311600181146119fa57600084156119e8578287015190505b6119f28582611974565b865550611a5a565b601f198416611a08866117e4565b60005b82811015611a3057848901518255600182019150602085019450602081019050611a0b565b86831015611a4d5784890151611a49601f891682611956565b8355505b6001600288020188555050505b505050505050565b60006020820190508181036000830152611a7c8184611265565b905092915050565b7f4645433a20496e76616c696420766f7465207479706500000000000000000000600082015250565b6000611aba601683611254565b9150611ac582611a84565b602082019050919050565b60006020820190508181036000830152611ae981611aad565b9050919050565b6000611afb82610dae565b915060008203611b0e57611b0d61176d565b5b60018203905091905056fea2646970667358221220257e6ada0fd233e5f64e2c01b1232aa2b51f9745118fec57e0ae9de5a7d6400264736f6c634300081b0033",
  "linkReferences": {},
  "deployedLinkReferences": {}
}