{
  "_format": "hh-sol-artifact-1",
  "contractName": "HumansPeaceTreaty",
  "sourceName": "contracts/HumansPeaceTreaty.sol",
  "abi": [
    {
      "anonymous": false,
      "inputs": [
        {
          "indexed": true,
          "internalType": "address",
          "name": "prover",
          "type": "address"
        },
        {
          "indexed": false,
          "internalType": "uint256",
          "name": "blockNumber",
          "type": "uint256"
        }
      ],
      "name": "CommitmentProven",
      "type": "event"
    },
    {
      "anonymous": false,
      "inputs": [
        {
          "indexed": true,
          "internalType": "address",
          "name": "signer",
          "type": "address"
        },
        {
          "indexed": false,
          "internalType": "uint256",
          "name": "blockNumber",
          "type": "uint256"
        }
      ],
      "name": "PledgeSigned",
      "type": "event"
    },
    {
      "inputs": [
        {
          "internalType": "address",
          "name": "account",
          "type": "address"
        }
      ],
      "name": "hasSigned",
      "outputs": [
        {
          "internalType": "bool",
          "name": "",
          "type": "bool"
        }
      ],
      "stateMutability": "view",
      "type": "function"
    },
    {
      "inputs": [
        {
          "internalType": "address",
          "name": "",
          "type": "address"
        }
      ],
      "name": "pledges",
      "outputs": [
        {
          "internalType": "bool",
          "name": "hasSigned",
          "type": "bool"
        },
        {
          "internalType": "uint256",
          "name": "lastProofBlock",
          "type": "uint256"
        }
      ],
      "stateMutability": "view",
      "type": "function"
    },
    {
      "inputs": [],
      "name": "proveCommitment",
      "outputs": [],
      "stateMutability": "nonpayable",
      "type": "function"
    },
    {
      "inputs": [],
      "name": "signPeacePledge",
      "outputs": [],
      "stateMutability": "nonpayable",
      "type": "function"
    },
    {
      "inputs": [],
      "name": "totalSignatures",
      "outputs": [
        {
          "internalType": "uint256",
          "name": "",
          "type": "uint256"
        }
      ],
      "stateMutability": "view",
      "type": "function"
    }
  ],
  "bytecode": "0x6080604052348015600f57600080fd5b506107478061001f6000396000f3fe608060405234801561001057600080fd5b50600436106100575760003560e01c80633015a5211461005c578063343576f51461007a5780636e856563146100ab578063bf6a1413146100b5578063e88d58f6146100e5575b600080fd5b6100646100ef565b6040516100719190610435565b60405180910390f35b610094600480360381019061008f91906104b3565b6100f5565b6040516100a29291906104fb565b60405180910390f35b6100b3610126565b005b6100cf60048036038101906100ca91906104b3565b6102a0565b6040516100dc9190610524565b60405180910390f35b6100ed6102f8565b005b60015481565b60006020528060005260406000206000915090508060000160009054906101000a900460ff16908060010154905082565b6000803373ffffffffffffffffffffffffffffffffffffffff1673ffffffffffffffffffffffffffffffffffffffff16815260200190815260200160002060000160009054906101000a900460ff16156101b5576040517f08c379a00000000000000000000000000000000000000000000000000000000081526004016101ac906105c2565b60405180910390fd5b6040518060400160405280600115158152602001438152506000803373ffffffffffffffffffffffffffffffffffffffff1673ffffffffffffffffffffffffffffffffffffffff16815260200190815260200160002060008201518160000160006101000a81548160ff021916908315150217905550602082015181600101559050506001600081548092919061024b90610611565b91905055503373ffffffffffffffffffffffffffffffffffffffff167fd3dc23eac4ff6093096584a8e59270adac8f9144fdd4d64cc743f5c6aa2d9cdf436040516102969190610435565b60405180910390a2565b60008060008373ffffffffffffffffffffffffffffffffffffffff1673ffffffffffffffffffffffffffffffffffffffff16815260200190815260200160002060000160009054906101000a900460ff169050919050565b6000803373ffffffffffffffffffffffffffffffffffffffff1673ffffffffffffffffffffffffffffffffffffffff16815260200190815260200160002060000160009054906101000a900460ff16610386576040517f08c379a000000000000000000000000000000000000000000000000000000000815260040161037d906106f1565b60405180910390fd5b436000803373ffffffffffffffffffffffffffffffffffffffff1673ffffffffffffffffffffffffffffffffffffffff168152602001908152602001600020600101819055503373ffffffffffffffffffffffffffffffffffffffff167f182a30ac8991f3bbaa2ff00e9693430ac8a9b4692900433620e11e231908e7cc436040516104129190610435565b60405180910390a2565b6000819050919050565b61042f8161041c565b82525050565b600060208201905061044a6000830184610426565b92915050565b600080fd5b600073ffffffffffffffffffffffffffffffffffffffff82169050919050565b600061048082610455565b9050919050565b61049081610475565b811461049b57600080fd5b50565b6000813590506104ad81610487565b92915050565b6000602082840312156104c9576104c8610450565b5b60006104d78482850161049e565b91505092915050565b60008115159050919050565b6104f5816104e0565b82525050565b600060408201905061051060008301856104ec565b61051d6020830184610426565b9392505050565b600060208201905061053960008301846104ec565b92915050565b600082825260208201905092915050565b7f48756d616e7350656163655472656174793a20596f75206861766520616c726560008201527f616479207369676e6564207468697320706c656467652e000000000000000000602082015250565b60006105ac60378361053f565b91506105b782610550565b604082019050919050565b600060208201905081810360008301526105db8161059f565b9050919050565b7f4e487b7100000000000000000000000000000000000000000000000000000000600052601160045260246000fd5b600061061c8261041c565b91507fffffffffffffffffffffffffffffffffffffffffffffffffffffffffffffffff820361064e5761064d6105e2565b5b600182019050919050565b7f48756d616e7350656163655472656174793a20596f75206d757374207369676e60008201527f2074686520706c65646765206669727374206265666f72652070726f76696e6760208201527f20636f6d6d69746d656e742e0000000000000000000000000000000000000000604082015250565b60006106db604c8361053f565b91506106e682610659565b606082019050919050565b6000602082019050818103600083015261070a816106ce565b905091905056fea2646970667358221220816e9dc4ab1e0e72244be8eaaa5991d24cff9d65eb6e109101360877e4992f0564736f6c634300081b0033",
  "linkReferences": {},
  "deployedLinkReferences": {}
}