{
  "_format": "hh-sol-artifact-1",
  "contractName": "GlobalPlantCatalog",
  "sourceName": "contracts/GlobalPlantCatalog.sol",
  "abi": [
    {
      "anonymous": false,
      "inputs": [
        {
          "indexed": true,
          "internalType": "uint256",
          "name": "plantId",
          "type": "uint256"
        },
        {
          "indexed": true,
          "internalType": "address",
          "name": "creator",
          "type": "address"
        },
        {
          "indexed": false,
          "internalType": "string",
          "name": "popularName",
          "type": "string"
        },
        {
          "indexed": false,
          "internalType": "string",
          "name": "scientificName",
          "type": "string"
        },
        {
          "indexed": false,
          "internalType": "uint256",
          "name": "createdAt",
          "type": "uint256"
        }
      ],
      "name": "PlantAdded",
      "type": "event"
    },
    {
      "anonymous": false,
      "inputs": [
        {
          "indexed": true,
          "internalType": "uint256",
          "name": "plantId",
          "type": "uint256"
        },
        {
          "indexed": true,
          "internalType": "address",
          "name": "voter",
          "type": "address"
        },
        {
          "indexed": false,
          "internalType": "enum GlobalPlantCatalog.VoteType",
          "name": "voteType",
          "type": "uint8"
        }
      ],
      "name": "Voted",
      "type": "event"
    },
    {
      "inputs": [
        {
          "internalType": "string",
          "name": "_popularName",
          "type": "string"
        },
        {
          "internalType": "string",
          "name": "_scientificName",
          "type": "string"
        },
        {
          "internalType": "string",
          "name": "_taxonomy",
          "type": "string"
        },
        {
          "internalType": "string",
          "name": "_description",
          "type": "string"
        },
        {
          "internalType": "string",
          "name": "_photoHash",
          "type": "string"
        }
      ],
      "name": "addPlant",
      "outputs": [],
      "stateMutability": "nonpayable",
      "type": "function"
    },
    {
      "inputs": [
        {
          "internalType": "address",
          "name": "",
          "type": "address"
        },
        {
          "internalType": "uint256",
          "name": "",
          "type": "uint256"
        }
      ],
      "name": "creatorPlants",
      "outputs": [
        {
          "internalType": "uint256",
          "name": "",
          "type": "uint256"
        }
      ],
      "stateMutability": "view",
      "type": "function"
    },
    {
      "inputs": [
        {
          "internalType": "uint256",
          "name": "_plantId",
          "type": "uint256"
        }
      ],
      "name": "getPlant",
      "outputs": [
        {
          "components": [
            {
              "internalType": "uint256",
              "name": "id",
              "type": "uint256"
            },
            {
              "internalType": "string",
              "name": "popularName",
              "type": "string"
            },
            {
              "internalType": "string",
              "name": "scientificName",
              "type": "string"
            },
            {
              "internalType": "string",
              "name": "taxonomy",
              "type": "string"
            },
            {
              "internalType": "string",
              "name": "description",
              "type": "string"
            },
            {
              "internalType": "string",
              "name": "photoHash",
              "type": "string"
            },
            {
              "internalType": "address",
              "name": "creator",
              "type": "address"
            },
            {
              "internalType": "uint256",
              "name": "createdAt",
              "type": "uint256"
            },
            {
              "internalType": "uint256",
              "name": "upvotes",
              "type": "uint256"
            },
            {
              "internalType": "uint256",
              "name": "downvotes",
              "type": "uint256"
            }
          ],
          "internalType": "struct GlobalPlantCatalog.Plant",
          "name": "",
          "type": "tuple"
        }
      ],
      "stateMutability": "view",
      "type": "function"
    },
    {
      "inputs": [
        {
          "internalType": "address",
          "name": "_creator",
          "type": "address"
        }
      ],
      "name": "getPlantsByCreator",
      "outputs": [
        {
          "internalType": "uint256[]",
          "name": "",
          "type": "uint256[]"
        }
      ],
      "stateMutability": "view",
      "type": "function"
    },
    {
      "inputs": [],
      "name": "getTotalPlantsCount",
      "outputs": [
        {
          "internalType": "uint256",
          "name": "",
          "type": "uint256"
        }
      ],
      "stateMutability": "view",
      "type": "function"
    },
    {
      "inputs": [
        {
          "internalType": "uint256",
          "name": "_plantId",
          "type": "uint256"
        }
      ],
      "name": "hasMoreUpvotes",
      "outputs": [
        {
          "internalType": "bool",
          "name": "",
          "type": "bool"
        }
      ],
      "stateMutability": "view",
      "type": "function"
    },
    {
      "inputs": [],
      "name": "nextPlantId",
      "outputs": [
        {
          "internalType": "uint256",
          "name": "",
          "type": "uint256"
        }
      ],
      "stateMutability": "view",
      "type": "function"
    },
    {
      "inputs": [
        {
          "internalType": "uint256",
          "name": "",
          "type": "uint256"
        }
      ],
      "name": "plants",
      "outputs": [
        {
          "internalType": "uint256",
          "name": "id",
          "type": "uint256"
        },
        {
          "internalType": "string",
          "name": "popularName",
          "type": "string"
        },
        {
          "internalType": "string",
          "name": "scientificName",
          "type": "string"
        },
        {
          "internalType": "string",
          "name": "taxonomy",
          "type": "string"
        },
        {
          "internalType": "string",
          "name": "description",
          "type": "string"
        },
        {
          "internalType": "string",
          "name": "photoHash",
          "type": "string"
        },
        {
          "internalType": "address",
          "name": "creator",
          "type": "address"
        },
        {
          "internalType": "uint256",
          "name": "createdAt",
          "type": "uint256"
        },
        {
          "internalType": "uint256",
          "name": "upvotes",
          "type": "uint256"
        },
        {
          "internalType": "uint256",
          "name": "downvotes",
          "type": "uint256"
        }
      ],
      "stateMutability": "view",
      "type": "function"
    },
    {
      "inputs": [
        {
          "internalType": "uint256",
          "name": "",
          "type": "uint256"
        },
        {
          "internalType": "address",
          "name": "",
          "type": "address"
        }
      ],
      "name": "userVotes",
      "outputs": [
        {
          "internalType": "enum GlobalPlantCatalog.VoteType",
          "name": "",
          "type": "uint8"
        }
      ],
      "stateMutability": "view",
      "type": "function"
    },
    {
      "inputs": [
        {
          "internalType": "uint256",
          "name": "_plantId",
          "type": "uint256"
        },
        {
          "internalType": "enum GlobalPlantCatalog.VoteType",
          "name": "_voteType",
          "type": "uint8"
        }
      ],
      "name": "vote",
      "outputs": [],
      "stateMutability": "nonpayable",
      "type": "function"
    }
  ],
  "bytecode": "0x6080604052348015600f57600080fd5b50611f2c8061001f6000396000f3fe608060405234801561001057600080fd5b506004361061009e5760003560e01c80638dd2361c116100665780638dd2361c1461015b578063943e8216146101945780639f6b484d146101b0578063ed0b1f5f146101e0578063fe5b3e3b146102105761009e565b80631d21d7a4146100a35780634fb9a50a146100c1578063558dfe2b146100f15780635daf30a71461012157806370c9195f1461013f575b600080fd5b6100ab610240565b6040516100b891906110e1565b60405180910390f35b6100db60048036038101906100d6919061113c565b61024a565b6040516100e89190611184565b60405180910390f35b61010b600480360381019061010691906111fd565b6102c4565b60405161011891906110e1565b60405180910390f35b6101296102f5565b60405161013691906110e1565b60405180910390f35b610159600480360381019061015491906113e3565b6102fb565b005b6101756004803603810190610170919061113c565b610572565b60405161018b9a9998979695949392919061157b565b60405180910390f35b6101ae60048036038101906101a9919061165f565b61088e565b005b6101ca60048036038101906101c5919061169f565b610bd0565b6040516101d7919061178a565b60405180910390f35b6101fa60048036038101906101f5919061113c565b610c67565b60405161020791906118fb565b60405180910390f35b61022a6004803603810190610225919061191d565b611030565b60405161023791906119d4565b60405180910390f35b6000600354905090565b60006003548210610290576040517f08c379a000000000000000000000000000000000000000000000000000000000815260040161028790611a3b565b60405180910390fd5b6000808381526020019081526020016000206009015460008084815260200190815260200160002060080154119050919050565b600260205281600052604060002081815481106102e057600080fd5b90600052602060002001600091509150505481565b60035481565b6000600354905060405180610140016040528082815260200188815260200187815260200186815260200185815260200184848080601f016020809104026020016040519081016040528093929190818152602001838380828437600081840152601f19601f8201169050808301925050505050505081526020013373ffffffffffffffffffffffffffffffffffffffff1681526020014381526020016000815260200160008152506000808381526020019081526020016000206000820151816000015560208201518160010190816103d59190611c67565b5060408201518160020190816103eb9190611c67565b5060608201518160030190816104019190611c67565b5060808201518160040190816104179190611c67565b5060a082015181600501908161042d9190611c67565b5060c08201518160060160006101000a81548173ffffffffffffffffffffffffffffffffffffffff021916908373ffffffffffffffffffffffffffffffffffffffff16021790555060e0820151816007015561010082015181600801556101208201518160090155905050600260003373ffffffffffffffffffffffffffffffffffffffff1673ffffffffffffffffffffffffffffffffffffffff1681526020019081526020016000208190806001815401808255809150506001900390600052602060002001600090919091909150556003600081548092919061051190611d68565b91905055503373ffffffffffffffffffffffffffffffffffffffff16817f20c522ac0d5de580034b56135b697c30d7df164d2b9678d39d435ffeace3822089894360405161056193929190611db0565b60405180910390a350505050505050565b600060205280600052604060002060009150905080600001549080600101805461059b90611a8a565b80601f01602080910402602001604051908101604052809291908181526020018280546105c790611a8a565b80156106145780601f106105e957610100808354040283529160200191610614565b820191906000526020600020905b8154815290600101906020018083116105f757829003601f168201915b50505050509080600201805461062990611a8a565b80601f016020809104026020016040519081016040528092919081815260200182805461065590611a8a565b80156106a25780601f10610677576101008083540402835291602001916106a2565b820191906000526020600020905b81548152906001019060200180831161068557829003601f168201915b5050505050908060030180546106b790611a8a565b80601f01602080910402602001604051908101604052809291908181526020018280546106e390611a8a565b80156107305780601f1061070557610100808354040283529160200191610730565b820191906000526020600020905b81548152906001019060200180831161071357829003601f168201915b50505050509080600401805461074590611a8a565b80601f016020809104026020016040519081016040528092919081815260200182805461077190611a8a565b80156107be5780601f10610793576101008083540402835291602001916107be565b820191906000526020600020905b8154815290600101906020018083116107a157829003601f168201915b5050505050908060050180546107d390611a8a565b80601f01602080910402602001604051908101604052809291908181526020018280546107ff90611a8a565b801561084c5780601f106108215761010080835404028352916020019161084c565b820191906000526020600020905b81548152906001019060200180831161082f57829003601f168201915b5050505050908060060160009054906101000a900473ffffffffffffffffffffffffffffffffffffffff1690806007015490806008015490806009015490508a565b60035482106108d2576040517f08c379a00000000000000000000000000000000000000000000000000000000081526004016108c990611a3b565b60405180910390fd5b600160028111156108e6576108e561195d565b5b8160028111156108f9576108f861195d565b5b148061092857506002808111156109135761091261195d565b5b8160028111156109265761092561195d565b5b145b610967576040517f08c379a000000000000000000000000000000000000000000000000000000000815260040161095e90611e41565b60405180910390fd5b6000806000848152602001908152602001600020905060006001600085815260200190815260200160002060003373ffffffffffffffffffffffffffffffffffffffff1673ffffffffffffffffffffffffffffffffffffffff16815260200190815260200160002060009054906101000a900460ff1690508260028111156109f2576109f161195d565b5b816002811115610a0557610a0461195d565b5b14610bca5760016002811115610a1e57610a1d61195d565b5b816002811115610a3157610a3061195d565b5b03610a5557816008016000815480929190610a4b90611e61565b9190505550610a9c565b600280811115610a6857610a6761195d565b5b816002811115610a7b57610a7a61195d565b5b03610a9b57816009016000815480929190610a9590611e61565b91905055505b5b60016002811115610ab057610aaf61195d565b5b836002811115610ac357610ac261195d565b5b03610ae757816008016000815480929190610add90611d68565b9190505550610b02565b816009016000815480929190610afc90611d68565b91905055505b826001600086815260200190815260200160002060003373ffffffffffffffffffffffffffffffffffffffff1673ffffffffffffffffffffffffffffffffffffffff16815260200190815260200160002060006101000a81548160ff02191690836002811115610b7557610b7461195d565b5b02179055503373ffffffffffffffffffffffffffffffffffffffff16847f094f80829c509370abb2d421a078ba5926755d3de25d021dacf7bbd19853f7a285604051610bc191906119d4565b60405180910390a35b50505050565b6060600260008373ffffffffffffffffffffffffffffffffffffffff1673ffffffffffffffffffffffffffffffffffffffff168152602001908152602001600020805480602002602001604051908101604052809291908181526020018280548015610c5b57602002820191906000526020600020905b815481526020019060010190808311610c47575b50505050509050919050565b610c6f61105f565b6003548210610cb3576040517f08c379a0000000000000000000000000000000000000000000000000000000008152600401610caa90611ed6565b60405180910390fd5b6000808381526020019081526020016000206040518061014001604052908160008201548152602001600182018054610ceb90611a8a565b80601f0160208091040260200160405190810160405280929190818152602001828054610d1790611a8a565b8015610d645780601f10610d3957610100808354040283529160200191610d64565b820191906000526020600020905b815481529060010190602001808311610d4757829003601f168201915b50505050508152602001600282018054610d7d90611a8a565b80601f0160208091040260200160405190810160405280929190818152602001828054610da990611a8a565b8015610df65780601f10610dcb57610100808354040283529160200191610df6565b820191906000526020600020905b815481529060010190602001808311610dd957829003601f168201915b50505050508152602001600382018054610e0f90611a8a565b80601f0160208091040260200160405190810160405280929190818152602001828054610e3b90611a8a565b8015610e885780601f10610e5d57610100808354040283529160200191610e88565b820191906000526020600020905b815481529060010190602001808311610e6b57829003601f168201915b50505050508152602001600482018054610ea190611a8a565b80601f0160208091040260200160405190810160405280929190818152602001828054610ecd90611a8a565b8015610f1a5780601f10610eef57610100808354040283529160200191610f1a565b820191906000526020600020905b815481529060010190602001808311610efd57829003601f168201915b50505050508152602001600582018054610f3390611a8a565b80601f0160208091040260200160405190810160405280929190818152602001828054610f5f90611a8a565b8015610fac5780601f10610f8157610100808354040283529160200191610fac565b820191906000526020600020905b815481529060010190602001808311610f8f57829003601f168201915b505050505081526020016006820160009054906101000a900473ffffffffffffffffffffffffffffffffffffffff1673ffffffffffffffffffffffffffffffffffffffff1673ffffffffffffffffffffffffffffffffffffffff16815260200160078201548152602001600882015481526020016009820154815250509050919050565b60016020528160005260406000206020528060005260406000206000915091509054906101000a900460ff1681565b604051806101400160405280600081526020016060815260200160608152602001606081526020016060815260200160608152602001600073ffffffffffffffffffffffffffffffffffffffff1681526020016000815260200160008152602001600081525090565b6000819050919050565b6110db816110c8565b82525050565b60006020820190506110f660008301846110d2565b92915050565b6000604051905090565b600080fd5b600080fd5b611119816110c8565b811461112457600080fd5b50565b60008135905061113681611110565b92915050565b60006020828403121561115257611151611106565b5b600061116084828501611127565b91505092915050565b60008115159050919050565b61117e81611169565b82525050565b60006020820190506111996000830184611175565b92915050565b600073ffffffffffffffffffffffffffffffffffffffff82169050919050565b60006111ca8261119f565b9050919050565b6111da816111bf565b81146111e557600080fd5b50565b6000813590506111f7816111d1565b92915050565b6000806040838503121561121457611213611106565b5b6000611222858286016111e8565b925050602061123385828601611127565b9150509250929050565b600080fd5b600080fd5b6000601f19601f8301169050919050565b7f4e487b7100000000000000000000000000000000000000000000000000000000600052604160045260246000fd5b61129082611247565b810181811067ffffffffffffffff821117156112af576112ae611258565b5b80604052505050565b60006112c26110fc565b90506112ce8282611287565b919050565b600067ffffffffffffffff8211156112ee576112ed611258565b5b6112f782611247565b9050602081019050919050565b82818337600083830152505050565b6000611326611321846112d3565b6112b8565b90508281526020810184848401111561134257611341611242565b5b61134d848285611304565b509392505050565b600082601f83011261136a5761136961123d565b5b813561137a848260208601611313565b91505092915050565b600080fd5b600080fd5b60008083601f8401126113a3576113a261123d565b5b8235905067ffffffffffffffff8111156113c0576113bf611383565b5b6020830191508360018202830111156113dc576113db611388565b5b9250929050565b60008060008060008060a08789031215611400576113ff611106565b5b600087013567ffffffffffffffff81111561141e5761141d61110b565b5b61142a89828a01611355565b965050602087013567ffffffffffffffff81111561144b5761144a61110b565b5b61145789828a01611355565b955050604087013567ffffffffffffffff8111156114785761147761110b565b5b61148489828a01611355565b945050606087013567ffffffffffffffff8111156114a5576114a461110b565b5b6114b189828a01611355565b935050608087013567ffffffffffffffff8111156114d2576114d161110b565b5b6114de89828a0161138d565b92509250509295509295509295565b600081519050919050565b600082825260208201905092915050565b60005b8381101561152757808201518184015260208101905061150c565b60008484015250505050565b600061153e826114ed565b61154881856114f8565b9350611558818560208601611509565b61156181611247565b840191505092915050565b611575816111bf565b82525050565b600061014082019050611591600083018d6110d2565b81810360208301526115a3818c611533565b905081810360408301526115b7818b611533565b905081810360608301526115cb818a611533565b905081810360808301526115df8189611533565b905081810360a08301526115f38188611533565b905061160260c083018761156c565b61160f60e08301866110d2565b61161d6101008301856110d2565b61162b6101208301846110d2565b9b9a5050505050505050505050565b6003811061164757600080fd5b50565b6000813590506116598161163a565b92915050565b6000806040838503121561167657611675611106565b5b600061168485828601611127565b92505060206116958582860161164a565b9150509250929050565b6000602082840312156116b5576116b4611106565b5b60006116c3848285016111e8565b91505092915050565b600081519050919050565b600082825260208201905092915050565b6000819050602082019050919050565b611701816110c8565b82525050565b600061171383836116f8565b60208301905092915050565b6000602082019050919050565b6000611737826116cc565b61174181856116d7565b935061174c836116e8565b8060005b8381101561177d5781516117648882611707565b975061176f8361171f565b925050600181019050611750565b5085935050505092915050565b600060208201905081810360008301526117a4818461172c565b905092915050565b600082825260208201905092915050565b60006117c8826114ed565b6117d281856117ac565b93506117e2818560208601611509565b6117eb81611247565b840191505092915050565b6117ff816111bf565b82525050565b60006101408301600083015161181e60008601826116f8565b506020830151848203602086015261183682826117bd565b9150506040830151848203604086015261185082826117bd565b9150506060830151848203606086015261186a82826117bd565b9150506080830151848203608086015261188482826117bd565b91505060a083015184820360a086015261189e82826117bd565b91505060c08301516118b360c08601826117f6565b5060e08301516118c660e08601826116f8565b506101008301516118db6101008601826116f8565b506101208301516118f06101208601826116f8565b508091505092915050565b600060208201905081810360008301526119158184611805565b905092915050565b6000806040838503121561193457611933611106565b5b600061194285828601611127565b9250506020611953858286016111e8565b9150509250929050565b7f4e487b7100000000000000000000000000000000000000000000000000000000600052602160045260246000fd5b6003811061199d5761199c61195d565b5b50565b60008190506119ae8261198c565b919050565b60006119be826119a0565b9050919050565b6119ce816119b3565b82525050565b60006020820190506119e960008301846119c5565b92915050565b7f4750433a20506c616e7420494420646f6573206e6f7420657869737400000000600082015250565b6000611a25601c836114f8565b9150611a30826119ef565b602082019050919050565b60006020820190508181036000830152611a5481611a18565b9050919050565b7f4e487b7100000000000000000000000000000000000000000000000000000000600052602260045260246000fd5b60006002820490506001821680611aa257607f821691505b602082108103611ab557611ab4611a5b565b5b50919050565b60008190508160005260206000209050919050565b60006020601f8301049050919050565b600082821b905092915050565b600060088302611b1d7fffffffffffffffffffffffffffffffffffffffffffffffffffffffffffffffff82611ae0565b611b278683611ae0565b95508019841693508086168417925050509392505050565b6000819050919050565b6000611b64611b5f611b5a846110c8565b611b3f565b6110c8565b9050919050565b6000819050919050565b611b7e83611b49565b611b92611b8a82611b6b565b848454611aed565b825550505050565b600090565b611ba7611b9a565b611bb2818484611b75565b505050565b5b81811015611bd657611bcb600082611b9f565b600181019050611bb8565b5050565b601f821115611c1b57611bec81611abb565b611bf584611ad0565b81016020851015611c04578190505b611c18611c1085611ad0565b830182611bb7565b50505b505050565b600082821c905092915050565b6000611c3e60001984600802611c20565b1980831691505092915050565b6000611c578383611c2d565b9150826002028217905092915050565b611c70826114ed565b67ffffffffffffffff811115611c8957611c88611258565b5b611c938254611a8a565b611c9e828285611bda565b600060209050601f831160018114611cd15760008415611cbf578287015190505b611cc98582611c4b565b865550611d31565b601f198416611cdf86611abb565b60005b82811015611d0757848901518255600182019150602085019450602081019050611ce2565b86831015611d245784890151611d20601f891682611c2d565b8355505b6001600288020188555050505b505050505050565b7f4e487b7100000000000000000000000000000000000000000000000000000000600052601160045260246000fd5b6000611d73826110c8565b91507fffffffffffffffffffffffffffffffffffffffffffffffffffffffffffffffff8203611da557611da4611d39565b5b600182019050919050565b60006060820190508181036000830152611dca8186611533565b90508181036020830152611dde8185611533565b9050611ded60408301846110d2565b949350505050565b7f4750433a20496e76616c696420766f7465207479706500000000000000000000600082015250565b6000611e2b6016836114f8565b9150611e3682611df5565b602082019050919050565b60006020820190508181036000830152611e5a81611e1e565b9050919050565b6000611e6c826110c8565b915060008203611e7f57611e7e611d39565b5b600182039050919050565b7f506c616e7420494420646f6573206e6f74206578697374000000000000000000600082015250565b6000611ec06017836114f8565b9150611ecb82611e8a565b602082019050919050565b60006020820190508181036000830152611eef81611eb3565b905091905056fea2646970667358221220abcb7de97c79892e3f9fe0addf8854ba9103a3861e0f13c28e5a475ffb3e382764736f6c634300081b0033",
  "linkReferences": {},
  "deployedLinkReferences": {}
}