{
  "_format": "hh-sol-artifact-1",
  "contractName": "SintropAppStore",
  "sourceName": "contracts/SintropAppStore.sol",
  "abi": [
    {
      "anonymous": false,
      "inputs": [
        {
          "indexed": true,
          "internalType": "uint256",
          "name": "impactAppId",
          "type": "uint256"
        },
        {
          "indexed": false,
          "internalType": "string",
          "name": "name",
          "type": "string"
        },
        {
          "indexed": true,
          "internalType": "address",
          "name": "publisher",
          "type": "address"
        }
      ],
      "name": "ImpactAppRegistered",
      "type": "event"
    },
    {
      "anonymous": false,
      "inputs": [
        {
          "indexed": true,
          "internalType": "uint256",
          "name": "impactAppId",
          "type": "uint256"
        },
        {
          "indexed": true,
          "internalType": "address",
          "name": "voter",
          "type": "address"
        },
        {
          "indexed": false,
          "internalType": "enum SintropAppStore.VoteType",
          "name": "voteType",
          "type": "uint8"
        }
      ],
      "name": "ImpactAppVoted",
      "type": "event"
    },
    {
      "inputs": [
        {
          "internalType": "uint256",
          "name": "",
          "type": "uint256"
        },
        {
          "internalType": "address",
          "name": "",
          "type": "address"
        }
      ],
      "name": "impactAppVotes",
      "outputs": [
        {
          "internalType": "enum SintropAppStore.VoteType",
          "name": "",
          "type": "uint8"
        }
      ],
      "stateMutability": "view",
      "type": "function"
    },
    {
      "inputs": [
        {
          "internalType": "uint256",
          "name": "",
          "type": "uint256"
        }
      ],
      "name": "impactApps",
      "outputs": [
        {
          "internalType": "uint256",
          "name": "id",
          "type": "uint256"
        },
        {
          "internalType": "address",
          "name": "publisher",
          "type": "address"
        },
        {
          "internalType": "string",
          "name": "name",
          "type": "string"
        },
        {
          "internalType": "string",
          "name": "description",
          "type": "string"
        },
        {
          "internalType": "string",
          "name": "repositoryUrl",
          "type": "string"
        },
        {
          "internalType": "string",
          "name": "externalLink",
          "type": "string"
        },
        {
          "internalType": "uint256",
          "name": "positiveVotes",
          "type": "uint256"
        },
        {
          "internalType": "uint256",
          "name": "negativeVotes",
          "type": "uint256"
        }
      ],
      "stateMutability": "view",
      "type": "function"
    },
    {
      "inputs": [],
      "name": "impactAppsCount",
      "outputs": [
        {
          "internalType": "uint256",
          "name": "",
          "type": "uint256"
        }
      ],
      "stateMutability": "view",
      "type": "function"
    },
    {
      "inputs": [
        {
          "internalType": "uint256",
          "name": "_impactAppId",
          "type": "uint256"
        }
      ],
      "name": "isImpactAppSustainable",
      "outputs": [
        {
          "internalType": "bool",
          "name": "",
          "type": "bool"
        }
      ],
      "stateMutability": "view",
      "type": "function"
    },
    {
      "inputs": [
        {
          "internalType": "string",
          "name": "_name",
          "type": "string"
        },
        {
          "internalType": "string",
          "name": "_description",
          "type": "string"
        },
        {
          "internalType": "string",
          "name": "_repositoryUrl",
          "type": "string"
        },
        {
          "internalType": "string",
          "name": "_externalLink",
          "type": "string"
        },
        {
          "internalType": "address[]",
          "name": "_contractAddresses",
          "type": "address[]"
        }
      ],
      "name": "registerImpactApp",
      "outputs": [],
      "stateMutability": "nonpayable",
      "type": "function"
    },
    {
      "inputs": [
        {
          "internalType": "uint256",
          "name": "_impactAppId",
          "type": "uint256"
        },
        {
          "internalType": "enum SintropAppStore.VoteType",
          "name": "_voteType",
          "type": "uint8"
        }
      ],
      "name": "voteForImpactApp",
      "outputs": [],
      "stateMutability": "nonpayable",
      "type": "function"
    }
  ],
  "bytecode": "0x6080604052348015600f57600080fd5b50611d568061001f6000396000f3fe608060405234801561001057600080fd5b50600436106100625760003560e01c806306f62d63146100675780633410569214610097578063374a89da146100c75780636d777d87146100e5578063b2459bb31461011c578063d9c5e15314610138575b600080fd5b610081600480360381019061007c9190610f6f565b610154565b60405161008e9190610fb7565b60405180910390f35b6100b160048036038101906100ac9190611030565b610527565b6040516100be91906110e7565b60405180910390f35b6100cf610556565b6040516100dc9190611111565b60405180910390f35b6100ff60048036038101906100fa9190610f6f565b61055c565b6040516101139897969594939291906111cb565b60405180910390f35b6101366004803603810190610131919061128a565b6107e4565b005b610152600480360381019061014d91906114c7565b610b34565b005b6000808211801561016757506000548211155b6101a6576040517f08c379a000000000000000000000000000000000000000000000000000000000815260040161019d9061161a565b60405180910390fd5b60006001600084815260200190815260200160002060405180610120016040529081600082015481526020016001820160009054906101000a900473ffffffffffffffffffffffffffffffffffffffff1673ffffffffffffffffffffffffffffffffffffffff1673ffffffffffffffffffffffffffffffffffffffff16815260200160028201805461023790611669565b80601f016020809104026020016040519081016040528092919081815260200182805461026390611669565b80156102b05780601f10610285576101008083540402835291602001916102b0565b820191906000526020600020905b81548152906001019060200180831161029357829003601f168201915b505050505081526020016003820180546102c990611669565b80601f01602080910402602001604051908101604052809291908181526020018280546102f590611669565b80156103425780601f1061031757610100808354040283529160200191610342565b820191906000526020600020905b81548152906001019060200180831161032557829003601f168201915b5050505050815260200160048201805461035b90611669565b80601f016020809104026020016040519081016040528092919081815260200182805461038790611669565b80156103d45780601f106103a9576101008083540402835291602001916103d4565b820191906000526020600020905b8154815290600101906020018083116103b757829003601f168201915b505050505081526020016005820180546103ed90611669565b80601f016020809104026020016040519081016040528092919081815260200182805461041990611669565b80156104665780601f1061043b57610100808354040283529160200191610466565b820191906000526020600020905b81548152906001019060200180831161044957829003601f168201915b50505050508152602001600682018054806020026020016040519081016040528092919081815260200182805480156104f457602002820191906000526020600020905b8160009054906101000a900473ffffffffffffffffffffffffffffffffffffffff1673ffffffffffffffffffffffffffffffffffffffff16815260200190600101908083116104aa575b505050505081526020016007820154815260200160088201548152505090508061010001518160e0015111915050919050565b60026020528160005260406000206020528060005260406000206000915091509054906101000a900460ff1681565b60005481565b60016020528060005260406000206000915090508060000154908060010160009054906101000a900473ffffffffffffffffffffffffffffffffffffffff16908060020180546105ab90611669565b80601f01602080910402602001604051908101604052809291908181526020018280546105d790611669565b80156106245780601f106105f957610100808354040283529160200191610624565b820191906000526020600020905b81548152906001019060200180831161060757829003601f168201915b50505050509080600301805461063990611669565b80601f016020809104026020016040519081016040528092919081815260200182805461066590611669565b80156106b25780601f10610687576101008083540402835291602001916106b2565b820191906000526020600020905b81548152906001019060200180831161069557829003601f168201915b5050505050908060040180546106c790611669565b80601f01602080910402602001604051908101604052809291908181526020018280546106f390611669565b80156107405780601f1061071557610100808354040283529160200191610740565b820191906000526020600020905b81548152906001019060200180831161072357829003601f168201915b50505050509080600501805461075590611669565b80601f016020809104026020016040519081016040528092919081815260200182805461078190611669565b80156107ce5780601f106107a3576101008083540402835291602001916107ce565b820191906000526020600020905b8154815290600101906020018083116107b157829003601f168201915b5050505050908060070154908060080154905088565b6000821180156107f657506000548211155b610835576040517f08c379a000000000000000000000000000000000000000000000000000000000815260040161082c9061161a565b60405180910390fd5b6001600281111561084957610848611070565b5b81600281111561085c5761085b611070565b5b148061088b575060028081111561087657610875611070565b5b81600281111561088957610888611070565b5b145b6108ca576040517f08c379a00000000000000000000000000000000000000000000000000000000081526004016108c1906116e6565b60405180910390fd5b600060016000848152602001908152602001600020905060006002600085815260200190815260200160002060003373ffffffffffffffffffffffffffffffffffffffff1673ffffffffffffffffffffffffffffffffffffffff16815260200190815260200160002060009054906101000a900460ff16905082600281111561095657610955611070565b5b81600281111561096957610968611070565b5b14610b2e576001600281111561098257610981611070565b5b81600281111561099557610994611070565b5b036109b9578160070160008154809291906109af90611735565b9190505550610a00565b6002808111156109cc576109cb611070565b5b8160028111156109df576109de611070565b5b036109ff578160080160008154809291906109f990611735565b91905055505b5b60016002811115610a1457610a13611070565b5b836002811115610a2757610a26611070565b5b03610a4b57816007016000815480929190610a419061175e565b9190505550610a66565b816008016000815480929190610a609061175e565b91905055505b826002600086815260200190815260200160002060003373ffffffffffffffffffffffffffffffffffffffff1673ffffffffffffffffffffffffffffffffffffffff16815260200190815260200160002060006101000a81548160ff02191690836002811115610ad957610ad8611070565b5b02179055503373ffffffffffffffffffffffffffffffffffffffff16847fbf8ddb7a80268b8d791fd803afbe83a3c5c0bf4c384c80ba18c273012e86404185604051610b2591906110e7565b60405180910390a35b50505050565b60008551118015610b4757506064855111155b610b86576040517f08c379a0000000000000000000000000000000000000000000000000000000008152600401610b7d90611818565b60405180910390fd5b60008451118015610b9a57506103e8845111155b610bd9576040517f08c379a0000000000000000000000000000000000000000000000000000000008152600401610bd0906118aa565b60405180910390fd5b60008351118015610bec575060c8835111155b610c2b576040517f08c379a0000000000000000000000000000000000000000000000000000000008152600401610c229061193c565b60405180910390fd5b60008251118015610c3e575060c8825111155b610c7d576040517f08c379a0000000000000000000000000000000000000000000000000000000008152600401610c74906119ce565b60405180910390fd5b6000815111610cc1576040517f08c379a0000000000000000000000000000000000000000000000000000000008152600401610cb890611a60565b60405180910390fd5b600080815480929190610cd39061175e565b91905055506000805490506040518061012001604052808281526020013373ffffffffffffffffffffffffffffffffffffffff168152602001878152602001868152602001858152602001848152602001838152602001600081526020016000815250600160008381526020019081526020016000206000820151816000015560208201518160010160006101000a81548173ffffffffffffffffffffffffffffffffffffffff021916908373ffffffffffffffffffffffffffffffffffffffff1602179055506040820151816002019081610daf9190611c2c565b506060820151816003019081610dc59190611c2c565b506080820151816004019081610ddb9190611c2c565b5060a0820151816005019081610df19190611c2c565b5060c0820151816006019080519060200190610e0e929190610e7e565b5060e0820151816007015561010082015181600801559050503373ffffffffffffffffffffffffffffffffffffffff16817fdab05a4f23d9e99b97842004ee10a727ae8d1b7bae53450627a97856b94596c288604051610e6e9190611cfe565b60405180910390a3505050505050565b828054828255906000526020600020908101928215610ef7579160200282015b82811115610ef65782518260006101000a81548173ffffffffffffffffffffffffffffffffffffffff021916908373ffffffffffffffffffffffffffffffffffffffff16021790555091602001919060010190610e9e565b5b509050610f049190610f08565b5090565b5b80821115610f21576000816000905550600101610f09565b5090565b6000604051905090565b600080fd5b600080fd5b6000819050919050565b610f4c81610f39565b8114610f5757600080fd5b50565b600081359050610f6981610f43565b92915050565b600060208284031215610f8557610f84610f2f565b5b6000610f9384828501610f5a565b91505092915050565b60008115159050919050565b610fb181610f9c565b82525050565b6000602082019050610fcc6000830184610fa8565b92915050565b600073ffffffffffffffffffffffffffffffffffffffff82169050919050565b6000610ffd82610fd2565b9050919050565b61100d81610ff2565b811461101857600080fd5b50565b60008135905061102a81611004565b92915050565b6000806040838503121561104757611046610f2f565b5b600061105585828601610f5a565b92505060206110668582860161101b565b9150509250929050565b7f4e487b7100000000000000000000000000000000000000000000000000000000600052602160045260246000fd5b600381106110b0576110af611070565b5b50565b60008190506110c18261109f565b919050565b60006110d1826110b3565b9050919050565b6110e1816110c6565b82525050565b60006020820190506110fc60008301846110d8565b92915050565b61110b81610f39565b82525050565b60006020820190506111266000830184611102565b92915050565b61113581610ff2565b82525050565b600081519050919050565b600082825260208201905092915050565b60005b8381101561117557808201518184015260208101905061115a565b60008484015250505050565b6000601f19601f8301169050919050565b600061119d8261113b565b6111a78185611146565b93506111b7818560208601611157565b6111c081611181565b840191505092915050565b6000610100820190506111e1600083018b611102565b6111ee602083018a61112c565b81810360408301526112008189611192565b905081810360608301526112148188611192565b905081810360808301526112288187611192565b905081810360a083015261123c8186611192565b905061124b60c0830185611102565b61125860e0830184611102565b9998505050505050505050565b6003811061127257600080fd5b50565b60008135905061128481611265565b92915050565b600080604083850312156112a1576112a0610f2f565b5b60006112af85828601610f5a565b92505060206112c085828601611275565b9150509250929050565b600080fd5b600080fd5b7f4e487b7100000000000000000000000000000000000000000000000000000000600052604160045260246000fd5b61130c82611181565b810181811067ffffffffffffffff8211171561132b5761132a6112d4565b5b80604052505050565b600061133e610f25565b905061134a8282611303565b919050565b600067ffffffffffffffff82111561136a576113696112d4565b5b61137382611181565b9050602081019050919050565b82818337600083830152505050565b60006113a261139d8461134f565b611334565b9050828152602081018484840111156113be576113bd6112cf565b5b6113c9848285611380565b509392505050565b600082601f8301126113e6576113e56112ca565b5b81356113f684826020860161138f565b91505092915050565b600067ffffffffffffffff82111561141a576114196112d4565b5b602082029050602081019050919050565b600080fd5b600061144361143e846113ff565b611334565b905080838252602082019050602084028301858111156114665761146561142b565b5b835b8181101561148f578061147b888261101b565b845260208401935050602081019050611468565b5050509392505050565b600082601f8301126114ae576114ad6112ca565b5b81356114be848260208601611430565b91505092915050565b600080600080600060a086880312156114e3576114e2610f2f565b5b600086013567ffffffffffffffff81111561150157611500610f34565b5b61150d888289016113d1565b955050602086013567ffffffffffffffff81111561152e5761152d610f34565b5b61153a888289016113d1565b945050604086013567ffffffffffffffff81111561155b5761155a610f34565b5b611567888289016113d1565b935050606086013567ffffffffffffffff81111561158857611587610f34565b5b611594888289016113d1565b925050608086013567ffffffffffffffff8111156115b5576115b4610f34565b5b6115c188828901611499565b9150509295509295909350565b7f496e76616c696420496d706163744170702049442e0000000000000000000000600082015250565b6000611604601583611146565b915061160f826115ce565b602082019050919050565b60006020820190508181036000830152611633816115f7565b9050919050565b7f4e487b7100000000000000000000000000000000000000000000000000000000600052602260045260246000fd5b6000600282049050600182168061168157607f821691505b6020821081036116945761169361163a565b5b50919050565b7f496e76616c696420766f746520747970652e0000000000000000000000000000600082015250565b60006116d0601283611146565b91506116db8261169a565b602082019050919050565b600060208201905081810360008301526116ff816116c3565b9050919050565b7f4e487b7100000000000000000000000000000000000000000000000000000000600052601160045260246000fd5b600061174082610f39565b91506000820361175357611752611706565b5b600182039050919050565b600061176982610f39565b91507fffffffffffffffffffffffffffffffffffffffffffffffffffffffffffffffff820361179b5761179a611706565b5b600182019050919050565b7f4e616d65206d757374206265206265747765656e203120616e6420313030206360008201527f6861726163746572732e00000000000000000000000000000000000000000000602082015250565b6000611802602a83611146565b915061180d826117a6565b604082019050919050565b60006020820190508181036000830152611831816117f5565b9050919050565b7f4465736372697074696f6e206d757374206265206265747765656e203120616e60008201527f64203130303020636861726163746572732e0000000000000000000000000000602082015250565b6000611894603283611146565b915061189f82611838565b604082019050919050565b600060208201905081810360008301526118c381611887565b9050919050565b7f5265706f7369746f72792055524c206d757374206265206265747765656e203160008201527f20616e642032303020636861726163746572732e000000000000000000000000602082015250565b6000611926603483611146565b9150611931826118ca565b604082019050919050565b6000602082019050818103600083015261195581611919565b9050919050565b7f45787465726e616c206c696e6b206d757374206265206265747765656e20312060008201527f616e642032303020636861726163746572732e00000000000000000000000000602082015250565b60006119b8603383611146565b91506119c38261195c565b604082019050919050565b600060208201905081810360008301526119e7816119ab565b9050919050565b7f4d75737420696e636c756465206174206c65617374206f6e6520636f6e74726160008201527f637420616464726573732e000000000000000000000000000000000000000000602082015250565b6000611a4a602b83611146565b9150611a55826119ee565b604082019050919050565b60006020820190508181036000830152611a7981611a3d565b9050919050565b60008190508160005260206000209050919050565b60006020601f8301049050919050565b600082821b905092915050565b600060088302611ae27fffffffffffffffffffffffffffffffffffffffffffffffffffffffffffffffff82611aa5565b611aec8683611aa5565b95508019841693508086168417925050509392505050565b6000819050919050565b6000611b29611b24611b1f84610f39565b611b04565b610f39565b9050919050565b6000819050919050565b611b4383611b0e565b611b57611b4f82611b30565b848454611ab2565b825550505050565b600090565b611b6c611b5f565b611b77818484611b3a565b505050565b5b81811015611b9b57611b90600082611b64565b600181019050611b7d565b5050565b601f821115611be057611bb181611a80565b611bba84611a95565b81016020851015611bc9578190505b611bdd611bd585611a95565b830182611b7c565b50505b505050565b600082821c905092915050565b6000611c0360001984600802611be5565b1980831691505092915050565b6000611c1c8383611bf2565b9150826002028217905092915050565b611c358261113b565b67ffffffffffffffff811115611c4e57611c4d6112d4565b5b611c588254611669565b611c63828285611b9f565b600060209050601f831160018114611c965760008415611c84578287015190505b611c8e8582611c10565b865550611cf6565b601f198416611ca486611a80565b60005b82811015611ccc57848901518255600182019150602085019450602081019050611ca7565b86831015611ce95784890151611ce5601f891682611bf2565b8355505b6001600288020188555050505b505050505050565b60006020820190508181036000830152611d188184611192565b90509291505056fea2646970667358221220871ba8f100d0bedf6e6bdcf2059d4914b4cab69a443f0139b5a5ab284cc7f7c364736f6c634300081b0033",
  "linkReferences": {},
  "deployedLinkReferences": {}
}