{
  "_format": "hh-sol-artifact-1",
  "contractName": "SintropAppStore",
  "sourceName": "contracts/SintropAppStore.sol",
  "abi": [
    {
      "anonymous": false,
      "inputs": [
        {
          "indexed": true,
          "internalType": "uint256",
          "name": "impactAppId",
          "type": "uint256"
        },
        {
          "indexed": false,
          "internalType": "string",
          "name": "name",
          "type": "string"
        },
        {
          "indexed": true,
          "internalType": "address",
          "name": "publisher",
          "type": "address"
        }
      ],
      "name": "ImpactAppRegistered",
      "type": "event"
    },
    {
      "anonymous": false,
      "inputs": [
        {
          "indexed": true,
          "internalType": "uint256",
          "name": "impactAppId",
          "type": "uint256"
        },
        {
          "indexed": true,
          "internalType": "address",
          "name": "voter",
          "type": "address"
        },
        {
          "indexed": false,
          "internalType": "enum SintropAppStore.VoteType",
          "name": "voteType",
          "type": "uint8"
        }
      ],
      "name": "ImpactAppVoted",
      "type": "event"
    },
    {
      "inputs": [
        {
          "internalType": "uint256",
          "name": "",
          "type": "uint256"
        },
        {
          "internalType": "address",
          "name": "",
          "type": "address"
        }
      ],
      "name": "impactAppVotes",
      "outputs": [
        {
          "internalType": "enum SintropAppStore.VoteType",
          "name": "",
          "type": "uint8"
        }
      ],
      "stateMutability": "view",
      "type": "function"
    },
    {
      "inputs": [
        {
          "internalType": "uint256",
          "name": "",
          "type": "uint256"
        }
      ],
      "name": "impactApps",
      "outputs": [
        {
          "internalType": "uint256",
          "name": "id",
          "type": "uint256"
        },
        {
          "internalType": "address",
          "name": "publisher",
          "type": "address"
        },
        {
          "internalType": "string",
          "name": "name",
          "type": "string"
        },
        {
          "internalType": "string",
          "name": "description",
          "type": "string"
        },
        {
          "internalType": "string",
          "name": "icon",
          "type": "string"
        },
        {
          "internalType": "string",
          "name": "repositoryUrl",
          "type": "string"
        },
        {
          "internalType": "string",
          "name": "externalLink",
          "type": "string"
        },
        {
          "internalType": "uint256",
          "name": "positiveVotes",
          "type": "uint256"
        },
        {
          "internalType": "uint256",
          "name": "negativeVotes",
          "type": "uint256"
        }
      ],
      "stateMutability": "view",
      "type": "function"
    },
    {
      "inputs": [],
      "name": "impactAppsCount",
      "outputs": [
        {
          "internalType": "uint256",
          "name": "",
          "type": "uint256"
        }
      ],
      "stateMutability": "view",
      "type": "function"
    },
    {
      "inputs": [
        {
          "internalType": "uint256",
          "name": "_impactAppId",
          "type": "uint256"
        }
      ],
      "name": "isImpactAppSustainable",
      "outputs": [
        {
          "internalType": "bool",
          "name": "",
          "type": "bool"
        }
      ],
      "stateMutability": "view",
      "type": "function"
    },
    {
      "inputs": [
        {
          "internalType": "string",
          "name": "_name",
          "type": "string"
        },
        {
          "internalType": "string",
          "name": "_description",
          "type": "string"
        },
        {
          "internalType": "string",
          "name": "_icon",
          "type": "string"
        },
        {
          "internalType": "string",
          "name": "_repositoryUrl",
          "type": "string"
        },
        {
          "internalType": "string",
          "name": "_externalLink",
          "type": "string"
        },
        {
          "internalType": "address[]",
          "name": "_contractAddresses",
          "type": "address[]"
        }
      ],
      "name": "registerImpactApp",
      "outputs": [],
      "stateMutability": "nonpayable",
      "type": "function"
    },
    {
      "inputs": [
        {
          "internalType": "uint256",
          "name": "_impactAppId",
          "type": "uint256"
        },
        {
          "internalType": "enum SintropAppStore.VoteType",
          "name": "_voteType",
          "type": "uint8"
        }
      ],
      "name": "voteForImpactApp",
      "outputs": [],
      "stateMutability": "nonpayable",
      "type": "function"
    }
  ],
  "bytecode": "0x6080604052348015600f57600080fd5b50611fbe8061001f6000396000f3fe608060405234801561001057600080fd5b50600436106100625760003560e01c806306f62d63146100675780633410569214610097578063374a89da146100c75780636d777d87146100e55780637affd62f1461011d578063b2459bb314610139575b600080fd5b610081600480360381019061007c9190611101565b610155565b60405161008e9190611149565b60405180910390f35b6100b160048036038101906100ac91906111c2565b6105bb565b6040516100be9190611279565b60405180910390f35b6100cf6105ea565b6040516100dc91906112a3565b60405180910390f35b6100ff60048036038101906100fa9190611101565b6105f0565b6040516101149998979695949392919061135d565b60405180910390f35b6101376004803603810190610132919061160a565b610906565b005b610153600480360381019061014e9190611764565b610cc0565b005b6000808211801561016857506000548211155b6101a7576040517f08c379a000000000000000000000000000000000000000000000000000000000815260040161019e906117f0565b60405180910390fd5b60006001600084815260200190815260200160002060405180610140016040529081600082015481526020016001820160009054906101000a900473ffffffffffffffffffffffffffffffffffffffff1673ffffffffffffffffffffffffffffffffffffffff1673ffffffffffffffffffffffffffffffffffffffff1681526020016002820180546102389061183f565b80601f01602080910402602001604051908101604052809291908181526020018280546102649061183f565b80156102b15780601f10610286576101008083540402835291602001916102b1565b820191906000526020600020905b81548152906001019060200180831161029457829003601f168201915b505050505081526020016003820180546102ca9061183f565b80601f01602080910402602001604051908101604052809291908181526020018280546102f69061183f565b80156103435780601f1061031857610100808354040283529160200191610343565b820191906000526020600020905b81548152906001019060200180831161032657829003601f168201915b5050505050815260200160048201805461035c9061183f565b80601f01602080910402602001604051908101604052809291908181526020018280546103889061183f565b80156103d55780601f106103aa576101008083540402835291602001916103d5565b820191906000526020600020905b8154815290600101906020018083116103b857829003601f168201915b505050505081526020016005820180546103ee9061183f565b80601f016020809104026020016040519081016040528092919081815260200182805461041a9061183f565b80156104675780601f1061043c57610100808354040283529160200191610467565b820191906000526020600020905b81548152906001019060200180831161044a57829003601f168201915b505050505081526020016006820180546104809061183f565b80601f01602080910402602001604051908101604052809291908181526020018280546104ac9061183f565b80156104f95780601f106104ce576101008083540402835291602001916104f9565b820191906000526020600020905b8154815290600101906020018083116104dc57829003601f168201915b505050505081526020016007820180548060200260200160405190810160405280929190818152602001828054801561058757602002820191906000526020600020905b8160009054906101000a900473ffffffffffffffffffffffffffffffffffffffff1673ffffffffffffffffffffffffffffffffffffffff168152602001906001019080831161053d575b5050505050815260200160088201548152602001600982015481525050905080610120015181610100015111915050919050565b60026020528160005260406000206020528060005260406000206000915091509054906101000a900460ff1681565b60005481565b60016020528060005260406000206000915090508060000154908060010160009054906101000a900473ffffffffffffffffffffffffffffffffffffffff169080600201805461063f9061183f565b80601f016020809104026020016040519081016040528092919081815260200182805461066b9061183f565b80156106b85780601f1061068d576101008083540402835291602001916106b8565b820191906000526020600020905b81548152906001019060200180831161069b57829003601f168201915b5050505050908060030180546106cd9061183f565b80601f01602080910402602001604051908101604052809291908181526020018280546106f99061183f565b80156107465780601f1061071b57610100808354040283529160200191610746565b820191906000526020600020905b81548152906001019060200180831161072957829003601f168201915b50505050509080600401805461075b9061183f565b80601f01602080910402602001604051908101604052809291908181526020018280546107879061183f565b80156107d45780601f106107a9576101008083540402835291602001916107d4565b820191906000526020600020905b8154815290600101906020018083116107b757829003601f168201915b5050505050908060050180546107e99061183f565b80601f01602080910402602001604051908101604052809291908181526020018280546108159061183f565b80156108625780601f1061083757610100808354040283529160200191610862565b820191906000526020600020905b81548152906001019060200180831161084557829003601f168201915b5050505050908060060180546108779061183f565b80601f01602080910402602001604051908101604052809291908181526020018280546108a39061183f565b80156108f05780601f106108c5576101008083540402835291602001916108f0565b820191906000526020600020905b8154815290600101906020018083116108d357829003601f168201915b5050505050908060080154908060090154905089565b6000865111801561091957506064865111155b610958576040517f08c379a000000000000000000000000000000000000000000000000000000000815260040161094f906118e2565b60405180910390fd5b6000855111801561096c57506103e8855111155b6109ab576040517f08c379a00000000000000000000000000000000000000000000000000000000081526004016109a290611974565b60405180910390fd5b600084511180156109be57506096845111155b6109fd576040517f08c379a00000000000000000000000000000000000000000000000000000000081526004016109f490611a06565b60405180910390fd5b60008351118015610a10575060c8835111155b610a4f576040517f08c379a0000000000000000000000000000000000000000000000000000000008152600401610a4690611a98565b60405180910390fd5b60008251118015610a62575060c8825111155b610aa1576040517f08c379a0000000000000000000000000000000000000000000000000000000008152600401610a9890611b2a565b60405180910390fd5b6000815111610ae5576040517f08c379a0000000000000000000000000000000000000000000000000000000008152600401610adc90611bbc565b60405180910390fd5b600080815480929190610af790611c0b565b91905055506000805490506040518061014001604052808281526020013373ffffffffffffffffffffffffffffffffffffffff168152602001888152602001878152602001868152602001858152602001848152602001838152602001600081526020016000815250600160008381526020019081526020016000206000820151816000015560208201518160010160006101000a81548173ffffffffffffffffffffffffffffffffffffffff021916908373ffffffffffffffffffffffffffffffffffffffff1602179055506040820151816002019081610bd99190611dff565b506060820151816003019081610bef9190611dff565b506080820151816004019081610c059190611dff565b5060a0820151816005019081610c1b9190611dff565b5060c0820151816006019081610c319190611dff565b5060e0820151816007019080519060200190610c4e929190611010565b50610100820151816008015561012082015181600901559050503373ffffffffffffffffffffffffffffffffffffffff16817fdab05a4f23d9e99b97842004ee10a727ae8d1b7bae53450627a97856b94596c289604051610caf9190611ed1565b60405180910390a350505050505050565b600082118015610cd257506000548211155b610d11576040517f08c379a0000000000000000000000000000000000000000000000000000000008152600401610d08906117f0565b60405180910390fd5b60016002811115610d2557610d24611202565b5b816002811115610d3857610d37611202565b5b1480610d675750600280811115610d5257610d51611202565b5b816002811115610d6557610d64611202565b5b145b610da6576040517f08c379a0000000000000000000000000000000000000000000000000000000008152600401610d9d90611f3f565b60405180910390fd5b600060016000848152602001908152602001600020905060006002600085815260200190815260200160002060003373ffffffffffffffffffffffffffffffffffffffff1673ffffffffffffffffffffffffffffffffffffffff16815260200190815260200160002060009054906101000a900460ff169050826002811115610e3257610e31611202565b5b816002811115610e4557610e44611202565b5b1461100a5760016002811115610e5e57610e5d611202565b5b816002811115610e7157610e70611202565b5b03610e9557816008016000815480929190610e8b90611f5f565b9190505550610edc565b600280811115610ea857610ea7611202565b5b816002811115610ebb57610eba611202565b5b03610edb57816009016000815480929190610ed590611f5f565b91905055505b5b60016002811115610ef057610eef611202565b5b836002811115610f0357610f02611202565b5b03610f2757816008016000815480929190610f1d90611c0b565b9190505550610f42565b816009016000815480929190610f3c90611c0b565b91905055505b826002600086815260200190815260200160002060003373ffffffffffffffffffffffffffffffffffffffff1673ffffffffffffffffffffffffffffffffffffffff16815260200190815260200160002060006101000a81548160ff02191690836002811115610fb557610fb4611202565b5b02179055503373ffffffffffffffffffffffffffffffffffffffff16847fbf8ddb7a80268b8d791fd803afbe83a3c5c0bf4c384c80ba18c273012e864041856040516110019190611279565b60405180910390a35b50505050565b828054828255906000526020600020908101928215611089579160200282015b828111156110885782518260006101000a81548173ffffffffffffffffffffffffffffffffffffffff021916908373ffffffffffffffffffffffffffffffffffffffff16021790555091602001919060010190611030565b5b509050611096919061109a565b5090565b5b808211156110b357600081600090555060010161109b565b5090565b6000604051905090565b600080fd5b600080fd5b6000819050919050565b6110de816110cb565b81146110e957600080fd5b50565b6000813590506110fb816110d5565b92915050565b600060208284031215611117576111166110c1565b5b6000611125848285016110ec565b91505092915050565b60008115159050919050565b6111438161112e565b82525050565b600060208201905061115e600083018461113a565b92915050565b600073ffffffffffffffffffffffffffffffffffffffff82169050919050565b600061118f82611164565b9050919050565b61119f81611184565b81146111aa57600080fd5b50565b6000813590506111bc81611196565b92915050565b600080604083850312156111d9576111d86110c1565b5b60006111e7858286016110ec565b92505060206111f8858286016111ad565b9150509250929050565b7f4e487b7100000000000000000000000000000000000000000000000000000000600052602160045260246000fd5b6003811061124257611241611202565b5b50565b600081905061125382611231565b919050565b600061126382611245565b9050919050565b61127381611258565b82525050565b600060208201905061128e600083018461126a565b92915050565b61129d816110cb565b82525050565b60006020820190506112b86000830184611294565b92915050565b6112c781611184565b82525050565b600081519050919050565b600082825260208201905092915050565b60005b838110156113075780820151818401526020810190506112ec565b60008484015250505050565b6000601f19601f8301169050919050565b600061132f826112cd565b61133981856112d8565b93506113498185602086016112e9565b61135281611313565b840191505092915050565b600061012082019050611373600083018c611294565b611380602083018b6112be565b8181036040830152611392818a611324565b905081810360608301526113a68189611324565b905081810360808301526113ba8188611324565b905081810360a08301526113ce8187611324565b905081810360c08301526113e28186611324565b90506113f160e0830185611294565b6113ff610100830184611294565b9a9950505050505050505050565b600080fd5b600080fd5b7f4e487b7100000000000000000000000000000000000000000000000000000000600052604160045260246000fd5b61144f82611313565b810181811067ffffffffffffffff8211171561146e5761146d611417565b5b80604052505050565b60006114816110b7565b905061148d8282611446565b919050565b600067ffffffffffffffff8211156114ad576114ac611417565b5b6114b682611313565b9050602081019050919050565b82818337600083830152505050565b60006114e56114e084611492565b611477565b90508281526020810184848401111561150157611500611412565b5b61150c8482856114c3565b509392505050565b600082601f8301126115295761152861140d565b5b81356115398482602086016114d2565b91505092915050565b600067ffffffffffffffff82111561155d5761155c611417565b5b602082029050602081019050919050565b600080fd5b600061158661158184611542565b611477565b905080838252602082019050602084028301858111156115a9576115a861156e565b5b835b818110156115d257806115be88826111ad565b8452602084019350506020810190506115ab565b5050509392505050565b600082601f8301126115f1576115f061140d565b5b8135611601848260208601611573565b91505092915050565b60008060008060008060c08789031215611627576116266110c1565b5b600087013567ffffffffffffffff811115611645576116446110c6565b5b61165189828a01611514565b965050602087013567ffffffffffffffff811115611672576116716110c6565b5b61167e89828a01611514565b955050604087013567ffffffffffffffff81111561169f5761169e6110c6565b5b6116ab89828a01611514565b945050606087013567ffffffffffffffff8111156116cc576116cb6110c6565b5b6116d889828a01611514565b935050608087013567ffffffffffffffff8111156116f9576116f86110c6565b5b61170589828a01611514565b92505060a087013567ffffffffffffffff811115611726576117256110c6565b5b61173289828a016115dc565b9150509295509295509295565b6003811061174c57600080fd5b50565b60008135905061175e8161173f565b92915050565b6000806040838503121561177b5761177a6110c1565b5b6000611789858286016110ec565b925050602061179a8582860161174f565b9150509250929050565b7f496e76616c696420496d706163744170702049442e0000000000000000000000600082015250565b60006117da6015836112d8565b91506117e5826117a4565b602082019050919050565b60006020820190508181036000830152611809816117cd565b9050919050565b7f4e487b7100000000000000000000000000000000000000000000000000000000600052602260045260246000fd5b6000600282049050600182168061185757607f821691505b60208210810361186a57611869611810565b5b50919050565b7f4e616d65206d757374206265206265747765656e203120616e6420313030206360008201527f6861726163746572732e00000000000000000000000000000000000000000000602082015250565b60006118cc602a836112d8565b91506118d782611870565b604082019050919050565b600060208201905081810360008301526118fb816118bf565b9050919050565b7f4465736372697074696f6e206d757374206265206265747765656e203120616e60008201527f64203130303020636861726163746572732e0000000000000000000000000000602082015250565b600061195e6032836112d8565b915061196982611902565b604082019050919050565b6000602082019050818103600083015261198d81611951565b9050919050565b7f49636f6e206d757374206265206265747765656e203120616e6420313530206360008201527f6861726163746572732e00000000000000000000000000000000000000000000602082015250565b60006119f0602a836112d8565b91506119fb82611994565b604082019050919050565b60006020820190508181036000830152611a1f816119e3565b9050919050565b7f5265706f7369746f72792055524c206d757374206265206265747765656e203160008201527f20616e642032303020636861726163746572732e000000000000000000000000602082015250565b6000611a826034836112d8565b9150611a8d82611a26565b604082019050919050565b60006020820190508181036000830152611ab181611a75565b9050919050565b7f45787465726e616c206c696e6b206d757374206265206265747765656e20312060008201527f616e642032303020636861726163746572732e00000000000000000000000000602082015250565b6000611b146033836112d8565b9150611b1f82611ab8565b604082019050919050565b60006020820190508181036000830152611b4381611b07565b9050919050565b7f4d75737420696e636c756465206174206c65617374206f6e6520636f6e74726160008201527f637420616464726573732e000000000000000000000000000000000000000000602082015250565b6000611ba6602b836112d8565b9150611bb182611b4a565b604082019050919050565b60006020820190508181036000830152611bd581611b99565b9050919050565b7f4e487b7100000000000000000000000000000000000000000000000000000000600052601160045260246000fd5b6000611c16826110cb565b91507fffffffffffffffffffffffffffffffffffffffffffffffffffffffffffffffff8203611c4857611c47611bdc565b5b600182019050919050565b60008190508160005260206000209050919050565b60006020601f8301049050919050565b600082821b905092915050565b600060088302611cb57fffffffffffffffffffffffffffffffffffffffffffffffffffffffffffffffff82611c78565b611cbf8683611c78565b95508019841693508086168417925050509392505050565b6000819050919050565b6000611cfc611cf7611cf2846110cb565b611cd7565b6110cb565b9050919050565b6000819050919050565b611d1683611ce1565b611d2a611d2282611d03565b848454611c85565b825550505050565b600090565b611d3f611d32565b611d4a818484611d0d565b505050565b5b81811015611d6e57611d63600082611d37565b600181019050611d50565b5050565b601f821115611db357611d8481611c53565b611d8d84611c68565b81016020851015611d9c578190505b611db0611da885611c68565b830182611d4f565b50505b505050565b600082821c905092915050565b6000611dd660001984600802611db8565b1980831691505092915050565b6000611def8383611dc5565b9150826002028217905092915050565b611e08826112cd565b67ffffffffffffffff811115611e2157611e20611417565b5b611e2b825461183f565b611e36828285611d72565b600060209050601f831160018114611e695760008415611e57578287015190505b611e618582611de3565b865550611ec9565b601f198416611e7786611c53565b60005b82811015611e9f57848901518255600182019150602085019450602081019050611e7a565b86831015611ebc5784890151611eb8601f891682611dc5565b8355505b6001600288020188555050505b505050505050565b60006020820190508181036000830152611eeb8184611324565b905092915050565b7f496e76616c696420766f746520747970652e0000000000000000000000000000600082015250565b6000611f296012836112d8565b9150611f3482611ef3565b602082019050919050565b60006020820190508181036000830152611f5881611f1c565b9050919050565b6000611f6a826110cb565b915060008203611f7d57611f7c611bdc565b5b60018203905091905056fea264697066735822122039f91529b3e1394ab9066e277814e58a2ce8254759c30173366e1a76a21b982e64736f6c634300081b0033",
  "linkReferences": {},
  "deployedLinkReferences": {}
}