{
  "_format": "hh-sol-artifact-1",
  "contractName": "SintropAppStore",
  "sourceName": "contracts/SintropAppStore.sol",
  "abi": [
    {
      "anonymous": false,
      "inputs": [
        {
          "indexed": true,
          "internalType": "uint256",
          "name": "impactAppId",
          "type": "uint256"
        },
        {
          "indexed": false,
          "internalType": "string",
          "name": "name",
          "type": "string"
        },
        {
          "indexed": true,
          "internalType": "address",
          "name": "publisher",
          "type": "address"
        }
      ],
      "name": "ImpactAppRegistered",
      "type": "event"
    },
    {
      "anonymous": false,
      "inputs": [
        {
          "indexed": true,
          "internalType": "uint256",
          "name": "impactAppId",
          "type": "uint256"
        },
        {
          "indexed": true,
          "internalType": "address",
          "name": "voter",
          "type": "address"
        },
        {
          "indexed": false,
          "internalType": "enum SintropAppStore.VoteType",
          "name": "voteType",
          "type": "uint8"
        }
      ],
      "name": "ImpactAppVoted",
      "type": "event"
    },
    {
      "inputs": [
        {
          "internalType": "uint256",
          "name": "_impactAppId",
          "type": "uint256"
        }
      ],
      "name": "getImpactApp",
      "outputs": [
        {
          "components": [
            {
              "internalType": "uint256",
              "name": "id",
              "type": "uint256"
            },
            {
              "internalType": "address",
              "name": "publisher",
              "type": "address"
            },
            {
              "internalType": "string",
              "name": "name",
              "type": "string"
            },
            {
              "internalType": "string",
              "name": "description",
              "type": "string"
            },
            {
              "internalType": "string",
              "name": "icon",
              "type": "string"
            },
            {
              "internalType": "string",
              "name": "repositoryUrl",
              "type": "string"
            },
            {
              "internalType": "string",
              "name": "externalLink",
              "type": "string"
            },
            {
              "internalType": "address[]",
              "name": "contractAddresses",
              "type": "address[]"
            },
            {
              "internalType": "uint256",
              "name": "positiveVotes",
              "type": "uint256"
            },
            {
              "internalType": "uint256",
              "name": "negativeVotes",
              "type": "uint256"
            }
          ],
          "internalType": "struct SintropAppStore.ImpactApp",
          "name": "",
          "type": "tuple"
        }
      ],
      "stateMutability": "view",
      "type": "function"
    },
    {
      "inputs": [
        {
          "internalType": "uint256",
          "name": "",
          "type": "uint256"
        },
        {
          "internalType": "address",
          "name": "",
          "type": "address"
        }
      ],
      "name": "impactAppVotes",
      "outputs": [
        {
          "internalType": "enum SintropAppStore.VoteType",
          "name": "",
          "type": "uint8"
        }
      ],
      "stateMutability": "view",
      "type": "function"
    },
    {
      "inputs": [],
      "name": "impactAppsCount",
      "outputs": [
        {
          "internalType": "uint256",
          "name": "",
          "type": "uint256"
        }
      ],
      "stateMutability": "view",
      "type": "function"
    },
    {
      "inputs": [
        {
          "internalType": "uint256",
          "name": "_impactAppId",
          "type": "uint256"
        }
      ],
      "name": "isImpactAppSustainable",
      "outputs": [
        {
          "internalType": "bool",
          "name": "",
          "type": "bool"
        }
      ],
      "stateMutability": "view",
      "type": "function"
    },
    {
      "inputs": [
        {
          "internalType": "string",
          "name": "_name",
          "type": "string"
        },
        {
          "internalType": "string",
          "name": "_description",
          "type": "string"
        },
        {
          "internalType": "string",
          "name": "_icon",
          "type": "string"
        },
        {
          "internalType": "string",
          "name": "_repositoryUrl",
          "type": "string"
        },
        {
          "internalType": "string",
          "name": "_externalLink",
          "type": "string"
        },
        {
          "internalType": "address[]",
          "name": "_contractAddresses",
          "type": "address[]"
        }
      ],
      "name": "registerImpactApp",
      "outputs": [],
      "stateMutability": "nonpayable",
      "type": "function"
    },
    {
      "inputs": [
        {
          "internalType": "uint256",
          "name": "_impactAppId",
          "type": "uint256"
        },
        {
          "internalType": "enum SintropAppStore.VoteType",
          "name": "_voteType",
          "type": "uint8"
        }
      ],
      "name": "voteForImpactApp",
      "outputs": [],
      "stateMutability": "nonpayable",
      "type": "function"
    }
  ],
  "bytecode": "0x6080604052348015600f57600080fd5b506123478061001f6000396000f3fe608060405234801561001057600080fd5b50600436106100625760003560e01c806306f62d63146100675780633410569214610097578063374a89da146100c75780637affd62f146100e5578063839f976c14610101578063b2459bb314610131575b600080fd5b610081600480360381019061007c91906112a7565b61014d565b60405161008e91906112ef565b60405180910390f35b6100b160048036038101906100ac9190611368565b6105b3565b6040516100be919061141f565b60405180910390f35b6100cf6105e2565b6040516100dc9190611449565b60405180910390f35b6100ff60048036038101906100fa9190611672565b6105e8565b005b61011b600480360381019061011691906112a7565b6109a2565b60405161012891906119f0565b60405180910390f35b61014b60048036038101906101469190611a37565b610dfd565b005b6000808211801561016057506000548211155b61019f576040517f08c379a000000000000000000000000000000000000000000000000000000000815260040161019690611ad4565b60405180910390fd5b60006001600084815260200190815260200160002060405180610140016040529081600082015481526020016001820160009054906101000a900473ffffffffffffffffffffffffffffffffffffffff1673ffffffffffffffffffffffffffffffffffffffff1673ffffffffffffffffffffffffffffffffffffffff16815260200160028201805461023090611b23565b80601f016020809104026020016040519081016040528092919081815260200182805461025c90611b23565b80156102a95780601f1061027e576101008083540402835291602001916102a9565b820191906000526020600020905b81548152906001019060200180831161028c57829003601f168201915b505050505081526020016003820180546102c290611b23565b80601f01602080910402602001604051908101604052809291908181526020018280546102ee90611b23565b801561033b5780601f106103105761010080835404028352916020019161033b565b820191906000526020600020905b81548152906001019060200180831161031e57829003601f168201915b5050505050815260200160048201805461035490611b23565b80601f016020809104026020016040519081016040528092919081815260200182805461038090611b23565b80156103cd5780601f106103a2576101008083540402835291602001916103cd565b820191906000526020600020905b8154815290600101906020018083116103b057829003601f168201915b505050505081526020016005820180546103e690611b23565b80601f016020809104026020016040519081016040528092919081815260200182805461041290611b23565b801561045f5780601f106104345761010080835404028352916020019161045f565b820191906000526020600020905b81548152906001019060200180831161044257829003601f168201915b5050505050815260200160068201805461047890611b23565b80601f01602080910402602001604051908101604052809291908181526020018280546104a490611b23565b80156104f15780601f106104c6576101008083540402835291602001916104f1565b820191906000526020600020905b8154815290600101906020018083116104d457829003601f168201915b505050505081526020016007820180548060200260200160405190810160405280929190818152602001828054801561057f57602002820191906000526020600020905b8160009054906101000a900473ffffffffffffffffffffffffffffffffffffffff1673ffffffffffffffffffffffffffffffffffffffff1681526020019060010190808311610535575b5050505050815260200160088201548152602001600982015481525050905080610120015181610100015111915050919050565b60026020528160005260406000206020528060005260406000206000915091509054906101000a900460ff1681565b60005481565b600086511180156105fb57506064865111155b61063a576040517f08c379a000000000000000000000000000000000000000000000000000000000815260040161063190611bc6565b60405180910390fd5b6000855111801561064e57506103e8855111155b61068d576040517f08c379a000000000000000000000000000000000000000000000000000000000815260040161068490611c58565b60405180910390fd5b600084511180156106a057506096845111155b6106df576040517f08c379a00000000000000000000000000000000000000000000000000000000081526004016106d690611cea565b60405180910390fd5b600083511180156106f2575060c8835111155b610731576040517f08c379a000000000000000000000000000000000000000000000000000000000815260040161072890611d7c565b60405180910390fd5b60008251118015610744575060c8825111155b610783576040517f08c379a000000000000000000000000000000000000000000000000000000000815260040161077a90611e0e565b60405180910390fd5b60008151116107c7576040517f08c379a00000000000000000000000000000000000000000000000000000000081526004016107be90611ea0565b60405180910390fd5b6000808154809291906107d990611eef565b91905055506000805490506040518061014001604052808281526020013373ffffffffffffffffffffffffffffffffffffffff168152602001888152602001878152602001868152602001858152602001848152602001838152602001600081526020016000815250600160008381526020019081526020016000206000820151816000015560208201518160010160006101000a81548173ffffffffffffffffffffffffffffffffffffffff021916908373ffffffffffffffffffffffffffffffffffffffff16021790555060408201518160020190816108bb91906120e3565b5060608201518160030190816108d191906120e3565b5060808201518160040190816108e791906120e3565b5060a08201518160050190816108fd91906120e3565b5060c082015181600601908161091391906120e3565b5060e082015181600701908051906020019061093092919061114d565b50610100820151816008015561012082015181600901559050503373ffffffffffffffffffffffffffffffffffffffff16817fdab05a4f23d9e99b97842004ee10a727ae8d1b7bae53450627a97856b94596c28960405161099191906121ee565b60405180910390a350505050505050565b6109aa6111d7565b6000821180156109bc57506000548211155b6109fb576040517f08c379a00000000000000000000000000000000000000000000000000000000081526004016109f29061225c565b60405180910390fd5b6001600083815260200190815260200160002060405180610140016040529081600082015481526020016001820160009054906101000a900473ffffffffffffffffffffffffffffffffffffffff1673ffffffffffffffffffffffffffffffffffffffff1673ffffffffffffffffffffffffffffffffffffffff168152602001600282018054610a8a90611b23565b80601f0160208091040260200160405190810160405280929190818152602001828054610ab690611b23565b8015610b035780601f10610ad857610100808354040283529160200191610b03565b820191906000526020600020905b815481529060010190602001808311610ae657829003601f168201915b50505050508152602001600382018054610b1c90611b23565b80601f0160208091040260200160405190810160405280929190818152602001828054610b4890611b23565b8015610b955780601f10610b6a57610100808354040283529160200191610b95565b820191906000526020600020905b815481529060010190602001808311610b7857829003601f168201915b50505050508152602001600482018054610bae90611b23565b80601f0160208091040260200160405190810160405280929190818152602001828054610bda90611b23565b8015610c275780601f10610bfc57610100808354040283529160200191610c27565b820191906000526020600020905b815481529060010190602001808311610c0a57829003601f168201915b50505050508152602001600582018054610c4090611b23565b80601f0160208091040260200160405190810160405280929190818152602001828054610c6c90611b23565b8015610cb95780601f10610c8e57610100808354040283529160200191610cb9565b820191906000526020600020905b815481529060010190602001808311610c9c57829003601f168201915b50505050508152602001600682018054610cd290611b23565b80601f0160208091040260200160405190810160405280929190818152602001828054610cfe90611b23565b8015610d4b5780601f10610d2057610100808354040283529160200191610d4b565b820191906000526020600020905b815481529060010190602001808311610d2e57829003601f168201915b5050505050815260200160078201805480602002602001604051908101604052809291908181526020018280548015610dd957602002820191906000526020600020905b8160009054906101000a900473ffffffffffffffffffffffffffffffffffffffff1673ffffffffffffffffffffffffffffffffffffffff1681526020019060010190808311610d8f575b50505050508152602001600882015481526020016009820154815250509050919050565b600082118015610e0f57506000548211155b610e4e576040517f08c379a0000000000000000000000000000000000000000000000000000000008152600401610e4590611ad4565b60405180910390fd5b60016002811115610e6257610e616113a8565b5b816002811115610e7557610e746113a8565b5b1480610ea45750600280811115610e8f57610e8e6113a8565b5b816002811115610ea257610ea16113a8565b5b145b610ee3576040517f08c379a0000000000000000000000000000000000000000000000000000000008152600401610eda906122c8565b60405180910390fd5b600060016000848152602001908152602001600020905060006002600085815260200190815260200160002060003373ffffffffffffffffffffffffffffffffffffffff1673ffffffffffffffffffffffffffffffffffffffff16815260200190815260200160002060009054906101000a900460ff169050826002811115610f6f57610f6e6113a8565b5b816002811115610f8257610f816113a8565b5b146111475760016002811115610f9b57610f9a6113a8565b5b816002811115610fae57610fad6113a8565b5b03610fd257816008016000815480929190610fc8906122e8565b9190505550611019565b600280811115610fe557610fe46113a8565b5b816002811115610ff857610ff76113a8565b5b0361101857816009016000815480929190611012906122e8565b91905055505b5b6001600281111561102d5761102c6113a8565b5b8360028111156110405761103f6113a8565b5b036110645781600801600081548092919061105a90611eef565b919050555061107f565b81600901600081548092919061107990611eef565b91905055505b826002600086815260200190815260200160002060003373ffffffffffffffffffffffffffffffffffffffff1673ffffffffffffffffffffffffffffffffffffffff16815260200190815260200160002060006101000a81548160ff021916908360028111156110f2576110f16113a8565b5b02179055503373ffffffffffffffffffffffffffffffffffffffff16847fbf8ddb7a80268b8d791fd803afbe83a3c5c0bf4c384c80ba18c273012e8640418560405161113e919061141f565b60405180910390a35b50505050565b8280548282559060005260206000209081019282156111c6579160200282015b828111156111c55782518260006101000a81548173ffffffffffffffffffffffffffffffffffffffff021916908373ffffffffffffffffffffffffffffffffffffffff1602179055509160200191906001019061116d565b5b5090506111d39190611240565b5090565b60405180610140016040528060008152602001600073ffffffffffffffffffffffffffffffffffffffff16815260200160608152602001606081526020016060815260200160608152602001606081526020016060815260200160008152602001600081525090565b5b80821115611259576000816000905550600101611241565b5090565b6000604051905090565b600080fd5b600080fd5b6000819050919050565b61128481611271565b811461128f57600080fd5b50565b6000813590506112a18161127b565b92915050565b6000602082840312156112bd576112bc611267565b5b60006112cb84828501611292565b91505092915050565b60008115159050919050565b6112e9816112d4565b82525050565b600060208201905061130460008301846112e0565b92915050565b600073ffffffffffffffffffffffffffffffffffffffff82169050919050565b60006113358261130a565b9050919050565b6113458161132a565b811461135057600080fd5b50565b6000813590506113628161133c565b92915050565b6000806040838503121561137f5761137e611267565b5b600061138d85828601611292565b925050602061139e85828601611353565b9150509250929050565b7f4e487b7100000000000000000000000000000000000000000000000000000000600052602160045260246000fd5b600381106113e8576113e76113a8565b5b50565b60008190506113f9826113d7565b919050565b6000611409826113eb565b9050919050565b611419816113fe565b82525050565b60006020820190506114346000830184611410565b92915050565b61144381611271565b82525050565b600060208201905061145e600083018461143a565b92915050565b600080fd5b600080fd5b6000601f19601f8301169050919050565b7f4e487b7100000000000000000000000000000000000000000000000000000000600052604160045260246000fd5b6114b78261146e565b810181811067ffffffffffffffff821117156114d6576114d561147f565b5b80604052505050565b60006114e961125d565b90506114f582826114ae565b919050565b600067ffffffffffffffff8211156115155761151461147f565b5b61151e8261146e565b9050602081019050919050565b82818337600083830152505050565b600061154d611548846114fa565b6114df565b90508281526020810184848401111561156957611568611469565b5b61157484828561152b565b509392505050565b600082601f83011261159157611590611464565b5b81356115a184826020860161153a565b91505092915050565b600067ffffffffffffffff8211156115c5576115c461147f565b5b602082029050602081019050919050565b600080fd5b60006115ee6115e9846115aa565b6114df565b90508083825260208201905060208402830185811115611611576116106115d6565b5b835b8181101561163a57806116268882611353565b845260208401935050602081019050611613565b5050509392505050565b600082601f83011261165957611658611464565b5b81356116698482602086016115db565b91505092915050565b60008060008060008060c0878903121561168f5761168e611267565b5b600087013567ffffffffffffffff8111156116ad576116ac61126c565b5b6116b989828a0161157c565b965050602087013567ffffffffffffffff8111156116da576116d961126c565b5b6116e689828a0161157c565b955050604087013567ffffffffffffffff8111156117075761170661126c565b5b61171389828a0161157c565b945050606087013567ffffffffffffffff8111156117345761173361126c565b5b61174089828a0161157c565b935050608087013567ffffffffffffffff8111156117615761176061126c565b5b61176d89828a0161157c565b92505060a087013567ffffffffffffffff81111561178e5761178d61126c565b5b61179a89828a01611644565b9150509295509295509295565b6117b081611271565b82525050565b6117bf8161132a565b82525050565b600081519050919050565b600082825260208201905092915050565b60005b838110156117ff5780820151818401526020810190506117e4565b60008484015250505050565b6000611816826117c5565b61182081856117d0565b93506118308185602086016117e1565b6118398161146e565b840191505092915050565b600081519050919050565b600082825260208201905092915050565b6000819050602082019050919050565b600061187c83836117b6565b60208301905092915050565b6000602082019050919050565b60006118a082611844565b6118aa818561184f565b93506118b583611860565b8060005b838110156118e65781516118cd8882611870565b97506118d883611888565b9250506001810190506118b9565b5085935050505092915050565b60006101408301600083015161190c60008601826117a7565b50602083015161191f60208601826117b6565b5060408301518482036040860152611937828261180b565b91505060608301518482036060860152611951828261180b565b9150506080830151848203608086015261196b828261180b565b91505060a083015184820360a0860152611985828261180b565b91505060c083015184820360c086015261199f828261180b565b91505060e083015184820360e08601526119b98282611895565b9150506101008301516119d06101008601826117a7565b506101208301516119e56101208601826117a7565b508091505092915050565b60006020820190508181036000830152611a0a81846118f3565b905092915050565b60038110611a1f57600080fd5b50565b600081359050611a3181611a12565b92915050565b60008060408385031215611a4e57611a4d611267565b5b6000611a5c85828601611292565b9250506020611a6d85828601611a22565b9150509250929050565b600082825260208201905092915050565b7f496e76616c696420496d706163744170702049442e0000000000000000000000600082015250565b6000611abe601583611a77565b9150611ac982611a88565b602082019050919050565b60006020820190508181036000830152611aed81611ab1565b9050919050565b7f4e487b7100000000000000000000000000000000000000000000000000000000600052602260045260246000fd5b60006002820490506001821680611b3b57607f821691505b602082108103611b4e57611b4d611af4565b5b50919050565b7f4e616d65206d757374206265206265747765656e203120616e6420313030206360008201527f6861726163746572732e00000000000000000000000000000000000000000000602082015250565b6000611bb0602a83611a77565b9150611bbb82611b54565b604082019050919050565b60006020820190508181036000830152611bdf81611ba3565b9050919050565b7f4465736372697074696f6e206d757374206265206265747765656e203120616e60008201527f64203130303020636861726163746572732e0000000000000000000000000000602082015250565b6000611c42603283611a77565b9150611c4d82611be6565b604082019050919050565b60006020820190508181036000830152611c7181611c35565b9050919050565b7f49636f6e206d757374206265206265747765656e203120616e6420313530206360008201527f6861726163746572732e00000000000000000000000000000000000000000000602082015250565b6000611cd4602a83611a77565b9150611cdf82611c78565b604082019050919050565b60006020820190508181036000830152611d0381611cc7565b9050919050565b7f5265706f7369746f72792055524c206d757374206265206265747765656e203160008201527f20616e642032303020636861726163746572732e000000000000000000000000602082015250565b6000611d66603483611a77565b9150611d7182611d0a565b604082019050919050565b60006020820190508181036000830152611d9581611d59565b9050919050565b7f45787465726e616c206c696e6b206d757374206265206265747765656e20312060008201527f616e642032303020636861726163746572732e00000000000000000000000000602082015250565b6000611df8603383611a77565b9150611e0382611d9c565b604082019050919050565b60006020820190508181036000830152611e2781611deb565b9050919050565b7f4d75737420696e636c756465206174206c65617374206f6e6520636f6e74726160008201527f637420616464726573732e000000000000000000000000000000000000000000602082015250565b6000611e8a602b83611a77565b9150611e9582611e2e565b604082019050919050565b60006020820190508181036000830152611eb981611e7d565b9050919050565b7f4e487b7100000000000000000000000000000000000000000000000000000000600052601160045260246000fd5b6000611efa82611271565b91507fffffffffffffffffffffffffffffffffffffffffffffffffffffffffffffffff8203611f2c57611f2b611ec0565b5b600182019050919050565b60008190508160005260206000209050919050565b60006020601f8301049050919050565b600082821b905092915050565b600060088302611f997fffffffffffffffffffffffffffffffffffffffffffffffffffffffffffffffff82611f5c565b611fa38683611f5c565b95508019841693508086168417925050509392505050565b6000819050919050565b6000611fe0611fdb611fd684611271565b611fbb565b611271565b9050919050565b6000819050919050565b611ffa83611fc5565b61200e61200682611fe7565b848454611f69565b825550505050565b600090565b612023612016565b61202e818484611ff1565b505050565b5b818110156120525761204760008261201b565b600181019050612034565b5050565b601f8211156120975761206881611f37565b61207184611f4c565b81016020851015612080578190505b61209461208c85611f4c565b830182612033565b50505b505050565b600082821c905092915050565b60006120ba6000198460080261209c565b1980831691505092915050565b60006120d383836120a9565b9150826002028217905092915050565b6120ec826117c5565b67ffffffffffffffff8111156121055761210461147f565b5b61210f8254611b23565b61211a828285612056565b600060209050601f83116001811461214d576000841561213b578287015190505b61214585826120c7565b8655506121ad565b601f19841661215b86611f37565b60005b828110156121835784890151825560018201915060208501945060208101905061215e565b868310156121a0578489015161219c601f8916826120a9565b8355505b6001600288020188555050505b505050505050565b60006121c0826117c5565b6121ca8185611a77565b93506121da8185602086016117e1565b6121e38161146e565b840191505092915050565b6000602082019050818103600083015261220881846121b5565b905092915050565b7f496e76616c696420496d70616374417070204944000000000000000000000000600082015250565b6000612246601483611a77565b915061225182612210565b602082019050919050565b6000602082019050818103600083015261227581612239565b9050919050565b7f496e76616c696420766f746520747970652e0000000000000000000000000000600082015250565b60006122b2601283611a77565b91506122bd8261227c565b602082019050919050565b600060208201905081810360008301526122e1816122a5565b9050919050565b60006122f382611271565b91506000820361230657612305611ec0565b5b60018203905091905056fea264697066735822122031afcc6416d1944a436c7ce84551bdac2a8cd8747e77a0406496af7f8b2e694064736f6c634300081b0033",
  "linkReferences": {},
  "deployedLinkReferences": {}
}