{
  "_format": "hh-sol-artifact-1",
  "contractName": "GlobalPlantCatalog",
  "sourceName": "contracts/GlobalPlantCatalog.sol",
  "abi": [
    {
      "anonymous": false,
      "inputs": [
        {
          "indexed": true,
          "internalType": "uint256",
          "name": "plantId",
          "type": "uint256"
        },
        {
          "indexed": true,
          "internalType": "address",
          "name": "creator",
          "type": "address"
        },
        {
          "indexed": false,
          "internalType": "string",
          "name": "popularName",
          "type": "string"
        },
        {
          "indexed": false,
          "internalType": "string",
          "name": "scientificName",
          "type": "string"
        },
        {
          "indexed": false,
          "internalType": "uint256",
          "name": "createdAt",
          "type": "uint256"
        }
      ],
      "name": "PlantAdded",
      "type": "event"
    },
    {
      "inputs": [
        {
          "internalType": "string",
          "name": "_popularName",
          "type": "string"
        },
        {
          "internalType": "string",
          "name": "_scientificName",
          "type": "string"
        },
        {
          "internalType": "string",
          "name": "_taxonomy",
          "type": "string"
        },
        {
          "internalType": "string",
          "name": "_description",
          "type": "string"
        },
        {
          "internalType": "string[]",
          "name": "_photoHashes",
          "type": "string[]"
        }
      ],
      "name": "addPlant",
      "outputs": [],
      "stateMutability": "nonpayable",
      "type": "function"
    },
    {
      "inputs": [
        {
          "internalType": "address",
          "name": "",
          "type": "address"
        },
        {
          "internalType": "uint256",
          "name": "",
          "type": "uint256"
        }
      ],
      "name": "creatorPlants",
      "outputs": [
        {
          "internalType": "uint256",
          "name": "",
          "type": "uint256"
        }
      ],
      "stateMutability": "view",
      "type": "function"
    },
    {
      "inputs": [],
      "name": "getAllPlantIds",
      "outputs": [
        {
          "internalType": "uint256[]",
          "name": "",
          "type": "uint256[]"
        }
      ],
      "stateMutability": "view",
      "type": "function"
    },
    {
      "inputs": [
        {
          "internalType": "uint256",
          "name": "_plantId",
          "type": "uint256"
        }
      ],
      "name": "getPlant",
      "outputs": [
        {
          "components": [
            {
              "internalType": "uint256",
              "name": "id",
              "type": "uint256"
            },
            {
              "internalType": "string",
              "name": "popularName",
              "type": "string"
            },
            {
              "internalType": "string",
              "name": "scientificName",
              "type": "string"
            },
            {
              "internalType": "string",
              "name": "taxonomy",
              "type": "string"
            },
            {
              "internalType": "string",
              "name": "description",
              "type": "string"
            },
            {
              "internalType": "string[]",
              "name": "photoHashes",
              "type": "string[]"
            },
            {
              "internalType": "address",
              "name": "creator",
              "type": "address"
            },
            {
              "internalType": "uint256",
              "name": "createdAt",
              "type": "uint256"
            }
          ],
          "internalType": "struct GlobalPlantCatalog.Plant",
          "name": "",
          "type": "tuple"
        }
      ],
      "stateMutability": "view",
      "type": "function"
    },
    {
      "inputs": [
        {
          "internalType": "address",
          "name": "_creator",
          "type": "address"
        }
      ],
      "name": "getPlantsByCreator",
      "outputs": [
        {
          "internalType": "uint256[]",
          "name": "",
          "type": "uint256[]"
        }
      ],
      "stateMutability": "view",
      "type": "function"
    },
    {
      "inputs": [],
      "name": "getTotalPlantsCount",
      "outputs": [
        {
          "internalType": "uint256",
          "name": "",
          "type": "uint256"
        }
      ],
      "stateMutability": "view",
      "type": "function"
    },
    {
      "inputs": [],
      "name": "nextPlantId",
      "outputs": [
        {
          "internalType": "uint256",
          "name": "",
          "type": "uint256"
        }
      ],
      "stateMutability": "view",
      "type": "function"
    },
    {
      "inputs": [
        {
          "internalType": "uint256",
          "name": "",
          "type": "uint256"
        }
      ],
      "name": "plants",
      "outputs": [
        {
          "internalType": "uint256",
          "name": "id",
          "type": "uint256"
        },
        {
          "internalType": "string",
          "name": "popularName",
          "type": "string"
        },
        {
          "internalType": "string",
          "name": "scientificName",
          "type": "string"
        },
        {
          "internalType": "string",
          "name": "taxonomy",
          "type": "string"
        },
        {
          "internalType": "string",
          "name": "description",
          "type": "string"
        },
        {
          "internalType": "address",
          "name": "creator",
          "type": "address"
        },
        {
          "internalType": "uint256",
          "name": "createdAt",
          "type": "uint256"
        }
      ],
      "stateMutability": "view",
      "type": "function"
    }
  ],
  "bytecode": "0x6080604052348015600f57600080fd5b50611a5a8061001f6000396000f3fe608060405234801561001057600080fd5b50600436106100885760003560e01c80638dd2361c1161005b5780638dd2361c146101175780639f6b484d1461014d578063ed0b1f5f1461017d578063f90248be146101ad57610088565b80631d21d7a41461008d57806326e5807d146100ab578063558dfe2b146100c95780635daf30a7146100f9575b600080fd5b6100956101c9565b6040516100a29190610d22565b60405180910390f35b6100b36101d3565b6040516100c09190610dfb565b60405180910390f35b6100e360048036038101906100de9190610ebb565b610266565b6040516100f09190610d22565b60405180910390f35b610101610297565b60405161010e9190610d22565b60405180910390f35b610131600480360381019061012c9190610efb565b61029d565b6040516101449796959493929190610fc7565b60405180910390f35b61016760048036038101906101629190611052565b61051f565b6040516101749190610dfb565b60405180910390f35b61019760048036038101906101929190610efb565b6105b6565b6040516101a49190611266565b60405180910390f35b6101c760048036038101906101c2919061141d565b6109b2565b005b6000600254905090565b6060600060025467ffffffffffffffff8111156101f3576101f2611292565b5b6040519080825280602002602001820160405280156102215781602001602082028036833780820191505090505b50905060005b60025481101561025e578082828151811061024557610244611527565b5b6020026020010181815250508080600101915050610227565b508091505090565b6001602052816000526040600020818154811061028257600080fd5b90600052602060002001600091509150505481565b60025481565b60006020528060005260406000206000915090508060000154908060010180546102c690611585565b80601f01602080910402602001604051908101604052809291908181526020018280546102f290611585565b801561033f5780601f106103145761010080835404028352916020019161033f565b820191906000526020600020905b81548152906001019060200180831161032257829003601f168201915b50505050509080600201805461035490611585565b80601f016020809104026020016040519081016040528092919081815260200182805461038090611585565b80156103cd5780601f106103a2576101008083540402835291602001916103cd565b820191906000526020600020905b8154815290600101906020018083116103b057829003601f168201915b5050505050908060030180546103e290611585565b80601f016020809104026020016040519081016040528092919081815260200182805461040e90611585565b801561045b5780601f106104305761010080835404028352916020019161045b565b820191906000526020600020905b81548152906001019060200180831161043e57829003601f168201915b50505050509080600401805461047090611585565b80601f016020809104026020016040519081016040528092919081815260200182805461049c90611585565b80156104e95780601f106104be576101008083540402835291602001916104e9565b820191906000526020600020905b8154815290600101906020018083116104cc57829003601f168201915b5050505050908060060160009054906101000a900473ffffffffffffffffffffffffffffffffffffffff16908060070154905087565b6060600160008373ffffffffffffffffffffffffffffffffffffffff1673ffffffffffffffffffffffffffffffffffffffff1681526020019081526020016000208054806020026020016040519081016040528092919081815260200182805480156105aa57602002820191906000526020600020905b815481526020019060010190808311610596575b50505050509050919050565b6105be610bd4565b6002548210610602576040517f08c379a00000000000000000000000000000000000000000000000000000000081526004016105f990611602565b60405180910390fd5b600080838152602001908152602001600020604051806101000160405290816000820154815260200160018201805461063a90611585565b80601f016020809104026020016040519081016040528092919081815260200182805461066690611585565b80156106b35780601f10610688576101008083540402835291602001916106b3565b820191906000526020600020905b81548152906001019060200180831161069657829003601f168201915b505050505081526020016002820180546106cc90611585565b80601f01602080910402602001604051908101604052809291908181526020018280546106f890611585565b80156107455780601f1061071a57610100808354040283529160200191610745565b820191906000526020600020905b81548152906001019060200180831161072857829003601f168201915b5050505050815260200160038201805461075e90611585565b80601f016020809104026020016040519081016040528092919081815260200182805461078a90611585565b80156107d75780601f106107ac576101008083540402835291602001916107d7565b820191906000526020600020905b8154815290600101906020018083116107ba57829003601f168201915b505050505081526020016004820180546107f090611585565b80601f016020809104026020016040519081016040528092919081815260200182805461081c90611585565b80156108695780601f1061083e57610100808354040283529160200191610869565b820191906000526020600020905b81548152906001019060200180831161084c57829003601f168201915b5050505050815260200160058201805480602002602001604051908101604052809291908181526020016000905b828210156109435783829060005260206000200180546108b690611585565b80601f01602080910402602001604051908101604052809291908181526020018280546108e290611585565b801561092f5780601f106109045761010080835404028352916020019161092f565b820191906000526020600020905b81548152906001019060200180831161091257829003601f168201915b505050505081526020019060010190610897565b5050505081526020016006820160009054906101000a900473ffffffffffffffffffffffffffffffffffffffff1673ffffffffffffffffffffffffffffffffffffffff1673ffffffffffffffffffffffffffffffffffffffff1681526020016007820154815250509050919050565b600060025490506040518061010001604052808281526020018881526020018781526020018681526020018581526020018484906109f091906116d5565b81526020013373ffffffffffffffffffffffffffffffffffffffff16815260200142815250600080838152602001908152602001600020600082015181600001556020820151816001019081610a469190611896565b506040820151816002019081610a5c9190611896565b506060820151816003019081610a729190611896565b506080820151816004019081610a889190611896565b5060a0820151816005019080519060200190610aa5929190610c2f565b5060c08201518160060160006101000a81548173ffffffffffffffffffffffffffffffffffffffff021916908373ffffffffffffffffffffffffffffffffffffffff16021790555060e08201518160070155905050600160003373ffffffffffffffffffffffffffffffffffffffff1673ffffffffffffffffffffffffffffffffffffffff16815260200190815260200160002081908060018154018082558091505060019003906000526020600020016000909190919091505560026000815480929190610b7390611997565b91905055503373ffffffffffffffffffffffffffffffffffffffff16817f20c522ac0d5de580034b56135b697c30d7df164d2b9678d39d435ffeace38220898942604051610bc3939291906119df565b60405180910390a350505050505050565b604051806101000160405280600081526020016060815260200160608152602001606081526020016060815260200160608152602001600073ffffffffffffffffffffffffffffffffffffffff168152602001600081525090565b828054828255906000526020600020908101928215610c77579160200282015b82811115610c76578251829081610c669190611896565b5091602001919060010190610c4f565b5b509050610c849190610c88565b5090565b5b80821115610ca85760008181610c9f9190610cac565b50600101610c89565b5090565b508054610cb890611585565b6000825580601f10610cca5750610ce9565b601f016020900490600052602060002090810190610ce89190610cec565b5b50565b5b80821115610d05576000816000905550600101610ced565b5090565b6000819050919050565b610d1c81610d09565b82525050565b6000602082019050610d376000830184610d13565b92915050565b600081519050919050565b600082825260208201905092915050565b6000819050602082019050919050565b610d7281610d09565b82525050565b6000610d848383610d69565b60208301905092915050565b6000602082019050919050565b6000610da882610d3d565b610db28185610d48565b9350610dbd83610d59565b8060005b83811015610dee578151610dd58882610d78565b9750610de083610d90565b925050600181019050610dc1565b5085935050505092915050565b60006020820190508181036000830152610e158184610d9d565b905092915050565b6000604051905090565b600080fd5b600080fd5b600073ffffffffffffffffffffffffffffffffffffffff82169050919050565b6000610e5c82610e31565b9050919050565b610e6c81610e51565b8114610e7757600080fd5b50565b600081359050610e8981610e63565b92915050565b610e9881610d09565b8114610ea357600080fd5b50565b600081359050610eb581610e8f565b92915050565b60008060408385031215610ed257610ed1610e27565b5b6000610ee085828601610e7a565b9250506020610ef185828601610ea6565b9150509250929050565b600060208284031215610f1157610f10610e27565b5b6000610f1f84828501610ea6565b91505092915050565b600081519050919050565b600082825260208201905092915050565b60005b83811015610f62578082015181840152602081019050610f47565b60008484015250505050565b6000601f19601f8301169050919050565b6000610f8a82610f28565b610f948185610f33565b9350610fa4818560208601610f44565b610fad81610f6e565b840191505092915050565b610fc181610e51565b82525050565b600060e082019050610fdc600083018a610d13565b8181036020830152610fee8189610f7f565b905081810360408301526110028188610f7f565b905081810360608301526110168187610f7f565b9050818103608083015261102a8186610f7f565b905061103960a0830185610fb8565b61104660c0830184610d13565b98975050505050505050565b60006020828403121561106857611067610e27565b5b600061107684828501610e7a565b91505092915050565b600082825260208201905092915050565b600061109b82610f28565b6110a5818561107f565b93506110b5818560208601610f44565b6110be81610f6e565b840191505092915050565b600081519050919050565b600082825260208201905092915050565b6000819050602082019050919050565b60006111018383611090565b905092915050565b6000602082019050919050565b6000611121826110c9565b61112b81856110d4565b93508360208202850161113d856110e5565b8060005b85811015611179578484038952815161115a85826110f5565b945061116583611109565b925060208a01995050600181019050611141565b50829750879550505050505092915050565b61119481610e51565b82525050565b6000610100830160008301516111b36000860182610d69565b50602083015184820360208601526111cb8282611090565b915050604083015184820360408601526111e58282611090565b915050606083015184820360608601526111ff8282611090565b915050608083015184820360808601526112198282611090565b91505060a083015184820360a08601526112338282611116565b91505060c083015161124860c086018261118b565b5060e083015161125b60e0860182610d69565b508091505092915050565b60006020820190508181036000830152611280818461119a565b905092915050565b600080fd5b600080fd5b7f4e487b7100000000000000000000000000000000000000000000000000000000600052604160045260246000fd5b6112ca82610f6e565b810181811067ffffffffffffffff821117156112e9576112e8611292565b5b80604052505050565b60006112fc610e1d565b905061130882826112c1565b919050565b600067ffffffffffffffff82111561132857611327611292565b5b61133182610f6e565b9050602081019050919050565b82818337600083830152505050565b600061136061135b8461130d565b6112f2565b90508281526020810184848401111561137c5761137b61128d565b5b61138784828561133e565b509392505050565b600082601f8301126113a4576113a3611288565b5b81356113b484826020860161134d565b91505092915050565b600080fd5b600080fd5b60008083601f8401126113dd576113dc611288565b5b8235905067ffffffffffffffff8111156113fa576113f96113bd565b5b602083019150836020820283011115611416576114156113c2565b5b9250929050565b60008060008060008060a0878903121561143a57611439610e27565b5b600087013567ffffffffffffffff81111561145857611457610e2c565b5b61146489828a0161138f565b965050602087013567ffffffffffffffff81111561148557611484610e2c565b5b61149189828a0161138f565b955050604087013567ffffffffffffffff8111156114b2576114b1610e2c565b5b6114be89828a0161138f565b945050606087013567ffffffffffffffff8111156114df576114de610e2c565b5b6114eb89828a0161138f565b935050608087013567ffffffffffffffff81111561150c5761150b610e2c565b5b61151889828a016113c7565b92509250509295509295509295565b7f4e487b7100000000000000000000000000000000000000000000000000000000600052603260045260246000fd5b7f4e487b7100000000000000000000000000000000000000000000000000000000600052602260045260246000fd5b6000600282049050600182168061159d57607f821691505b6020821081036115b0576115af611556565b5b50919050565b7f506c616e7420494420646f6573206e6f74206578697374000000000000000000600082015250565b60006115ec601783610f33565b91506115f7826115b6565b602082019050919050565b6000602082019050818103600083015261161b816115df565b9050919050565b600067ffffffffffffffff82111561163d5761163c611292565b5b602082029050602081019050919050565b600061166161165c84611622565b6112f2565b90508083825260208201905060208402830185811115611684576116836113c2565b5b835b818110156116cb57803567ffffffffffffffff8111156116a9576116a8611288565b5b8086016116b6898261138f565b85526020850194505050602081019050611686565b5050509392505050565b60006116e236848461164e565b905092915050565b60008190508160005260206000209050919050565b60006020601f8301049050919050565b600082821b905092915050565b60006008830261174c7fffffffffffffffffffffffffffffffffffffffffffffffffffffffffffffffff8261170f565b611756868361170f565b95508019841693508086168417925050509392505050565b6000819050919050565b600061179361178e61178984610d09565b61176e565b610d09565b9050919050565b6000819050919050565b6117ad83611778565b6117c16117b98261179a565b84845461171c565b825550505050565b600090565b6117d66117c9565b6117e18184846117a4565b505050565b5b81811015611805576117fa6000826117ce565b6001810190506117e7565b5050565b601f82111561184a5761181b816116ea565b611824846116ff565b81016020851015611833578190505b61184761183f856116ff565b8301826117e6565b50505b505050565b600082821c905092915050565b600061186d6000198460080261184f565b1980831691505092915050565b6000611886838361185c565b9150826002028217905092915050565b61189f82610f28565b67ffffffffffffffff8111156118b8576118b7611292565b5b6118c28254611585565b6118cd828285611809565b600060209050601f83116001811461190057600084156118ee578287015190505b6118f8858261187a565b865550611960565b601f19841661190e866116ea565b60005b8281101561193657848901518255600182019150602085019450602081019050611911565b86831015611953578489015161194f601f89168261185c565b8355505b6001600288020188555050505b505050505050565b7f4e487b7100000000000000000000000000000000000000000000000000000000600052601160045260246000fd5b60006119a282610d09565b91507fffffffffffffffffffffffffffffffffffffffffffffffffffffffffffffffff82036119d4576119d3611968565b5b600182019050919050565b600060608201905081810360008301526119f98186610f7f565b90508181036020830152611a0d8185610f7f565b9050611a1c6040830184610d13565b94935050505056fea264697066735822122028145de58a9f277fcef234396a5bcadb1c622585eb97d74092ff0c274ef1949b64736f6c634300081b0033",
  "linkReferences": {},
  "deployedLinkReferences": {}
}