{
  "_format": "hh-sol-artifact-1",
  "contractName": "GlobalPlantCatalog",
  "sourceName": "contracts/GlobalPlantCatalog.sol",
  "abi": [
    {
      "anonymous": false,
      "inputs": [
        {
          "indexed": true,
          "internalType": "uint256",
          "name": "plantId",
          "type": "uint256"
        },
        {
          "indexed": true,
          "internalType": "address",
          "name": "creator",
          "type": "address"
        },
        {
          "indexed": false,
          "internalType": "string",
          "name": "popularName",
          "type": "string"
        },
        {
          "indexed": false,
          "internalType": "string",
          "name": "scientificName",
          "type": "string"
        },
        {
          "indexed": false,
          "internalType": "uint256",
          "name": "createdAt",
          "type": "uint256"
        }
      ],
      "name": "PlantAdded",
      "type": "event"
    },
    {
      "anonymous": false,
      "inputs": [
        {
          "indexed": true,
          "internalType": "uint256",
          "name": "plantId",
          "type": "uint256"
        },
        {
          "indexed": true,
          "internalType": "address",
          "name": "voter",
          "type": "address"
        },
        {
          "indexed": false,
          "internalType": "enum GlobalPlantCatalog.VoteType",
          "name": "voteType",
          "type": "uint8"
        }
      ],
      "name": "Voted",
      "type": "event"
    },
    {
      "anonymous": false,
      "inputs": [
        {
          "indexed": true,
          "internalType": "uint256",
          "name": "plantId",
          "type": "uint256"
        },
        {
          "indexed": true,
          "internalType": "address",
          "name": "voter",
          "type": "address"
        },
        {
          "indexed": false,
          "internalType": "enum GlobalPlantCatalog.VoteType",
          "name": "voteType",
          "type": "uint8"
        }
      ],
      "name": "Voted",
      "type": "event"
    },
    {
      "inputs": [
        {
          "internalType": "string",
          "name": "_popularName",
          "type": "string"
        },
        {
          "internalType": "string",
          "name": "_scientificName",
          "type": "string"
        },
        {
          "internalType": "string",
          "name": "_taxonomy",
          "type": "string"
        },
        {
          "internalType": "string",
          "name": "_description",
          "type": "string"
        },
        {
          "internalType": "string",
          "name": "_photoHash",
          "type": "string"
        }
      ],
      "name": "addPlant",
      "outputs": [],
      "stateMutability": "nonpayable",
      "type": "function"
    },
    {
      "inputs": [
        {
          "internalType": "address",
          "name": "",
          "type": "address"
        },
        {
          "internalType": "uint256",
          "name": "",
          "type": "uint256"
        }
      ],
      "name": "creatorPlants",
      "outputs": [
        {
          "internalType": "uint256",
          "name": "",
          "type": "uint256"
        }
      ],
      "stateMutability": "view",
      "type": "function"
    },
    {
      "inputs": [
        {
          "internalType": "uint256",
          "name": "_plantId",
          "type": "uint256"
        }
      ],
      "name": "getPlant",
      "outputs": [
        {
          "components": [
            {
              "internalType": "uint256",
              "name": "id",
              "type": "uint256"
            },
            {
              "internalType": "string",
              "name": "popularName",
              "type": "string"
            },
            {
              "internalType": "string",
              "name": "scientificName",
              "type": "string"
            },
            {
              "internalType": "string",
              "name": "taxonomy",
              "type": "string"
            },
            {
              "internalType": "string",
              "name": "description",
              "type": "string"
            },
            {
              "internalType": "string",
              "name": "photoHash",
              "type": "string"
            },
            {
              "internalType": "address",
              "name": "creator",
              "type": "address"
            },
            {
              "internalType": "uint256",
              "name": "createdAt",
              "type": "uint256"
            },
            {
              "internalType": "uint256",
              "name": "upvotes",
              "type": "uint256"
            },
            {
              "internalType": "uint256",
              "name": "downvotes",
              "type": "uint256"
            }
          ],
          "internalType": "struct GlobalPlantCatalog.Plant",
          "name": "",
          "type": "tuple"
        }
      ],
      "stateMutability": "view",
      "type": "function"
    },
    {
      "inputs": [
        {
          "internalType": "address",
          "name": "_creator",
          "type": "address"
        }
      ],
      "name": "getPlantsByCreator",
      "outputs": [
        {
          "internalType": "uint256[]",
          "name": "",
          "type": "uint256[]"
        }
      ],
      "stateMutability": "view",
      "type": "function"
    },
    {
      "inputs": [],
      "name": "getTotalPlantsCount",
      "outputs": [
        {
          "internalType": "uint256",
          "name": "",
          "type": "uint256"
        }
      ],
      "stateMutability": "view",
      "type": "function"
    },
    {
      "inputs": [
        {
          "internalType": "uint256",
          "name": "_plantId",
          "type": "uint256"
        }
      ],
      "name": "hasMoreUpvotes",
      "outputs": [
        {
          "internalType": "bool",
          "name": "",
          "type": "bool"
        }
      ],
      "stateMutability": "view",
      "type": "function"
    },
    {
      "inputs": [],
      "name": "nextPlantId",
      "outputs": [
        {
          "internalType": "uint256",
          "name": "",
          "type": "uint256"
        }
      ],
      "stateMutability": "view",
      "type": "function"
    },
    {
      "inputs": [
        {
          "internalType": "uint256",
          "name": "",
          "type": "uint256"
        }
      ],
      "name": "plants",
      "outputs": [
        {
          "internalType": "uint256",
          "name": "id",
          "type": "uint256"
        },
        {
          "internalType": "string",
          "name": "popularName",
          "type": "string"
        },
        {
          "internalType": "string",
          "name": "scientificName",
          "type": "string"
        },
        {
          "internalType": "string",
          "name": "taxonomy",
          "type": "string"
        },
        {
          "internalType": "string",
          "name": "description",
          "type": "string"
        },
        {
          "internalType": "string",
          "name": "photoHash",
          "type": "string"
        },
        {
          "internalType": "address",
          "name": "creator",
          "type": "address"
        },
        {
          "internalType": "uint256",
          "name": "createdAt",
          "type": "uint256"
        },
        {
          "internalType": "uint256",
          "name": "upvotes",
          "type": "uint256"
        },
        {
          "internalType": "uint256",
          "name": "downvotes",
          "type": "uint256"
        }
      ],
      "stateMutability": "view",
      "type": "function"
    },
    {
      "inputs": [
        {
          "internalType": "uint256",
          "name": "",
          "type": "uint256"
        },
        {
          "internalType": "address",
          "name": "",
          "type": "address"
        }
      ],
      "name": "userVotes",
      "outputs": [
        {
          "internalType": "enum GlobalPlantCatalog.VoteType",
          "name": "",
          "type": "uint8"
        }
      ],
      "stateMutability": "view",
      "type": "function"
    },
    {
      "inputs": [
        {
          "internalType": "uint256",
          "name": "_plantId",
          "type": "uint256"
        },
        {
          "internalType": "bool",
          "name": "_isUpvote",
          "type": "bool"
        }
      ],
      "name": "vote",
      "outputs": [],
      "stateMutability": "nonpayable",
      "type": "function"
    }
  ],
  "bytecode": "0x6080604052348015600f57600080fd5b50611fd98061001f6000396000f3fe608060405234801561001057600080fd5b506004361061009e5760003560e01c80638dd2361c116100665780638dd2361c1461015b5780639f6b484d14610194578063c9d27afe146101c4578063ed0b1f5f146101e0578063fe5b3e3b146102105761009e565b80631d21d7a4146100a35780634fb9a50a146100c1578063558dfe2b146100f15780635daf30a71461012157806370c9195f1461013f575b600080fd5b6100ab610240565b6040516100b89190611161565b60405180910390f35b6100db60048036038101906100d691906111bc565b61024a565b6040516100e89190611204565b60405180910390f35b61010b6004803603810190610106919061127d565b6102c4565b6040516101189190611161565b60405180910390f35b6101296102f5565b6040516101369190611161565b60405180910390f35b61015960048036038101906101549190611463565b6102fb565b005b610175600480360381019061017091906111bc565b610572565b60405161018b9a999897969594939291906115fb565b60405180910390f35b6101ae60048036038101906101a991906116ba565b61088e565b6040516101bb91906117a5565b60405180910390f35b6101de60048036038101906101d991906117f3565b610925565b005b6101fa60048036038101906101f591906111bc565b610ce7565b6040516102079190611982565b60405180910390f35b61022a600480360381019061022591906119a4565b6110b0565b6040516102379190611a5b565b60405180910390f35b6000600354905090565b60006003548210610290576040517f08c379a000000000000000000000000000000000000000000000000000000000815260040161028790611ac2565b60405180910390fd5b6000808381526020019081526020016000206009015460008084815260200190815260200160002060080154119050919050565b600260205281600052604060002081815481106102e057600080fd5b90600052602060002001600091509150505481565b60035481565b6000600354905060405180610140016040528082815260200188815260200187815260200186815260200185815260200184848080601f016020809104026020016040519081016040528093929190818152602001838380828437600081840152601f19601f8201169050808301925050505050505081526020013373ffffffffffffffffffffffffffffffffffffffff1681526020014381526020016000815260200160008152506000808381526020019081526020016000206000820151816000015560208201518160010190816103d59190611cee565b5060408201518160020190816103eb9190611cee565b5060608201518160030190816104019190611cee565b5060808201518160040190816104179190611cee565b5060a082015181600501908161042d9190611cee565b5060c08201518160060160006101000a81548173ffffffffffffffffffffffffffffffffffffffff021916908373ffffffffffffffffffffffffffffffffffffffff16021790555060e0820151816007015561010082015181600801556101208201518160090155905050600260003373ffffffffffffffffffffffffffffffffffffffff1673ffffffffffffffffffffffffffffffffffffffff1681526020019081526020016000208190806001815401808255809150506001900390600052602060002001600090919091909150556003600081548092919061051190611def565b91905055503373ffffffffffffffffffffffffffffffffffffffff16817f20c522ac0d5de580034b56135b697c30d7df164d2b9678d39d435ffeace3822089894360405161056193929190611e37565b60405180910390a350505050505050565b600060205280600052604060002060009150905080600001549080600101805461059b90611b11565b80601f01602080910402602001604051908101604052809291908181526020018280546105c790611b11565b80156106145780601f106105e957610100808354040283529160200191610614565b820191906000526020600020905b8154815290600101906020018083116105f757829003601f168201915b50505050509080600201805461062990611b11565b80601f016020809104026020016040519081016040528092919081815260200182805461065590611b11565b80156106a25780601f10610677576101008083540402835291602001916106a2565b820191906000526020600020905b81548152906001019060200180831161068557829003601f168201915b5050505050908060030180546106b790611b11565b80601f01602080910402602001604051908101604052809291908181526020018280546106e390611b11565b80156107305780601f1061070557610100808354040283529160200191610730565b820191906000526020600020905b81548152906001019060200180831161071357829003601f168201915b50505050509080600401805461074590611b11565b80601f016020809104026020016040519081016040528092919081815260200182805461077190611b11565b80156107be5780601f10610793576101008083540402835291602001916107be565b820191906000526020600020905b8154815290600101906020018083116107a157829003601f168201915b5050505050908060050180546107d390611b11565b80601f01602080910402602001604051908101604052809291908181526020018280546107ff90611b11565b801561084c5780601f106108215761010080835404028352916020019161084c565b820191906000526020600020905b81548152906001019060200180831161082f57829003601f168201915b5050505050908060060160009054906101000a900473ffffffffffffffffffffffffffffffffffffffff1690806007015490806008015490806009015490508a565b6060600260008373ffffffffffffffffffffffffffffffffffffffff1673ffffffffffffffffffffffffffffffffffffffff16815260200190815260200160002080548060200260200160405190810160405280929190818152602001828054801561091957602002820191906000526020600020905b815481526020019060010190808311610905575b50505050509050919050565b6003548210610969576040517f08c379a000000000000000000000000000000000000000000000000000000000815260040161096090611ac2565b60405180910390fd5b6000806000848152602001908152602001600020905060006001600085815260200190815260200160002060003373ffffffffffffffffffffffffffffffffffffffff1673ffffffffffffffffffffffffffffffffffffffff16815260200190815260200160002060009054906101000a900460ff1690506000836109ef5760026109f2565b60015b9050806002811115610a0757610a066119e4565b5b826002811115610a1a57610a196119e4565b5b03610a5a576040517f08c379a0000000000000000000000000000000000000000000000000000000008152600401610a5190611eee565b60405180910390fd5b600280811115610a6d57610a6c6119e4565b5b826002811115610a8057610a7f6119e4565b5b148015610ab1575060016002811115610a9c57610a9b6119e4565b5b816002811115610aaf57610aae6119e4565b5b145b15610aef57826009016000815480929190610acb90611f0e565b9190505550826008016000815480929190610ae590611def565b9190505550610c19565b60016002811115610b0357610b026119e4565b5b826002811115610b1657610b156119e4565b5b148015610b465750600280811115610b3157610b306119e4565b5b816002811115610b4457610b436119e4565b5b145b15610b8457826008016000815480929190610b6090611f0e565b9190505550826009016000815480929190610b7a90611def565b9190505550610c18565b60006002811115610b9857610b976119e4565b5b826002811115610bab57610baa6119e4565b5b03610c175760016002811115610bc457610bc36119e4565b5b816002811115610bd757610bd66119e4565b5b03610bfb57826008016000815480929190610bf190611def565b9190505550610c16565b826009016000815480929190610c1090611def565b91905055505b5b5b5b806001600087815260200190815260200160002060003373ffffffffffffffffffffffffffffffffffffffff1673ffffffffffffffffffffffffffffffffffffffff16815260200190815260200160002060006101000a81548160ff02191690836002811115610c8c57610c8b6119e4565b5b02179055503373ffffffffffffffffffffffffffffffffffffffff16857f094f80829c509370abb2d421a078ba5926755d3de25d021dacf7bbd19853f7a283604051610cd89190611a5b565b60405180910390a35050505050565b610cef6110df565b6003548210610d33576040517f08c379a0000000000000000000000000000000000000000000000000000000008152600401610d2a90611f83565b60405180910390fd5b6000808381526020019081526020016000206040518061014001604052908160008201548152602001600182018054610d6b90611b11565b80601f0160208091040260200160405190810160405280929190818152602001828054610d9790611b11565b8015610de45780601f10610db957610100808354040283529160200191610de4565b820191906000526020600020905b815481529060010190602001808311610dc757829003601f168201915b50505050508152602001600282018054610dfd90611b11565b80601f0160208091040260200160405190810160405280929190818152602001828054610e2990611b11565b8015610e765780601f10610e4b57610100808354040283529160200191610e76565b820191906000526020600020905b815481529060010190602001808311610e5957829003601f168201915b50505050508152602001600382018054610e8f90611b11565b80601f0160208091040260200160405190810160405280929190818152602001828054610ebb90611b11565b8015610f085780601f10610edd57610100808354040283529160200191610f08565b820191906000526020600020905b815481529060010190602001808311610eeb57829003601f168201915b50505050508152602001600482018054610f2190611b11565b80601f0160208091040260200160405190810160405280929190818152602001828054610f4d90611b11565b8015610f9a5780601f10610f6f57610100808354040283529160200191610f9a565b820191906000526020600020905b815481529060010190602001808311610f7d57829003601f168201915b50505050508152602001600582018054610fb390611b11565b80601f0160208091040260200160405190810160405280929190818152602001828054610fdf90611b11565b801561102c5780601f106110015761010080835404028352916020019161102c565b820191906000526020600020905b81548152906001019060200180831161100f57829003601f168201915b505050505081526020016006820160009054906101000a900473ffffffffffffffffffffffffffffffffffffffff1673ffffffffffffffffffffffffffffffffffffffff1673ffffffffffffffffffffffffffffffffffffffff16815260200160078201548152602001600882015481526020016009820154815250509050919050565b60016020528160005260406000206020528060005260406000206000915091509054906101000a900460ff1681565b604051806101400160405280600081526020016060815260200160608152602001606081526020016060815260200160608152602001600073ffffffffffffffffffffffffffffffffffffffff1681526020016000815260200160008152602001600081525090565b6000819050919050565b61115b81611148565b82525050565b60006020820190506111766000830184611152565b92915050565b6000604051905090565b600080fd5b600080fd5b61119981611148565b81146111a457600080fd5b50565b6000813590506111b681611190565b92915050565b6000602082840312156111d2576111d1611186565b5b60006111e0848285016111a7565b91505092915050565b60008115159050919050565b6111fe816111e9565b82525050565b600060208201905061121960008301846111f5565b92915050565b600073ffffffffffffffffffffffffffffffffffffffff82169050919050565b600061124a8261121f565b9050919050565b61125a8161123f565b811461126557600080fd5b50565b60008135905061127781611251565b92915050565b6000806040838503121561129457611293611186565b5b60006112a285828601611268565b92505060206112b3858286016111a7565b9150509250929050565b600080fd5b600080fd5b6000601f19601f8301169050919050565b7f4e487b7100000000000000000000000000000000000000000000000000000000600052604160045260246000fd5b611310826112c7565b810181811067ffffffffffffffff8211171561132f5761132e6112d8565b5b80604052505050565b600061134261117c565b905061134e8282611307565b919050565b600067ffffffffffffffff82111561136e5761136d6112d8565b5b611377826112c7565b9050602081019050919050565b82818337600083830152505050565b60006113a66113a184611353565b611338565b9050828152602081018484840111156113c2576113c16112c2565b5b6113cd848285611384565b509392505050565b600082601f8301126113ea576113e96112bd565b5b81356113fa848260208601611393565b91505092915050565b600080fd5b600080fd5b60008083601f840112611423576114226112bd565b5b8235905067ffffffffffffffff8111156114405761143f611403565b5b60208301915083600182028301111561145c5761145b611408565b5b9250929050565b60008060008060008060a087890312156114805761147f611186565b5b600087013567ffffffffffffffff81111561149e5761149d61118b565b5b6114aa89828a016113d5565b965050602087013567ffffffffffffffff8111156114cb576114ca61118b565b5b6114d789828a016113d5565b955050604087013567ffffffffffffffff8111156114f8576114f761118b565b5b61150489828a016113d5565b945050606087013567ffffffffffffffff8111156115255761152461118b565b5b61153189828a016113d5565b935050608087013567ffffffffffffffff8111156115525761155161118b565b5b61155e89828a0161140d565b92509250509295509295509295565b600081519050919050565b600082825260208201905092915050565b60005b838110156115a757808201518184015260208101905061158c565b60008484015250505050565b60006115be8261156d565b6115c88185611578565b93506115d8818560208601611589565b6115e1816112c7565b840191505092915050565b6115f58161123f565b82525050565b600061014082019050611611600083018d611152565b8181036020830152611623818c6115b3565b90508181036040830152611637818b6115b3565b9050818103606083015261164b818a6115b3565b9050818103608083015261165f81896115b3565b905081810360a083015261167381886115b3565b905061168260c08301876115ec565b61168f60e0830186611152565b61169d610100830185611152565b6116ab610120830184611152565b9b9a5050505050505050505050565b6000602082840312156116d0576116cf611186565b5b60006116de84828501611268565b91505092915050565b600081519050919050565b600082825260208201905092915050565b6000819050602082019050919050565b61171c81611148565b82525050565b600061172e8383611713565b60208301905092915050565b6000602082019050919050565b6000611752826116e7565b61175c81856116f2565b935061176783611703565b8060005b8381101561179857815161177f8882611722565b975061178a8361173a565b92505060018101905061176b565b5085935050505092915050565b600060208201905081810360008301526117bf8184611747565b905092915050565b6117d0816111e9565b81146117db57600080fd5b50565b6000813590506117ed816117c7565b92915050565b6000806040838503121561180a57611809611186565b5b6000611818858286016111a7565b9250506020611829858286016117de565b9150509250929050565b600082825260208201905092915050565b600061184f8261156d565b6118598185611833565b9350611869818560208601611589565b611872816112c7565b840191505092915050565b6118868161123f565b82525050565b6000610140830160008301516118a56000860182611713565b50602083015184820360208601526118bd8282611844565b915050604083015184820360408601526118d78282611844565b915050606083015184820360608601526118f18282611844565b9150506080830151848203608086015261190b8282611844565b91505060a083015184820360a08601526119258282611844565b91505060c083015161193a60c086018261187d565b5060e083015161194d60e0860182611713565b50610100830151611962610100860182611713565b50610120830151611977610120860182611713565b508091505092915050565b6000602082019050818103600083015261199c818461188c565b905092915050565b600080604083850312156119bb576119ba611186565b5b60006119c9858286016111a7565b92505060206119da85828601611268565b9150509250929050565b7f4e487b7100000000000000000000000000000000000000000000000000000000600052602160045260246000fd5b60038110611a2457611a236119e4565b5b50565b6000819050611a3582611a13565b919050565b6000611a4582611a27565b9050919050565b611a5581611a3a565b82525050565b6000602082019050611a706000830184611a4c565b92915050565b7f4750433a20506c616e7420494420646f6573206e6f7420657869737400000000600082015250565b6000611aac601c83611578565b9150611ab782611a76565b602082019050919050565b60006020820190508181036000830152611adb81611a9f565b9050919050565b7f4e487b7100000000000000000000000000000000000000000000000000000000600052602260045260246000fd5b60006002820490506001821680611b2957607f821691505b602082108103611b3c57611b3b611ae2565b5b50919050565b60008190508160005260206000209050919050565b60006020601f8301049050919050565b600082821b905092915050565b600060088302611ba47fffffffffffffffffffffffffffffffffffffffffffffffffffffffffffffffff82611b67565b611bae8683611b67565b95508019841693508086168417925050509392505050565b6000819050919050565b6000611beb611be6611be184611148565b611bc6565b611148565b9050919050565b6000819050919050565b611c0583611bd0565b611c19611c1182611bf2565b848454611b74565b825550505050565b600090565b611c2e611c21565b611c39818484611bfc565b505050565b5b81811015611c5d57611c52600082611c26565b600181019050611c3f565b5050565b601f821115611ca257611c7381611b42565b611c7c84611b57565b81016020851015611c8b578190505b611c9f611c9785611b57565b830182611c3e565b50505b505050565b600082821c905092915050565b6000611cc560001984600802611ca7565b1980831691505092915050565b6000611cde8383611cb4565b9150826002028217905092915050565b611cf78261156d565b67ffffffffffffffff811115611d1057611d0f6112d8565b5b611d1a8254611b11565b611d25828285611c61565b600060209050601f831160018114611d585760008415611d46578287015190505b611d508582611cd2565b865550611db8565b601f198416611d6686611b42565b60005b82811015611d8e57848901518255600182019150602085019450602081019050611d69565b86831015611dab5784890151611da7601f891682611cb4565b8355505b6001600288020188555050505b505050505050565b7f4e487b7100000000000000000000000000000000000000000000000000000000600052601160045260246000fd5b6000611dfa82611148565b91507fffffffffffffffffffffffffffffffffffffffffffffffffffffffffffffffff8203611e2c57611e2b611dc0565b5b600182019050919050565b60006060820190508181036000830152611e5181866115b3565b90508181036020830152611e6581856115b3565b9050611e746040830184611152565b949350505050565b7f4750433a20596f75206861766520616c7265616479206361737420746869732060008201527f766f746500000000000000000000000000000000000000000000000000000000602082015250565b6000611ed8602483611578565b9150611ee382611e7c565b604082019050919050565b60006020820190508181036000830152611f0781611ecb565b9050919050565b6000611f1982611148565b915060008203611f2c57611f2b611dc0565b5b600182039050919050565b7f506c616e7420494420646f6573206e6f74206578697374000000000000000000600082015250565b6000611f6d601783611578565b9150611f7882611f37565b602082019050919050565b60006020820190508181036000830152611f9c81611f60565b905091905056fea26469706673582212208800c222ce29598ce9d27c5ddd6b7358a2cf5d9766b771b64e7ccd9f57cfc1be64736f6c634300081b0033",
  "linkReferences": {},
  "deployedLinkReferences": {}
}