{
  "_format": "hh-sol-artifact-1",
  "contractName": "GlobalPlantCatalog",
  "sourceName": "contracts/GlobalPlantCatalog.sol",
  "abi": [
    {
      "anonymous": false,
      "inputs": [
        {
          "indexed": true,
          "internalType": "uint256",
          "name": "plantId",
          "type": "uint256"
        },
        {
          "indexed": true,
          "internalType": "address",
          "name": "creator",
          "type": "address"
        },
        {
          "indexed": false,
          "internalType": "string",
          "name": "popularName",
          "type": "string"
        },
        {
          "indexed": false,
          "internalType": "string",
          "name": "scientificName",
          "type": "string"
        },
        {
          "indexed": false,
          "internalType": "uint256",
          "name": "createdAt",
          "type": "uint256"
        }
      ],
      "name": "PlantAdded",
      "type": "event"
    },
    {
      "inputs": [
        {
          "internalType": "string",
          "name": "_popularName",
          "type": "string"
        },
        {
          "internalType": "string",
          "name": "_scientificName",
          "type": "string"
        },
        {
          "internalType": "string",
          "name": "_taxonomy",
          "type": "string"
        },
        {
          "internalType": "string",
          "name": "_description",
          "type": "string"
        },
        {
          "internalType": "string",
          "name": "_photoHash",
          "type": "string"
        }
      ],
      "name": "addPlant",
      "outputs": [],
      "stateMutability": "nonpayable",
      "type": "function"
    },
    {
      "inputs": [
        {
          "internalType": "address",
          "name": "",
          "type": "address"
        },
        {
          "internalType": "uint256",
          "name": "",
          "type": "uint256"
        }
      ],
      "name": "creatorPlants",
      "outputs": [
        {
          "internalType": "uint256",
          "name": "",
          "type": "uint256"
        }
      ],
      "stateMutability": "view",
      "type": "function"
    },
    {
      "inputs": [],
      "name": "getAllPlantIds",
      "outputs": [
        {
          "internalType": "uint256[]",
          "name": "",
          "type": "uint256[]"
        }
      ],
      "stateMutability": "view",
      "type": "function"
    },
    {
      "inputs": [
        {
          "internalType": "uint256",
          "name": "_plantId",
          "type": "uint256"
        }
      ],
      "name": "getPlant",
      "outputs": [
        {
          "components": [
            {
              "internalType": "uint256",
              "name": "id",
              "type": "uint256"
            },
            {
              "internalType": "string",
              "name": "popularName",
              "type": "string"
            },
            {
              "internalType": "string",
              "name": "scientificName",
              "type": "string"
            },
            {
              "internalType": "string",
              "name": "taxonomy",
              "type": "string"
            },
            {
              "internalType": "string",
              "name": "description",
              "type": "string"
            },
            {
              "internalType": "string",
              "name": "photoHash",
              "type": "string"
            },
            {
              "internalType": "address",
              "name": "creator",
              "type": "address"
            },
            {
              "internalType": "uint256",
              "name": "createdAt",
              "type": "uint256"
            }
          ],
          "internalType": "struct GlobalPlantCatalog.Plant",
          "name": "",
          "type": "tuple"
        }
      ],
      "stateMutability": "view",
      "type": "function"
    },
    {
      "inputs": [
        {
          "internalType": "address",
          "name": "_creator",
          "type": "address"
        }
      ],
      "name": "getPlantsByCreator",
      "outputs": [
        {
          "internalType": "uint256[]",
          "name": "",
          "type": "uint256[]"
        }
      ],
      "stateMutability": "view",
      "type": "function"
    },
    {
      "inputs": [],
      "name": "getTotalPlantsCount",
      "outputs": [
        {
          "internalType": "uint256",
          "name": "",
          "type": "uint256"
        }
      ],
      "stateMutability": "view",
      "type": "function"
    },
    {
      "inputs": [],
      "name": "nextPlantId",
      "outputs": [
        {
          "internalType": "uint256",
          "name": "",
          "type": "uint256"
        }
      ],
      "stateMutability": "view",
      "type": "function"
    },
    {
      "inputs": [
        {
          "internalType": "uint256",
          "name": "",
          "type": "uint256"
        }
      ],
      "name": "plants",
      "outputs": [
        {
          "internalType": "uint256",
          "name": "id",
          "type": "uint256"
        },
        {
          "internalType": "string",
          "name": "popularName",
          "type": "string"
        },
        {
          "internalType": "string",
          "name": "scientificName",
          "type": "string"
        },
        {
          "internalType": "string",
          "name": "taxonomy",
          "type": "string"
        },
        {
          "internalType": "string",
          "name": "description",
          "type": "string"
        },
        {
          "internalType": "string",
          "name": "photoHash",
          "type": "string"
        },
        {
          "internalType": "address",
          "name": "creator",
          "type": "address"
        },
        {
          "internalType": "uint256",
          "name": "createdAt",
          "type": "uint256"
        }
      ],
      "stateMutability": "view",
      "type": "function"
    }
  ],
  "bytecode": "0x6080604052348015600f57600080fd5b506118858061001f6000396000f3fe608060405234801561001057600080fd5b50600436106100885760003560e01c806370c9195f1161005b57806370c9195f146101175780638dd2361c146101335780639f6b484d1461016a578063ed0b1f5f1461019a57610088565b80631d21d7a41461008d57806326e5807d146100ab578063558dfe2b146100c95780635daf30a7146100f9575b600080fd5b6100956101ca565b6040516100a29190610cc1565b60405180910390f35b6100b36101d4565b6040516100c09190610d9a565b60405180910390f35b6100e360048036038101906100de9190610e5a565b610267565b6040516100f09190610cc1565b60405180910390f35b610101610298565b60405161010e9190610cc1565b60405180910390f35b610131600480360381019061012c9190611040565b61029e565b005b61014d6004803603810190610148919061114a565b6104f1565b604051610161989796959493929190611205565b60405180910390f35b610184600480360381019061017f91906112a6565b610801565b6040516101919190610d9a565b60405180910390f35b6101b460048036038101906101af919061114a565b610898565b6040516101c191906113f8565b60405180910390f35b6000600254905090565b6060600060025467ffffffffffffffff8111156101f4576101f3610eb5565b5b6040519080825280602002602001820160405280156102225781602001602082028036833780820191505090505b50905060005b60025481101561025f57808282815181106102465761024561141a565b5b6020026020010181815250508080600101915050610228565b508091505090565b6001602052816000526040600020818154811061028357600080fd5b90600052602060002001600091509150505481565b60025481565b6000600254905060405180610100016040528082815260200188815260200187815260200186815260200185815260200184848080601f016020809104026020016040519081016040528093929190818152602001838380828437600081840152601f19601f8201169050808301925050505050505081526020013373ffffffffffffffffffffffffffffffffffffffff1681526020014281525060008083815260200190815260200160002060008201518160000155602082015181600101908161036a9190611655565b5060408201518160020190816103809190611655565b5060608201518160030190816103969190611655565b5060808201518160040190816103ac9190611655565b5060a08201518160050190816103c29190611655565b5060c08201518160060160006101000a81548173ffffffffffffffffffffffffffffffffffffffff021916908373ffffffffffffffffffffffffffffffffffffffff16021790555060e08201518160070155905050600160003373ffffffffffffffffffffffffffffffffffffffff1673ffffffffffffffffffffffffffffffffffffffff1681526020019081526020016000208190806001815401808255809150506001900390600052602060002001600090919091909150556002600081548092919061049090611756565b91905055503373ffffffffffffffffffffffffffffffffffffffff16817f20c522ac0d5de580034b56135b697c30d7df164d2b9678d39d435ffeace382208989426040516104e09392919061179e565b60405180910390a350505050505050565b600060205280600052604060002060009150905080600001549080600101805461051a90611478565b80601f016020809104026020016040519081016040528092919081815260200182805461054690611478565b80156105935780601f1061056857610100808354040283529160200191610593565b820191906000526020600020905b81548152906001019060200180831161057657829003601f168201915b5050505050908060020180546105a890611478565b80601f01602080910402602001604051908101604052809291908181526020018280546105d490611478565b80156106215780601f106105f657610100808354040283529160200191610621565b820191906000526020600020905b81548152906001019060200180831161060457829003601f168201915b50505050509080600301805461063690611478565b80601f016020809104026020016040519081016040528092919081815260200182805461066290611478565b80156106af5780601f10610684576101008083540402835291602001916106af565b820191906000526020600020905b81548152906001019060200180831161069257829003601f168201915b5050505050908060040180546106c490611478565b80601f01602080910402602001604051908101604052809291908181526020018280546106f090611478565b801561073d5780601f106107125761010080835404028352916020019161073d565b820191906000526020600020905b81548152906001019060200180831161072057829003601f168201915b50505050509080600501805461075290611478565b80601f016020809104026020016040519081016040528092919081815260200182805461077e90611478565b80156107cb5780601f106107a0576101008083540402835291602001916107cb565b820191906000526020600020905b8154815290600101906020018083116107ae57829003601f168201915b5050505050908060060160009054906101000a900473ffffffffffffffffffffffffffffffffffffffff16908060070154905088565b6060600160008373ffffffffffffffffffffffffffffffffffffffff1673ffffffffffffffffffffffffffffffffffffffff16815260200190815260200160002080548060200260200160405190810160405280929190818152602001828054801561088c57602002820191906000526020600020905b815481526020019060010190808311610878575b50505050509050919050565b6108a0610c4d565b60025482106108e4576040517f08c379a00000000000000000000000000000000000000000000000000000000081526004016108db9061182f565b60405180910390fd5b600080838152602001908152602001600020604051806101000160405290816000820154815260200160018201805461091c90611478565b80601f016020809104026020016040519081016040528092919081815260200182805461094890611478565b80156109955780601f1061096a57610100808354040283529160200191610995565b820191906000526020600020905b81548152906001019060200180831161097857829003601f168201915b505050505081526020016002820180546109ae90611478565b80601f01602080910402602001604051908101604052809291908181526020018280546109da90611478565b8015610a275780601f106109fc57610100808354040283529160200191610a27565b820191906000526020600020905b815481529060010190602001808311610a0a57829003601f168201915b50505050508152602001600382018054610a4090611478565b80601f0160208091040260200160405190810160405280929190818152602001828054610a6c90611478565b8015610ab95780601f10610a8e57610100808354040283529160200191610ab9565b820191906000526020600020905b815481529060010190602001808311610a9c57829003601f168201915b50505050508152602001600482018054610ad290611478565b80601f0160208091040260200160405190810160405280929190818152602001828054610afe90611478565b8015610b4b5780601f10610b2057610100808354040283529160200191610b4b565b820191906000526020600020905b815481529060010190602001808311610b2e57829003601f168201915b50505050508152602001600582018054610b6490611478565b80601f0160208091040260200160405190810160405280929190818152602001828054610b9090611478565b8015610bdd5780601f10610bb257610100808354040283529160200191610bdd565b820191906000526020600020905b815481529060010190602001808311610bc057829003601f168201915b505050505081526020016006820160009054906101000a900473ffffffffffffffffffffffffffffffffffffffff1673ffffffffffffffffffffffffffffffffffffffff1673ffffffffffffffffffffffffffffffffffffffff1681526020016007820154815250509050919050565b604051806101000160405280600081526020016060815260200160608152602001606081526020016060815260200160608152602001600073ffffffffffffffffffffffffffffffffffffffff168152602001600081525090565b6000819050919050565b610cbb81610ca8565b82525050565b6000602082019050610cd66000830184610cb2565b92915050565b600081519050919050565b600082825260208201905092915050565b6000819050602082019050919050565b610d1181610ca8565b82525050565b6000610d238383610d08565b60208301905092915050565b6000602082019050919050565b6000610d4782610cdc565b610d518185610ce7565b9350610d5c83610cf8565b8060005b83811015610d8d578151610d748882610d17565b9750610d7f83610d2f565b925050600181019050610d60565b5085935050505092915050565b60006020820190508181036000830152610db48184610d3c565b905092915050565b6000604051905090565b600080fd5b600080fd5b600073ffffffffffffffffffffffffffffffffffffffff82169050919050565b6000610dfb82610dd0565b9050919050565b610e0b81610df0565b8114610e1657600080fd5b50565b600081359050610e2881610e02565b92915050565b610e3781610ca8565b8114610e4257600080fd5b50565b600081359050610e5481610e2e565b92915050565b60008060408385031215610e7157610e70610dc6565b5b6000610e7f85828601610e19565b9250506020610e9085828601610e45565b9150509250929050565b600080fd5b600080fd5b6000601f19601f8301169050919050565b7f4e487b7100000000000000000000000000000000000000000000000000000000600052604160045260246000fd5b610eed82610ea4565b810181811067ffffffffffffffff82111715610f0c57610f0b610eb5565b5b80604052505050565b6000610f1f610dbc565b9050610f2b8282610ee4565b919050565b600067ffffffffffffffff821115610f4b57610f4a610eb5565b5b610f5482610ea4565b9050602081019050919050565b82818337600083830152505050565b6000610f83610f7e84610f30565b610f15565b905082815260208101848484011115610f9f57610f9e610e9f565b5b610faa848285610f61565b509392505050565b600082601f830112610fc757610fc6610e9a565b5b8135610fd7848260208601610f70565b91505092915050565b600080fd5b600080fd5b60008083601f84011261100057610fff610e9a565b5b8235905067ffffffffffffffff81111561101d5761101c610fe0565b5b60208301915083600182028301111561103957611038610fe5565b5b9250929050565b60008060008060008060a0878903121561105d5761105c610dc6565b5b600087013567ffffffffffffffff81111561107b5761107a610dcb565b5b61108789828a01610fb2565b965050602087013567ffffffffffffffff8111156110a8576110a7610dcb565b5b6110b489828a01610fb2565b955050604087013567ffffffffffffffff8111156110d5576110d4610dcb565b5b6110e189828a01610fb2565b945050606087013567ffffffffffffffff81111561110257611101610dcb565b5b61110e89828a01610fb2565b935050608087013567ffffffffffffffff81111561112f5761112e610dcb565b5b61113b89828a01610fea565b92509250509295509295509295565b6000602082840312156111605761115f610dc6565b5b600061116e84828501610e45565b91505092915050565b600081519050919050565b600082825260208201905092915050565b60005b838110156111b1578082015181840152602081019050611196565b60008484015250505050565b60006111c882611177565b6111d28185611182565b93506111e2818560208601611193565b6111eb81610ea4565b840191505092915050565b6111ff81610df0565b82525050565b60006101008201905061121b600083018b610cb2565b818103602083015261122d818a6111bd565b9050818103604083015261124181896111bd565b9050818103606083015261125581886111bd565b9050818103608083015261126981876111bd565b905081810360a083015261127d81866111bd565b905061128c60c08301856111f6565b61129960e0830184610cb2565b9998505050505050505050565b6000602082840312156112bc576112bb610dc6565b5b60006112ca84828501610e19565b91505092915050565b600082825260208201905092915050565b60006112ef82611177565b6112f981856112d3565b9350611309818560208601611193565b61131281610ea4565b840191505092915050565b61132681610df0565b82525050565b6000610100830160008301516113456000860182610d08565b506020830151848203602086015261135d82826112e4565b9150506040830151848203604086015261137782826112e4565b9150506060830151848203606086015261139182826112e4565b915050608083015184820360808601526113ab82826112e4565b91505060a083015184820360a08601526113c582826112e4565b91505060c08301516113da60c086018261131d565b5060e08301516113ed60e0860182610d08565b508091505092915050565b60006020820190508181036000830152611412818461132c565b905092915050565b7f4e487b7100000000000000000000000000000000000000000000000000000000600052603260045260246000fd5b7f4e487b7100000000000000000000000000000000000000000000000000000000600052602260045260246000fd5b6000600282049050600182168061149057607f821691505b6020821081036114a3576114a2611449565b5b50919050565b60008190508160005260206000209050919050565b60006020601f8301049050919050565b600082821b905092915050565b60006008830261150b7fffffffffffffffffffffffffffffffffffffffffffffffffffffffffffffffff826114ce565b61151586836114ce565b95508019841693508086168417925050509392505050565b6000819050919050565b600061155261154d61154884610ca8565b61152d565b610ca8565b9050919050565b6000819050919050565b61156c83611537565b61158061157882611559565b8484546114db565b825550505050565b600090565b611595611588565b6115a0818484611563565b505050565b5b818110156115c4576115b960008261158d565b6001810190506115a6565b5050565b601f821115611609576115da816114a9565b6115e3846114be565b810160208510156115f2578190505b6116066115fe856114be565b8301826115a5565b50505b505050565b600082821c905092915050565b600061162c6000198460080261160e565b1980831691505092915050565b6000611645838361161b565b9150826002028217905092915050565b61165e82611177565b67ffffffffffffffff81111561167757611676610eb5565b5b6116818254611478565b61168c8282856115c8565b600060209050601f8311600181146116bf57600084156116ad578287015190505b6116b78582611639565b86555061171f565b601f1984166116cd866114a9565b60005b828110156116f5578489015182556001820191506020850194506020810190506116d0565b86831015611712578489015161170e601f89168261161b565b8355505b6001600288020188555050505b505050505050565b7f4e487b7100000000000000000000000000000000000000000000000000000000600052601160045260246000fd5b600061176182610ca8565b91507fffffffffffffffffffffffffffffffffffffffffffffffffffffffffffffffff820361179357611792611727565b5b600182019050919050565b600060608201905081810360008301526117b881866111bd565b905081810360208301526117cc81856111bd565b90506117db6040830184610cb2565b949350505050565b7f506c616e7420494420646f6573206e6f74206578697374000000000000000000600082015250565b6000611819601783611182565b9150611824826117e3565b602082019050919050565b600060208201905081810360008301526118488161180c565b905091905056fea26469706673582212201df671d8dc935545ff0a3d0cd8301cf60635cb1e493008dfb1247fb33cb9405564736f6c634300081b0033",
  "linkReferences": {},
  "deployedLinkReferences": {}
}